{
  "transactions": [
    {
      "hash": "0xeac18f7bfbfe56c09368a1e5d03a32e086a4d1c7a27878286065b0b0e598ec0a",
      "transactionType": "CALL",
      "contractName": null,
      "contractAddress": "0x29faf6cafa4bea1dc7c232f0a1818d4da6b724dd",
      "function": "mint(address,uint256)",
      "arguments": [
        "0x4c54F58cdbE8159efB71985e1E5289cBdEced2Bd",
        "10000000000000000"
      ],
      "transaction": {
        "from": "0x56a2950dde6b1040d1dcc4b4c4fc314bd56efb0e",
        "to": "0x29faf6cafa4bea1dc7c232f0a1818d4da6b724dd",
        "gas": "0xae00",
        "value": "0x0",
        "input": "0x40c10f190000000000000000000000004c54f58cdbe8159efb71985e1e5289cbdeced2bd000000000000000000000000000000000000000000000000002386f26fc10000",
        "nonce": "0xf1",
        "chainId": "0x138b"
      },
      "additionalContracts": [],
      "isFixedGasLimit": false
    },
    {
      "hash": "0xb749174fb647199a56eb4b2564b845cb9db76deee7e08d8390aa18bea2f9f11e",
      "transactionType": "CALL",
      "contractName": null,
      "contractAddress": "0xada0466303441102cb16f8ec1594c744d603f746",
      "function": "mint(address,uint256)",
      "arguments": [
        "0x4c54F58cdbE8159efB71985e1E5289cBdEced2Bd",
        "10000000000000000000000000000"
      ],
      "transaction": {
        "from": "0x56a2950dde6b1040d1dcc4b4c4fc314bd56efb0e",
        "to": "0xada0466303441102cb16f8ec1594c744d603f746",
        "gas": "0xae3e",
        "value": "0x0",
        "input": "0x40c10f190000000000000000000000004c54f58cdbe8159efb71985e1e5289cbdeced2bd0000000000000000000000000000000000000000204fce5e3e25026110000000",
        "nonce": "0xf2",
        "chainId": "0x138b"
      },
      "additionalContracts": [],
      "isFixedGasLimit": false
    },
    {
      "hash": "0x9c3dc922ba108b08a5ea04900dcc6d4550c647acd0de861294aee8b0d9f5acc9",
      "transactionType": "CALL",
      "contractName": null,
      "contractAddress": "0x0d7766158f14ad7bb82d9fd8a47734e801e3f5b8",
      "function": "mint(address,uint256)",
      "arguments": [
        "0x4c54F58cdbE8159efB71985e1E5289cBdEced2Bd",
        "10000000000000000000000000000"
      ],
      "transaction": {
        "from": "0x56a2950dde6b1040d1dcc4b4c4fc314bd56efb0e",
        "to": "0x0d7766158f14ad7bb82d9fd8a47734e801e3f5b8",
        "gas": "0xae3e",
        "value": "0x0",
        "input": "0x40c10f190000000000000000000000004c54f58cdbe8159efb71985e1e5289cbdeced2bd0000000000000000000000000000000000000000204fce5e3e25026110000000",
        "nonce": "0xf3",
        "chainId": "0x138b"
      },
      "additionalContracts": [],
      "isFixedGasLimit": false
    },
    {
      "hash": "0x7a24fb95c53a5d023c54a27357c48cef4b610e971cd367bf047914add9950291",
      "transactionType": "CALL",
      "contractName": null,
      "contractAddress": "0xd89395df78aafdf86b330899d1c6189211e88750",
      "function": "mint(address,uint256)",
      "arguments": [
        "0x4c54F58cdbE8159efB71985e1E5289cBdEced2Bd",
        "10000000000000000000000000000"
      ],
      "transaction": {
        "from": "0x56a2950dde6b1040d1dcc4b4c4fc314bd56efb0e",
        "to": "0xd89395df78aafdf86b330899d1c6189211e88750",
        "gas": "0xae3e",
        "value": "0x0",
        "input": "0x40c10f190000000000000000000000004c54f58cdbe8159efb71985e1e5289cbdeced2bd0000000000000000000000000000000000000000204fce5e3e25026110000000",
        "nonce": "0xf4",
        "chainId": "0x138b"
      },
      "additionalContracts": [],
      "isFixedGasLimit": false
    },
    {
      "hash": "0x3fd401e5bb36fc18b993b2fe3fb75391d64431a78ebd7f6b98017dc9256e314f",
      "transactionType": "CALL",
      "contractName": null,
      "contractAddress": "0xb6f57152bc6ac9cdc7862f8dae0aac17f6f5d8ff",
      "function": "mint(address,uint256)",
      "arguments": [
        "0x4c54F58cdbE8159efB71985e1E5289cBdEced2Bd",
        "10000000000000000000000000000"
      ],
      "transaction": {
        "from": "0x56a2950dde6b1040d1dcc4b4c4fc314bd56efb0e",
        "to": "0xb6f57152bc6ac9cdc7862f8dae0aac17f6f5d8ff",
        "gas": "0xae3e",
        "value": "0x0",
        "input": "0x40c10f190000000000000000000000004c54f58cdbe8159efb71985e1e5289cbdeced2bd0000000000000000000000000000000000000000204fce5e3e25026110000000",
        "nonce": "0xf5",
        "chainId": "0x138b"
      },
      "additionalContracts": [],
      "isFixedGasLimit": false
    },
    {
      "hash": "0xe486dc14d76f2e342d29b3a8f6358d67f1ad0042711d6977e4c174fc33005bb4",
      "transactionType": "CALL",
      "contractName": null,
      "contractAddress": "0xf76da0ec605cfac82f1da86080da21316c07d130",
      "function": "mint(address,uint256)",
      "arguments": [
        "0x4c54F58cdbE8159efB71985e1E5289cBdEced2Bd",
        "10000000000000000000000000000"
      ],
      "transaction": {
        "from": "0x56a2950dde6b1040d1dcc4b4c4fc314bd56efb0e",
        "to": "0xf76da0ec605cfac82f1da86080da21316c07d130",
        "gas": "0xae3e",
        "value": "0x0",
        "input": "0x40c10f190000000000000000000000004c54f58cdbe8159efb71985e1e5289cbdeced2bd0000000000000000000000000000000000000000204fce5e3e25026110000000",
        "nonce": "0xf6",
        "chainId": "0x138b"
      },
      "additionalContracts": [],
      "isFixedGasLimit": false
    },
    {
      "hash": "0x30fe62718a1ca47f5ff0dbd9892ee3f427183ba63e89d445aae845057f509345",
      "transactionType": "CALL",
      "contractName": null,
      "contractAddress": "0x61a4ac2678048ed431e362c14d2ec7a0b3191966",
      "function": "mint(address,uint256)",
      "arguments": [
        "0x4c54F58cdbE8159efB71985e1E5289cBdEced2Bd",
        "10000000000000000000000000000"
      ],
      "transaction": {
        "from": "0x56a2950dde6b1040d1dcc4b4c4fc314bd56efb0e",
        "to": "0x61a4ac2678048ed431e362c14d2ec7a0b3191966",
        "gas": "0xae82",
        "value": "0x0",
        "input": "0x40c10f190000000000000000000000004c54f58cdbe8159efb71985e1e5289cbdeced2bd0000000000000000000000000000000000000000204fce5e3e25026110000000",
        "nonce": "0xf7",
        "chainId": "0x138b"
      },
      "additionalContracts": [],
      "isFixedGasLimit": false
    },
    {
      "hash": "0x684d5181e302afe4789d68731089ac94df91d7e7b73b2fa9dc8b0540b9e63595",
      "transactionType": "CALL",
      "contractName": "MockCETES",
      "contractAddress": "0x1054424a70dae9098babec332e18a0f07d37d251",
      "function": "mint(address,uint256)",
      "arguments": [
        "0x4c54F58cdbE8159efB71985e1E5289cBdEced2Bd",
        "10000000000000000000000000000"
      ],
      "transaction": {
        "from": "0x56a2950dde6b1040d1dcc4b4c4fc314bd56efb0e",
        "to": "0x1054424a70dae9098babec332e18a0f07d37d251",
        "gas": "0xae3e",
        "value": "0x0",
        "input": "0x40c10f190000000000000000000000004c54f58cdbe8159efb71985e1e5289cbdeced2bd0000000000000000000000000000000000000000204fce5e3e25026110000000",
        "nonce": "0xf8",
        "chainId": "0x138b"
      },
      "additionalContracts": [],
      "isFixedGasLimit": false
    },
    {
      "hash": "0x2117067d886ada22a6e0535c9ea83a378c13d5d53328f020360c35cc15a2a274",
      "transactionType": "CALL",
      "contractName": "MockGILTS",
      "contractAddress": "0xbea967ace62d23d335ddad03972659509e1c3559",
      "function": "mint(address,uint256)",
      "arguments": [
        "0x4c54F58cdbE8159efB71985e1E5289cBdEced2Bd",
        "10000000000000000000000000000"
      ],
      "transaction": {
        "from": "0x56a2950dde6b1040d1dcc4b4c4fc314bd56efb0e",
        "to": "0xbea967ace62d23d335ddad03972659509e1c3559",
        "gas": "0xae3e",
        "value": "0x0",
        "input": "0x40c10f190000000000000000000000004c54f58cdbe8159efb71985e1e5289cbdeced2bd0000000000000000000000000000000000000000204fce5e3e25026110000000",
        "nonce": "0xf9",
        "chainId": "0x138b"
      },
      "additionalContracts": [],
      "isFixedGasLimit": false
    },
    {
      "hash": "0x08c3fcd315b21b3cc5650f9c04d241499a221679712698f683582a1afa1049e4",
      "transactionType": "CALL",
      "contractName": "MockKTB",
      "contractAddress": "0x10d9eb91d0a69098431fb833e666bd64455d45f3",
      "function": "mint(address,uint256)",
      "arguments": [
        "0x4c54F58cdbE8159efB71985e1E5289cBdEced2Bd",
        "10000000000000000000000000000"
      ],
      "transaction": {
        "from": "0x56a2950dde6b1040d1dcc4b4c4fc314bd56efb0e",
        "to": "0x10d9eb91d0a69098431fb833e666bd64455d45f3",
        "gas": "0xae3e",
        "value": "0x0",
        "input": "0x40c10f190000000000000000000000004c54f58cdbe8159efb71985e1e5289cbdeced2bd0000000000000000000000000000000000000000204fce5e3e25026110000000",
        "nonce": "0xfa",
        "chainId": "0x138b"
      },
      "additionalContracts": [],
      "isFixedGasLimit": false
    },
    {
      "hash": "0x0c24b9f80e4d20979f4de0d731e3ec71e2a068600d5deed7b6f146ac0587bd8b",
      "transactionType": "CALL",
      "contractName": "MockTESOURO",
      "contractAddress": "0xfda1e869846776e3c182f5e105640ac48d474605",
      "function": "mint(address,uint256)",
      "arguments": [
        "0x4c54F58cdbE8159efB71985e1E5289cBdEced2Bd",
        "10000000000000000000000000000"
      ],
      "transaction": {
        "from": "0x56a2950dde6b1040d1dcc4b4c4fc314bd56efb0e",
        "to": "0xfda1e869846776e3c182f5e105640ac48d474605",
        "gas": "0xae3e",
        "value": "0x0",
        "input": "0x40c10f190000000000000000000000004c54f58cdbe8159efb71985e1e5289cbdeced2bd0000000000000000000000000000000000000000204fce5e3e25026110000000",
        "nonce": "0xfb",
        "chainId": "0x138b"
      },
      "additionalContracts": [],
      "isFixedGasLimit": false
    },
    {
      "hash": "0x4ee30b1e23bcb2b3b9d01da2223975f376c6d9af9b6267e2dff66f6da47603ff",
      "transactionType": "CALL",
      "contractName": null,
      "contractAddress": "0x3d85b13c76fc218830e3c0d2e147d1a6b8f3cdc8",
      "function": "mint(address,uint256)",
      "arguments": [
        "0x4c54F58cdbE8159efB71985e1E5289cBdEced2Bd",
        "10000000000000000000000000000"
      ],
      "transaction": {
        "from": "0x56a2950dde6b1040d1dcc4b4c4fc314bd56efb0e",
        "to": "0x3d85b13c76fc218830e3c0d2e147d1a6b8f3cdc8",
        "gas": "0xae3e",
        "value": "0x0",
        "input": "0x40c10f190000000000000000000000004c54f58cdbe8159efb71985e1e5289cbdeced2bd0000000000000000000000000000000000000000204fce5e3e25026110000000",
        "nonce": "0xfc",
        "chainId": "0x138b"
      },
      "additionalContracts": [],
      "isFixedGasLimit": false
    },
    {
      "hash": "0x260be5e6513a99cd3c30e73a294255812a9a29c87ec0376dcb3e915da2c4d2c3",
      "transactionType": "CALL",
      "contractName": "MockBENJI",
      "contractAddress": "0x56514dcf6e038ba1f77530cb9df01b2f9427ea11",
      "function": "mint(address,uint256)",
      "arguments": [
        "0x4c54F58cdbE8159efB71985e1E5289cBdEced2Bd",
        "10000000000000000000000000000"
      ],
      "transaction": {
        "from": "0x56a2950dde6b1040d1dcc4b4c4fc314bd56efb0e",
        "to": "0x56514dcf6e038ba1f77530cb9df01b2f9427ea11",
        "gas": "0xae3e",
        "value": "0x0",
        "input": "0x40c10f190000000000000000000000004c54f58cdbe8159efb71985e1e5289cbdeced2bd0000000000000000000000000000000000000000204fce5e3e25026110000000",
        "nonce": "0xfd",
        "chainId": "0x138b"
      },
      "additionalContracts": [],
      "isFixedGasLimit": false
    },
    {
      "hash": "0x8990a90714f734bbc89817f2d8e561840b3813b090af1b2bdd53b3aab01d3840",
      "transactionType": "CALL",
      "contractName": "MockBUIDL",
      "contractAddress": "0x92cf957248c8a695da67d91835bd02e6371e5bfd",
      "function": "mint(address,uint256)",
      "arguments": [
        "0x4c54F58cdbE8159efB71985e1E5289cBdEced2Bd",
        "10000000000000000000000000000"
      ],
      "transaction": {
        "from": "0x56a2950dde6b1040d1dcc4b4c4fc314bd56efb0e",
        "to": "0x92cf957248c8a695da67d91835bd02e6371e5bfd",
        "gas": "0xae3e",
        "value": "0x0",
        "input": "0x40c10f190000000000000000000000004c54f58cdbe8159efb71985e1e5289cbdeced2bd0000000000000000000000000000000000000000204fce5e3e25026110000000",
        "nonce": "0xfe",
        "chainId": "0x138b"
      },
      "additionalContracts": [],
      "isFixedGasLimit": false
    },
    {
      "hash": "0x648d68c181c7adce9182c2f55d30379654256b68899b43c802c548aebcbdc60f",
      "transactionType": "CALL",
      "contractName": null,
      "contractAddress": "0x4e3a788cd351f73d70c85f640758d90d7c573a4d",
      "function": "mint(address,uint256)",
      "arguments": [
        "0x4c54F58cdbE8159efB71985e1E5289cBdEced2Bd",
        "10000000000000000000000000000"
      ],
      "transaction": {
        "from": "0x56a2950dde6b1040d1dcc4b4c4fc314bd56efb0e",
        "to": "0x4e3a788cd351f73d70c85f640758d90d7c573a4d",
        "gas": "0xae3e",
        "value": "0x0",
        "input": "0x40c10f190000000000000000000000004c54f58cdbe8159efb71985e1e5289cbdeced2bd0000000000000000000000000000000000000000204fce5e3e25026110000000",
        "nonce": "0xff",
        "chainId": "0x138b"
      },
      "additionalContracts": [],
      "isFixedGasLimit": false
    },
    {
      "hash": "0xfb1da9bf2ca4d43477b733997198a91ac8d72cfa806507c4cbc140e0921c58f7",
      "transactionType": "CALL",
      "contractName": null,
      "contractAddress": "0xbc58f30dfaae433f5531a037365c06b98960e54a",
      "function": "mint(address,uint256)",
      "arguments": [
        "0x4c54F58cdbE8159efB71985e1E5289cBdEced2Bd",
        "10000000000000000000000000000"
      ],
      "transaction": {
        "from": "0x56a2950dde6b1040d1dcc4b4c4fc314bd56efb0e",
        "to": "0xbc58f30dfaae433f5531a037365c06b98960e54a",
        "gas": "0xae3e",
        "value": "0x0",
        "input": "0x40c10f190000000000000000000000004c54f58cdbe8159efb71985e1e5289cbdeced2bd0000000000000000000000000000000000000000204fce5e3e25026110000000",
        "nonce": "0x100",
        "chainId": "0x138b"
      },
      "additionalContracts": [],
      "isFixedGasLimit": false
    },
    {
      "hash": "0x3b439fc061e16c413bd2e45a28d7ed802c7196d728a4a2203b76f2b84ea2053e",
      "transactionType": "CALL",
      "contractName": null,
      "contractAddress": "0x1d7939e37e08802a6b86204f8e3c52ba4a6cbfba",
      "function": "mint(address,uint256)",
      "arguments": [
        "0x4c54F58cdbE8159efB71985e1E5289cBdEced2Bd",
        "10000000000000000000000000000"
      ],
      "transaction": {
        "from": "0x56a2950dde6b1040d1dcc4b4c4fc314bd56efb0e",
        "to": "0x1d7939e37e08802a6b86204f8e3c52ba4a6cbfba",
        "gas": "0xae3e",
        "value": "0x0",
        "input": "0x40c10f190000000000000000000000004c54f58cdbe8159efb71985e1e5289cbdeced2bd0000000000000000000000000000000000000000204fce5e3e25026110000000",
        "nonce": "0x101",
        "chainId": "0x138b"
      },
      "additionalContracts": [],
      "isFixedGasLimit": false
    },
    {
      "hash": "0x5ef74d0e4bd21ee3212fcec1e56e07137dd132d862ae20c72277486deec01343",
      "transactionType": "CALL",
      "contractName": "MockWTI",
      "contractAddress": "0x932e82632e80b06318ca969e33f99a54f1a04b10",
      "function": "mint(address,uint256)",
      "arguments": [
        "0x4c54F58cdbE8159efB71985e1E5289cBdEced2Bd",
        "10000000000000000000000000000"
      ],
      "transaction": {
        "from": "0x56a2950dde6b1040d1dcc4b4c4fc314bd56efb0e",
        "to": "0x932e82632e80b06318ca969e33f99a54f1a04b10",
        "gas": "0xae3e",
        "value": "0x0",
        "input": "0x40c10f190000000000000000000000004c54f58cdbe8159efb71985e1e5289cbdeced2bd0000000000000000000000000000000000000000204fce5e3e25026110000000",
        "nonce": "0x102",
        "chainId": "0x138b"
      },
      "additionalContracts": [],
      "isFixedGasLimit": false
    },
    {
      "hash": "0xc931e0fc97e51e00334d30b22b87deeef2ea24211245fc8af878633c737ebbc2",
      "transactionType": "CALL",
      "contractName": "MockXAG",
      "contractAddress": "0xf380e8b6803ad065ef0567dd20c894a55050737c",
      "function": "mint(address,uint256)",
      "arguments": [
        "0x4c54F58cdbE8159efB71985e1E5289cBdEced2Bd",
        "10000000000000000000000000000"
      ],
      "transaction": {
        "from": "0x56a2950dde6b1040d1dcc4b4c4fc314bd56efb0e",
        "to": "0xf380e8b6803ad065ef0567dd20c894a55050737c",
        "gas": "0xae3e",
        "value": "0x0",
        "input": "0x40c10f190000000000000000000000004c54f58cdbe8159efb71985e1e5289cbdeced2bd0000000000000000000000000000000000000000204fce5e3e25026110000000",
        "nonce": "0x103",
        "chainId": "0x138b"
      },
      "additionalContracts": [],
      "isFixedGasLimit": false
    },
    {
      "hash": "0x79afe4eadc8a4d44fc611e275d655da827be93b5b5e8d32ad5720d158e287a74",
      "transactionType": "CALL",
      "contractName": null,
      "contractAddress": "0x5b0770513b6cd76bf225462f3ec42783e8da69a1",
      "function": "mint(address,uint256)",
      "arguments": [
        "0x4c54F58cdbE8159efB71985e1E5289cBdEced2Bd",
        "10000000000000000000000000000"
      ],
      "transaction": {
        "from": "0x56a2950dde6b1040d1dcc4b4c4fc314bd56efb0e",
        "to": "0x5b0770513b6cd76bf225462f3ec42783e8da69a1",
        "gas": "0xae3e",
        "value": "0x0",
        "input": "0x40c10f190000000000000000000000004c54f58cdbe8159efb71985e1e5289cbdeced2bd0000000000000000000000000000000000000000204fce5e3e25026110000000",
        "nonce": "0x104",
        "chainId": "0x138b"
      },
      "additionalContracts": [],
      "isFixedGasLimit": false
    },
    {
      "hash": "0x676f8a7345a28724de6366549e49483d9c5e93e9cd2c98266e8b571a188356c0",
      "transactionType": "CALL",
      "contractName": null,
      "contractAddress": "0x0aa42416baccdb2fd4768b61111deb7f7d212f9b",
      "function": "mint(address,uint256)",
      "arguments": [
        "0x4c54F58cdbE8159efB71985e1E5289cBdEced2Bd",
        "10000000000000000000000000000"
      ],
      "transaction": {
        "from": "0x56a2950dde6b1040d1dcc4b4c4fc314bd56efb0e",
        "to": "0x0aa42416baccdb2fd4768b61111deb7f7d212f9b",
        "gas": "0xae3e",
        "value": "0x0",
        "input": "0x40c10f190000000000000000000000004c54f58cdbe8159efb71985e1e5289cbdeced2bd0000000000000000000000000000000000000000204fce5e3e25026110000000",
        "nonce": "0x105",
        "chainId": "0x138b"
      },
      "additionalContracts": [],
      "isFixedGasLimit": false
    },
    {
      "hash": "0xd5b68efe2dc964fa2da65ff5d78a3e4e0386b44d537c9e039acb5d6567b26159",
      "transactionType": "CALL",
      "contractName": "MockXCU",
      "contractAddress": "0xb3e1f06ac529aded2aa20aa38f4c0b4ad317e5f5",
      "function": "mint(address,uint256)",
      "arguments": [
        "0x4c54F58cdbE8159efB71985e1E5289cBdEced2Bd",
        "10000000000000000000000000000"
      ],
      "transaction": {
        "from": "0x56a2950dde6b1040d1dcc4b4c4fc314bd56efb0e",
        "to": "0xb3e1f06ac529aded2aa20aa38f4c0b4ad317e5f5",
        "gas": "0xae3e",
        "value": "0x0",
        "input": "0x40c10f190000000000000000000000004c54f58cdbe8159efb71985e1e5289cbdeced2bd0000000000000000000000000000000000000000204fce5e3e25026110000000",
        "nonce": "0x106",
        "chainId": "0x138b"
      },
      "additionalContracts": [],
      "isFixedGasLimit": false
    },
    {
      "hash": "0x8af033162c3f420efdb5c9b923a8bd2cfdc886fee72872f18b818b066cf6fefd",
      "transactionType": "CALL",
      "contractName": "MockXPT",
      "contractAddress": "0x62e518611d5a135a50c18e5fcf3a333d6d3a0506",
      "function": "mint(address,uint256)",
      "arguments": [
        "0x4c54F58cdbE8159efB71985e1E5289cBdEced2Bd",
        "10000000000000000000000000000"
      ],
      "transaction": {
        "from": "0x56a2950dde6b1040d1dcc4b4c4fc314bd56efb0e",
        "to": "0x62e518611d5a135a50c18e5fcf3a333d6d3a0506",
        "gas": "0xae3e",
        "value": "0x0",
        "input": "0x40c10f190000000000000000000000004c54f58cdbe8159efb71985e1e5289cbdeced2bd0000000000000000000000000000000000000000204fce5e3e25026110000000",
        "nonce": "0x107",
        "chainId": "0x138b"
      },
      "additionalContracts": [],
      "isFixedGasLimit": false
    },
    {
      "hash": "0x9d52f6b40703f29eb7d38a7e6da3bef8cf646e5e4e7b8cf9b234d03f2fe3453a",
      "transactionType": "CALL",
      "contractName": null,
      "contractAddress": "0xc43bd39225a38ce33751c55c74741834a8e82d16",
      "function": "mint(address,uint256)",
      "arguments": [
        "0x4c54F58cdbE8159efB71985e1E5289cBdEced2Bd",
        "10000000000000000000000000000"
      ],
      "transaction": {
        "from": "0x56a2950dde6b1040d1dcc4b4c4fc314bd56efb0e",
        "to": "0xc43bd39225a38ce33751c55c74741834a8e82d16",
        "gas": "0x10541",
        "value": "0x0",
        "input": "0x40c10f190000000000000000000000004c54f58cdbe8159efb71985e1e5289cbdeced2bd0000000000000000000000000000000000000000204fce5e3e25026110000000",
        "nonce": "0x108",
        "chainId": "0x138b"
      },
      "additionalContracts": [],
      "isFixedGasLimit": false
    },
    {
      "hash": "0xdac8eea9be3849d1ff932277f2160f6f44a0dc23644b8611e6474c0a1fa1b21c",
      "transactionType": "CALL",
      "contractName": null,
      "contractAddress": "0x6289654b4197744800d761a4641ba0c4a79f5ed1",
      "function": "mint(address,uint256)",
      "arguments": [
        "0x4c54F58cdbE8159efB71985e1E5289cBdEced2Bd",
        "10000000000000000000000000000"
      ],
      "transaction": {
        "from": "0x56a2950dde6b1040d1dcc4b4c4fc314bd56efb0e",
        "to": "0x6289654b4197744800d761a4641ba0c4a79f5ed1",
        "gas": "0x10541",
        "value": "0x0",
        "input": "0x40c10f190000000000000000000000004c54f58cdbe8159efb71985e1e5289cbdeced2bd0000000000000000000000000000000000000000204fce5e3e25026110000000",
        "nonce": "0x109",
        "chainId": "0x138b"
      },
      "additionalContracts": [],
      "isFixedGasLimit": false
    },
    {
      "hash": "0x420c54ba69f8c52a0c910b876f108c8a0db791f6937a8600e0583acec77c9ea6",
      "transactionType": "CALL",
      "contractName": null,
      "contractAddress": "0x7bb9e063dab0b53fb7b7b438548d5a8c62e3afb7",
      "function": "mint(address,uint256)",
      "arguments": [
        "0x4c54F58cdbE8159efB71985e1E5289cBdEced2Bd",
        "10000000000000000000000000000"
      ],
      "transaction": {
        "from": "0x56a2950dde6b1040d1dcc4b4c4fc314bd56efb0e",
        "to": "0x7bb9e063dab0b53fb7b7b438548d5a8c62e3afb7",
        "gas": "0x10541",
        "value": "0x0",
        "input": "0x40c10f190000000000000000000000004c54f58cdbe8159efb71985e1e5289cbdeced2bd0000000000000000000000000000000000000000204fce5e3e25026110000000",
        "nonce": "0x10a",
        "chainId": "0x138b"
      },
      "additionalContracts": [],
      "isFixedGasLimit": false
    },
    {
      "hash": "0xd3a9bf9377386064ef451ac4f56896e16cd4892635dc7818c28755d514fca943",
      "transactionType": "CALL",
      "contractName": "MockUSA500",
      "contractAddress": "0x6956dbbeb8eca1160ae21d2d703cdf6b86525825",
      "function": "mint(address,uint256)",
      "arguments": [
        "0x4c54F58cdbE8159efB71985e1E5289cBdEced2Bd",
        "10000000000000000000000000000"
      ],
      "transaction": {
        "from": "0x56a2950dde6b1040d1dcc4b4c4fc314bd56efb0e",
        "to": "0x6956dbbeb8eca1160ae21d2d703cdf6b86525825",
        "gas": "0x10541",
        "value": "0x0",
        "input": "0x40c10f190000000000000000000000004c54f58cdbe8159efb71985e1e5289cbdeced2bd0000000000000000000000000000000000000000204fce5e3e25026110000000",
        "nonce": "0x10b",
        "chainId": "0x138b"
      },
      "additionalContracts": [],
      "isFixedGasLimit": false
    },
    {
      "hash": "0xd69da3469db3f7bd13e67978050629bb0a70027617da605a2118626334771d7d",
      "transactionType": "CALL",
      "contractName": "MockAAPL",
      "contractAddress": "0xc2226548fb4332dce1e31dc317bcf61effd51375",
      "function": "mint(address,uint256)",
      "arguments": [
        "0x4c54F58cdbE8159efB71985e1E5289cBdEced2Bd",
        "10000000000000000000000000000"
      ],
      "transaction": {
        "from": "0x56a2950dde6b1040d1dcc4b4c4fc314bd56efb0e",
        "to": "0xc2226548fb4332dce1e31dc317bcf61effd51375",
        "gas": "0x10541",
        "value": "0x0",
        "input": "0x40c10f190000000000000000000000004c54f58cdbe8159efb71985e1e5289cbdeced2bd0000000000000000000000000000000000000000204fce5e3e25026110000000",
        "nonce": "0x10c",
        "chainId": "0x138b"
      },
      "additionalContracts": [],
      "isFixedGasLimit": false
    },
    {
      "hash": "0xc7298c4d33df19f841534eaa61a2af6db9d7e4dfe6f7402d06e4f8f9409383a2",
      "transactionType": "CALL",
      "contractName": "MockAMZN",
      "contractAddress": "0x5dbc3c81dbbb39dd865ec27c66abb48150325df1",
      "function": "mint(address,uint256)",
      "arguments": [
        "0x4c54F58cdbE8159efB71985e1E5289cBdEced2Bd",
        "10000000000000000000000000000"
      ],
      "transaction": {
        "from": "0x56a2950dde6b1040d1dcc4b4c4fc314bd56efb0e",
        "to": "0x5dbc3c81dbbb39dd865ec27c66abb48150325df1",
        "gas": "0x10541",
        "value": "0x0",
        "input": "0x40c10f190000000000000000000000004c54f58cdbe8159efb71985e1e5289cbdeced2bd0000000000000000000000000000000000000000204fce5e3e25026110000000",
        "nonce": "0x10d",
        "chainId": "0x138b"
      },
      "additionalContracts": [],
      "isFixedGasLimit": false
    },
    {
      "hash": "0x7b42c95c7e6d86ab952dd8113e48cd4d3370b5ee4ef39c8c983947dd4c854e5a",
      "transactionType": "CALL",
      "contractName": "MockGOOGL",
      "contractAddress": "0xdd63da0a5ec0a76029dd49c32de7de73d8918e96",
      "function": "mint(address,uint256)",
      "arguments": [
        "0x4c54F58cdbE8159efB71985e1E5289cBdEced2Bd",
        "10000000000000000000000000000"
      ],
      "transaction": {
        "from": "0x56a2950dde6b1040d1dcc4b4c4fc314bd56efb0e",
        "to": "0xdd63da0a5ec0a76029dd49c32de7de73d8918e96",
        "gas": "0x10541",
        "value": "0x0",
        "input": "0x40c10f190000000000000000000000004c54f58cdbe8159efb71985e1e5289cbdeced2bd0000000000000000000000000000000000000000204fce5e3e25026110000000",
        "nonce": "0x10e",
        "chainId": "0x138b"
      },
      "additionalContracts": [],
      "isFixedGasLimit": false
    },
    {
      "hash": "0xe127da59c9f01129a2e1d6d6b66255f9911c09eede004241d43712384f4037af",
      "transactionType": "CALL",
      "contractName": null,
      "contractAddress": "0x028ffc7b83ac3ec143bed5a8f14c7e49a356c793",
      "function": "mint(address,uint256)",
      "arguments": [
        "0x4c54F58cdbE8159efB71985e1E5289cBdEced2Bd",
        "10000000000000000000000000000"
      ],
      "transaction": {
        "from": "0x56a2950dde6b1040d1dcc4b4c4fc314bd56efb0e",
        "to": "0x028ffc7b83ac3ec143bed5a8f14c7e49a356c793",
        "gas": "0x10541",
        "value": "0x0",
        "input": "0x40c10f190000000000000000000000004c54f58cdbe8159efb71985e1e5289cbdeced2bd0000000000000000000000000000000000000000204fce5e3e25026110000000",
        "nonce": "0x10f",
        "chainId": "0x138b"
      },
      "additionalContracts": [],
      "isFixedGasLimit": false
    },
    {
      "hash": "0x29dda13b9faa9d5c825cde8304fcc936d1ff5d8d1b49f3be5b7a391859e9a24c",
      "transactionType": "CALL",
      "contractName": null,
      "contractAddress": "0x61d3e9944feff4a17854e408c5ac766a1d9adb63",
      "function": "mint(address,uint256)",
      "arguments": [
        "0x4c54F58cdbE8159efB71985e1E5289cBdEced2Bd",
        "10000000000000000000000000000"
      ],
      "transaction": {
        "from": "0x56a2950dde6b1040d1dcc4b4c4fc314bd56efb0e",
        "to": "0x61d3e9944feff4a17854e408c5ac766a1d9adb63",
        "gas": "0x10541",
        "value": "0x0",
        "input": "0x40c10f190000000000000000000000004c54f58cdbe8159efb71985e1e5289cbdeced2bd0000000000000000000000000000000000000000204fce5e3e25026110000000",
        "nonce": "0x110",
        "chainId": "0x138b"
      },
      "additionalContracts": [],
      "isFixedGasLimit": false
    },
    {
      "hash": "0x34745d5fc40e0b6f246142636d31df6ea5e3d590d2ba0a569e2004c1add0302b",
      "transactionType": "CALL",
      "contractName": "MockNVDA",
      "contractAddress": "0x6ceaf0d037e628d8c08e1462f628bde4da633813",
      "function": "mint(address,uint256)",
      "arguments": [
        "0x4c54F58cdbE8159efB71985e1E5289cBdEced2Bd",
        "10000000000000000000000000000"
      ],
      "transaction": {
        "from": "0x56a2950dde6b1040d1dcc4b4c4fc314bd56efb0e",
        "to": "0x6ceaf0d037e628d8c08e1462f628bde4da633813",
        "gas": "0x10541",
        "value": "0x0",
        "input": "0x40c10f190000000000000000000000004c54f58cdbe8159efb71985e1e5289cbdeced2bd0000000000000000000000000000000000000000204fce5e3e25026110000000",
        "nonce": "0x111",
        "chainId": "0x138b"
      },
      "additionalContracts": [],
      "isFixedGasLimit": false
    },
    {
      "hash": "0x0e0b412b49f9dca330ab73116b69f72c0ba654960c9f5cf80785b5952b0f90f9",
      "transactionType": "CALL",
      "contractName": "MockPLTR",
      "contractAddress": "0x56979c925faa2b84637f2991c31fd6b1b33624b0",
      "function": "mint(address,uint256)",
      "arguments": [
        "0x4c54F58cdbE8159efB71985e1E5289cBdEced2Bd",
        "10000000000000000000000000000"
      ],
      "transaction": {
        "from": "0x56a2950dde6b1040d1dcc4b4c4fc314bd56efb0e",
        "to": "0x56979c925faa2b84637f2991c31fd6b1b33624b0",
        "gas": "0x10541",
        "value": "0x0",
        "input": "0x40c10f190000000000000000000000004c54f58cdbe8159efb71985e1e5289cbdeced2bd0000000000000000000000000000000000000000204fce5e3e25026110000000",
        "nonce": "0x112",
        "chainId": "0x138b"
      },
      "additionalContracts": [],
      "isFixedGasLimit": false
    },
    {
      "hash": "0xfdf487d93e2e6190544d13e9accee1e1562703b2147cc1a4c494b7f911702e81",
      "transactionType": "CALL",
      "contractName": "MockTSLA",
      "contractAddress": "0x9e2dbb4930607e58401c3f55cbe2e0819a8a0523",
      "function": "mint(address,uint256)",
      "arguments": [
        "0x4c54F58cdbE8159efB71985e1E5289cBdEced2Bd",
        "10000000000000000000000000000"
      ],
      "transaction": {
        "from": "0x56a2950dde6b1040d1dcc4b4c4fc314bd56efb0e",
        "to": "0x9e2dbb4930607e58401c3f55cbe2e0819a8a0523",
        "gas": "0x10541",
        "value": "0x0",
        "input": "0x40c10f190000000000000000000000004c54f58cdbe8159efb71985e1e5289cbdeced2bd0000000000000000000000000000000000000000204fce5e3e25026110000000",
        "nonce": "0x113",
        "chainId": "0x138b"
      },
      "additionalContracts": [],
      "isFixedGasLimit": false
    },
    {
      "hash": "0x101d5c8f7c5540937db625924217479f3261d28eda616462494098564455e694",
      "transactionType": "CALL",
      "contractName": "MockBRL",
      "contractAddress": "0xd568d045d34dca3f4f24be8099a8b90779047b6a",
      "function": "mint(address,uint256)",
      "arguments": [
        "0x4c54F58cdbE8159efB71985e1E5289cBdEced2Bd",
        "10000000000000000000000000000"
      ],
      "transaction": {
        "from": "0x56a2950dde6b1040d1dcc4b4c4fc314bd56efb0e",
        "to": "0xd568d045d34dca3f4f24be8099a8b90779047b6a",
        "gas": "0x10541",
        "value": "0x0",
        "input": "0x40c10f190000000000000000000000004c54f58cdbe8159efb71985e1e5289cbdeced2bd0000000000000000000000000000000000000000204fce5e3e25026110000000",
        "nonce": "0x114",
        "chainId": "0x138b"
      },
      "additionalContracts": [],
      "isFixedGasLimit": false
    },
    {
      "hash": "0xb639bbaacb135baebfb231d97ccebac2baf9087357d34d71b9a408d1af33ce86",
      "transactionType": "CALL",
      "contractName": "MockEUR",
      "contractAddress": "0x781dfd2a2e6b2fb23e10a4b36691520e4bc36e2a",
      "function": "mint(address,uint256)",
      "arguments": [
        "0x4c54F58cdbE8159efB71985e1E5289cBdEced2Bd",
        "10000000000000000000000000000"
      ],
      "transaction": {
        "from": "0x56a2950dde6b1040d1dcc4b4c4fc314bd56efb0e",
        "to": "0x781dfd2a2e6b2fb23e10a4b36691520e4bc36e2a",
        "gas": "0x10541",
        "value": "0x0",
        "input": "0x40c10f190000000000000000000000004c54f58cdbe8159efb71985e1e5289cbdeced2bd0000000000000000000000000000000000000000204fce5e3e25026110000000",
        "nonce": "0x115",
        "chainId": "0x138b"
      },
      "additionalContracts": [],
      "isFixedGasLimit": false
    },
    {
      "hash": "0xe95f15a76e47373ac9177a050ff1440af741dffb805a7d0a875b49e9e5cb6ec7",
      "transactionType": "CALL",
      "contractName": "MockGBP",
      "contractAddress": "0x2cbc4431d40121faa5b5a6d15240285761128f5a",
      "function": "mint(address,uint256)",
      "arguments": [
        "0x4c54F58cdbE8159efB71985e1E5289cBdEced2Bd",
        "10000000000000000000000000000"
      ],
      "transaction": {
        "from": "0x56a2950dde6b1040d1dcc4b4c4fc314bd56efb0e",
        "to": "0x2cbc4431d40121faa5b5a6d15240285761128f5a",
        "gas": "0x10541",
        "value": "0x0",
        "input": "0x40c10f190000000000000000000000004c54f58cdbe8159efb71985e1e5289cbdeced2bd0000000000000000000000000000000000000000204fce5e3e25026110000000",
        "nonce": "0x116",
        "chainId": "0x138b"
      },
      "additionalContracts": [],
      "isFixedGasLimit": false
    },
    {
      "hash": "0x33222388679dfdf790dc6caaf9aa60b7073f1864b053f3f55706694df9061744",
      "transactionType": "CALL",
      "contractName": "MockIDR",
      "contractAddress": "0x37e11a01f58f973098bef434a34e7fc3be4e3041",
      "function": "mint(address,uint256)",
      "arguments": [
        "0x4c54F58cdbE8159efB71985e1E5289cBdEced2Bd",
        "10000000000000000000000000000"
      ],
      "transaction": {
        "from": "0x56a2950dde6b1040d1dcc4b4c4fc314bd56efb0e",
        "to": "0x37e11a01f58f973098bef434a34e7fc3be4e3041",
        "gas": "0x10541",
        "value": "0x0",
        "input": "0x40c10f190000000000000000000000004c54f58cdbe8159efb71985e1e5289cbdeced2bd0000000000000000000000000000000000000000204fce5e3e25026110000000",
        "nonce": "0x117",
        "chainId": "0x138b"
      },
      "additionalContracts": [],
      "isFixedGasLimit": false
    },
    {
      "hash": "0x5087569ec2c2bc932b19504b71608e0795d34dbada0804f2414529fefae57e43",
      "transactionType": "CALL",
      "contractName": "MockJPY",
      "contractAddress": "0x718c268093b11bea78a9b84861b2e4e96e86c33b",
      "function": "mint(address,uint256)",
      "arguments": [
        "0x4c54F58cdbE8159efB71985e1E5289cBdEced2Bd",
        "10000000000000000000000000000"
      ],
      "transaction": {
        "from": "0x56a2950dde6b1040d1dcc4b4c4fc314bd56efb0e",
        "to": "0x718c268093b11bea78a9b84861b2e4e96e86c33b",
        "gas": "0x10541",
        "value": "0x0",
        "input": "0x40c10f190000000000000000000000004c54f58cdbe8159efb71985e1e5289cbdeced2bd0000000000000000000000000000000000000000204fce5e3e25026110000000",
        "nonce": "0x118",
        "chainId": "0x138b"
      },
      "additionalContracts": [],
      "isFixedGasLimit": false
    },
    {
      "hash": "0xf193c19ac24b0bfbb731861ef62346face8b07aa2d3eda870586aadf3918131e",
      "transactionType": "CALL",
      "contractName": "MockKRW",
      "contractAddress": "0x42feae1f60b23feb1f5c501977af161116fe3e99",
      "function": "mint(address,uint256)",
      "arguments": [
        "0x4c54F58cdbE8159efB71985e1E5289cBdEced2Bd",
        "10000000000000000000000000000"
      ],
      "transaction": {
        "from": "0x56a2950dde6b1040d1dcc4b4c4fc314bd56efb0e",
        "to": "0x42feae1f60b23feb1f5c501977af161116fe3e99",
        "gas": "0x10541",
        "value": "0x0",
        "input": "0x40c10f190000000000000000000000004c54f58cdbe8159efb71985e1e5289cbdeced2bd0000000000000000000000000000000000000000204fce5e3e25026110000000",
        "nonce": "0x119",
        "chainId": "0x138b"
      },
      "additionalContracts": [],
      "isFixedGasLimit": false
    },
    {
      "hash": "0x7c8690649f4ae7cd570651c9075ea3f621d41f7418ca4f701b10e2c0da6fd8c4",
      "transactionType": "CALL",
      "contractName": "MockSGD",
      "contractAddress": "0x039263c8b98f62f7e2debcd277ef3f1f2baf9dce",
      "function": "mint(address,uint256)",
      "arguments": [
        "0x4c54F58cdbE8159efB71985e1E5289cBdEced2Bd",
        "10000000000000000000000000000"
      ],
      "transaction": {
        "from": "0x56a2950dde6b1040d1dcc4b4c4fc314bd56efb0e",
        "to": "0x039263c8b98f62f7e2debcd277ef3f1f2baf9dce",
        "gas": "0x10541",
        "value": "0x0",
        "input": "0x40c10f190000000000000000000000004c54f58cdbe8159efb71985e1e5289cbdeced2bd0000000000000000000000000000000000000000204fce5e3e25026110000000",
        "nonce": "0x11a",
        "chainId": "0x138b"
      },
      "additionalContracts": [],
      "isFixedGasLimit": false
    },
    {
      "hash": "0x915b18bf9057549b17ea8712afcbb46808e822d6d74a1274e02b996e7344ffa3",
      "transactionType": "CALL",
      "contractName": "MockTRY",
      "contractAddress": "0x58061565f6f2b5c8322ee3fa2dcd6497d72e5b20",
      "function": "mint(address,uint256)",
      "arguments": [
        "0x4c54F58cdbE8159efB71985e1E5289cBdEced2Bd",
        "10000000000000000000000000000"
      ],
      "transaction": {
        "from": "0x56a2950dde6b1040d1dcc4b4c4fc314bd56efb0e",
        "to": "0x58061565f6f2b5c8322ee3fa2dcd6497d72e5b20",
        "gas": "0x10541",
        "value": "0x0",
        "input": "0x40c10f190000000000000000000000004c54f58cdbe8159efb71985e1e5289cbdeced2bd0000000000000000000000000000000000000000204fce5e3e25026110000000",
        "nonce": "0x11b",
        "chainId": "0x138b"
      },
      "additionalContracts": [],
      "isFixedGasLimit": false
    }
  ],
  "receipts": [
    {
      "status": "0x1",
      "cumulativeGasUsed": "0x1c492",
      "logs": [
        {
          "address": "0x29faf6cafa4bea1dc7c232f0a1818d4da6b724dd",
          "topics": [
            "0xddf252ad1be2c89b69c2b068fc378daa952ba7f163c4a11628f55a4df523b3ef",
            "0x0000000000000000000000000000000000000000000000000000000000000000",
            "0x0000000000000000000000004c54f58cdbe8159efb71985e1e5289cbdeced2bd"
          ],
          "data": "0x000000000000000000000000000000000000000000000000002386f26fc10000",
          "blockHash": "0x4152305c4508a69bfdfff680922fd173228272286ff08becbb530c1ee742f38f",
          "blockNumber": "0x25c327c",
          "blockTimestamp": "0x6a23e7d9",
          "transactionHash": "0xeac18f7bfbfe56c09368a1e5d03a32e086a4d1c7a27878286065b0b0e598ec0a",
          "transactionIndex": "0x2",
          "logIndex": "0x1",
          "removed": false
        }
      ],
      "logsBloom": "0x00000000000000000000000000000000000000000000000000000000000000000000000100000000000000000000000000000000000000040000000000000000000000000000000000000008000000000000000000000000000000000000000000000000020000000000000040000800000000000000000000000010000000000000000000000000000000000000000000000000000000000000000400000000000000000000000000000000000000000000000000000000000000000000000000000002000000000000000000000000000000000000000000000000000020000000000000000000000008000000000000000000000000000000000000400000",
      "type": "0x2",
      "transactionHash": "0xeac18f7bfbfe56c09368a1e5d03a32e086a4d1c7a27878286065b0b0e598ec0a",
      "transactionIndex": "0x2",
      "blockHash": "0x4152305c4508a69bfdfff680922fd173228272286ff08becbb530c1ee742f38f",
      "blockNumber": "0x25c327c",
      "gasUsed": "0x8473",
      "effectiveGasPrice": "0xba43b7401",
      "blobGasUsed": "0x9c40",
      "from": "0x56a2950dde6b1040d1dcc4b4c4fc314bd56efb0e",
      "to": "0x29faf6cafa4bea1dc7c232f0a1818d4da6b724dd",
      "contractAddress": null,
      "daFootprintGasScalar": "0x190",
      "l1BaseFeeScalar": "0x2943b",
      "l1BlobBaseFee": "0x38cfa937",
      "l1BlobBaseFeeScalar": "0x45567c",
      "l1Fee": "0x30d10beb84c34e",
      "l1GasPrice": "0x37d9b8723",
      "l1GasUsed": "0x640",
      "operatorFeeConstant": "0x0",
      "operatorFeeScalar": "0x5f5e100",
      "tokenRatio": "0xbf6"
    },
    {
      "status": "0x1",
      "cumulativeGasUsed": "0x1397e",
      "logs": [
        {
          "address": "0xada0466303441102cb16f8ec1594c744d603f746",
          "topics": [
            "0xddf252ad1be2c89b69c2b068fc378daa952ba7f163c4a11628f55a4df523b3ef",
            "0x0000000000000000000000000000000000000000000000000000000000000000",
            "0x0000000000000000000000004c54f58cdbe8159efb71985e1e5289cbdeced2bd"
          ],
          "data": "0x0000000000000000000000000000000000000000204fce5e3e25026110000000",
          "blockHash": "0x83a2657a50a98699b58332575e891901f234f8c526325d4ca1064926dff4196b",
          "blockNumber": "0x25c327e",
          "blockTimestamp": "0x6a23e7dd",
          "transactionHash": "0xb749174fb647199a56eb4b2564b845cb9db76deee7e08d8390aa18bea2f9f11e",
          "transactionIndex": "0x1",
          "logIndex": "0x0",
          "removed": false
        }
      ],
      "logsBloom": "0x00000000000000000000000000000000000000000000000000000000000000000000000100000000000000000000000000000000000000000000000000000000000000000000000000000008000000000000000000000000000000000000000000000000020000000000000000000800200000000000000000000010000000000000000000000000000000000000000000000000000000000000000400080000000000000000000000000000000000000000000000000000000000000000000000000002000000000000000000000000000000000000000000000000000020000000000000000000080008000000000000000000000000000000000000000000",
      "type": "0x2",
      "transactionHash": "0xb749174fb647199a56eb4b2564b845cb9db76deee7e08d8390aa18bea2f9f11e",
      "transactionIndex": "0x1",
      "blockHash": "0x83a2657a50a98699b58332575e891901f234f8c526325d4ca1064926dff4196b",
      "blockNumber": "0x25c327e",
      "gasUsed": "0x84a3",
      "effectiveGasPrice": "0xba43b7401",
      "blobGasUsed": "0x9c40",
      "from": "0x56a2950dde6b1040d1dcc4b4c4fc314bd56efb0e",
      "to": "0xada0466303441102cb16f8ec1594c744d603f746",
      "contractAddress": null,
      "daFootprintGasScalar": "0x190",
      "l1BaseFeeScalar": "0x2943b",
      "l1BlobBaseFee": "0x38cfa937",
      "l1BlobBaseFeeScalar": "0x45567c",
      "l1Fee": "0x30d10beb84c34e",
      "l1GasPrice": "0x37d9b8723",
      "l1GasUsed": "0x640",
      "operatorFeeConstant": "0x0",
      "operatorFeeScalar": "0x5f5e100",
      "tokenRatio": "0xbf6"
    },
    {
      "status": "0x1",
      "cumulativeGasUsed": "0x1397e",
      "logs": [
        {
          "address": "0x0d7766158f14ad7bb82d9fd8a47734e801e3f5b8",
          "topics": [
            "0xddf252ad1be2c89b69c2b068fc378daa952ba7f163c4a11628f55a4df523b3ef",
            "0x0000000000000000000000000000000000000000000000000000000000000000",
            "0x0000000000000000000000004c54f58cdbe8159efb71985e1e5289cbdeced2bd"
          ],
          "data": "0x0000000000000000000000000000000000000000204fce5e3e25026110000000",
          "blockHash": "0x2b4d2772da27e0ebc259d0290ba545dbd309ed3e3fb4827fdbd92340fd15f16b",
          "blockNumber": "0x25c3280",
          "blockTimestamp": "0x6a23e7e1",
          "transactionHash": "0x9c3dc922ba108b08a5ea04900dcc6d4550c647acd0de861294aee8b0d9f5acc9",
          "transactionIndex": "0x1",
          "logIndex": "0x0",
          "removed": false
        }
      ],
      "logsBloom": "0x00000000000000000000000000000000000000000000000000000000000000000000000100000000000000000000000000000000000000000000000000000000040000000000000000000008000000000000000000000000000000000000000000000000020000000000000000000800000000000000000000000010000000000000000000000000000000000000000000000000000000000000000400000000000000000000000000000000000000000080000000000000000000000000000000000002000000000000000000000000000000000000000000080000000020000000000000000000000008000000000000000000000000000000000000000000",
      "type": "0x2",
      "transactionHash": "0x9c3dc922ba108b08a5ea04900dcc6d4550c647acd0de861294aee8b0d9f5acc9",
      "transactionIndex": "0x1",
      "blockHash": "0x2b4d2772da27e0ebc259d0290ba545dbd309ed3e3fb4827fdbd92340fd15f16b",
      "blockNumber": "0x25c3280",
      "gasUsed": "0x84a3",
      "effectiveGasPrice": "0xba43b7401",
      "blobGasUsed": "0x9c40",
      "from": "0x56a2950dde6b1040d1dcc4b4c4fc314bd56efb0e",
      "to": "0x0d7766158f14ad7bb82d9fd8a47734e801e3f5b8",
      "contractAddress": null,
      "daFootprintGasScalar": "0x190",
      "l1BaseFeeScalar": "0x2943b",
      "l1BlobBaseFee": "0x38cfa937",
      "l1BlobBaseFeeScalar": "0x45567c",
      "l1Fee": "0x30d10beb84c34e",
      "l1GasPrice": "0x37d9b8723",
      "l1GasUsed": "0x640",
      "operatorFeeConstant": "0x0",
      "operatorFeeScalar": "0x5f5e100",
      "tokenRatio": "0xbf6"
    },
    {
      "status": "0x1",
      "cumulativeGasUsed": "0x1c4c2",
      "logs": [
        {
          "address": "0xd89395df78aafdf86b330899d1c6189211e88750",
          "topics": [
            "0xddf252ad1be2c89b69c2b068fc378daa952ba7f163c4a11628f55a4df523b3ef",
            "0x0000000000000000000000000000000000000000000000000000000000000000",
            "0x0000000000000000000000004c54f58cdbe8159efb71985e1e5289cbdeced2bd"
          ],
          "data": "0x0000000000000000000000000000000000000000204fce5e3e25026110000000",
          "blockHash": "0xc88f9401faf508f3e82ecc9dbba5076aa6dbfd599b8eee3d23d55aefd82d82be",
          "blockNumber": "0x25c3282",
          "blockTimestamp": "0x6a23e7e5",
          "transactionHash": "0x7a24fb95c53a5d023c54a27357c48cef4b610e971cd367bf047914add9950291",
          "transactionIndex": "0x2",
          "logIndex": "0x1",
          "removed": false
        }
      ],
      "logsBloom": "0x00000000000000000000000000000000000000000000000000000000000000000000000100000000000000000000000000000000000000800000000000000000000000000000000000000008000000000010000000000000000000000000000000000000020000000000000000000800000000000000000000000010000000000000000000000000000000000000000000000000000000000000000400000000000000000000000000000000000000000000000000000000000000002000000000000002000000000000000000000000000000000000000000000000000020000000000000000000000008000000000000000000000000000000000000000000",
      "type": "0x2",
      "transactionHash": "0x7a24fb95c53a5d023c54a27357c48cef4b610e971cd367bf047914add9950291",
      "transactionIndex": "0x2",
      "blockHash": "0xc88f9401faf508f3e82ecc9dbba5076aa6dbfd599b8eee3d23d55aefd82d82be",
      "blockNumber": "0x25c3282",
      "gasUsed": "0x84a3",
      "effectiveGasPrice": "0xba43b7401",
      "blobGasUsed": "0x9c40",
      "from": "0x56a2950dde6b1040d1dcc4b4c4fc314bd56efb0e",
      "to": "0xd89395df78aafdf86b330899d1c6189211e88750",
      "contractAddress": null,
      "daFootprintGasScalar": "0x190",
      "l1BaseFeeScalar": "0x2943b",
      "l1BlobBaseFee": "0x323764d4",
      "l1BlobBaseFeeScalar": "0x45567c",
      "l1Fee": "0x3062d5bf1c35cc",
      "l1GasPrice": "0x37ff762ab",
      "l1GasUsed": "0x640",
      "operatorFeeConstant": "0x0",
      "operatorFeeScalar": "0x5f5e100",
      "tokenRatio": "0xbf6"
    },
    {
      "status": "0x1",
      "cumulativeGasUsed": "0x1397e",
      "logs": [
        {
          "address": "0xb6f57152bc6ac9cdc7862f8dae0aac17f6f5d8ff",
          "topics": [
            "0xddf252ad1be2c89b69c2b068fc378daa952ba7f163c4a11628f55a4df523b3ef",
            "0x0000000000000000000000000000000000000000000000000000000000000000",
            "0x0000000000000000000000004c54f58cdbe8159efb71985e1e5289cbdeced2bd"
          ],
          "data": "0x0000000000000000000000000000000000000000204fce5e3e25026110000000",
          "blockHash": "0x26eb23f30abe8c800fceee0bcbe13ab09065c1209a557f9c209a7421ce69ae9c",
          "blockNumber": "0x25c3284",
          "blockTimestamp": "0x6a23e7e9",
          "transactionHash": "0x3fd401e5bb36fc18b993b2fe3fb75391d64431a78ebd7f6b98017dc9256e314f",
          "transactionIndex": "0x1",
          "logIndex": "0x0",
          "removed": false
        }
      ],
      "logsBloom": "0x00000000000000000000000000000000000000000000000000000000000000000000000100000000000000000000000000000000000000000000000000000200000000000000400000000008000000000000000000000000000000000000000000000000020000000000000000000800000000000000000000000010000000000000000000000000000000000000000004000000000000000000000400000000000000000000000000000000000000000000000000000000000000000000000000000002000000000000000000000000000000000000000000000000000020000000000000000000000008000000000000000000000000000000000000000000",
      "type": "0x2",
      "transactionHash": "0x3fd401e5bb36fc18b993b2fe3fb75391d64431a78ebd7f6b98017dc9256e314f",
      "transactionIndex": "0x1",
      "blockHash": "0x26eb23f30abe8c800fceee0bcbe13ab09065c1209a557f9c209a7421ce69ae9c",
      "blockNumber": "0x25c3284",
      "gasUsed": "0x84a3",
      "effectiveGasPrice": "0xba43b7401",
      "blobGasUsed": "0x9c40",
      "from": "0x56a2950dde6b1040d1dcc4b4c4fc314bd56efb0e",
      "to": "0xb6f57152bc6ac9cdc7862f8dae0aac17f6f5d8ff",
      "contractAddress": null,
      "daFootprintGasScalar": "0x190",
      "l1BaseFeeScalar": "0x2943b",
      "l1BlobBaseFee": "0x323764d4",
      "l1BlobBaseFeeScalar": "0x45567c",
      "l1Fee": "0x3062d5bf1c35cc",
      "l1GasPrice": "0x37ff762ab",
      "l1GasUsed": "0x640",
      "operatorFeeConstant": "0x0",
      "operatorFeeScalar": "0x5f5e100",
      "tokenRatio": "0xbf6"
    },
    {
      "status": "0x1",
      "cumulativeGasUsed": "0x16532",
      "logs": [
        {
          "address": "0xf76da0ec605cfac82f1da86080da21316c07d130",
          "topics": [
            "0xddf252ad1be2c89b69c2b068fc378daa952ba7f163c4a11628f55a4df523b3ef",
            "0x0000000000000000000000000000000000000000000000000000000000000000",
            "0x0000000000000000000000004c54f58cdbe8159efb71985e1e5289cbdeced2bd"
          ],
          "data": "0x0000000000000000000000000000000000000000204fce5e3e25026110000000",
          "blockHash": "0x5c4485283e25783fb831846df8b201855bf75b7d3a9398451b91525317338260",
          "blockNumber": "0x25c3287",
          "blockTimestamp": "0x6a23e7ef",
          "transactionHash": "0xe486dc14d76f2e342d29b3a8f6358d67f1ad0042711d6977e4c174fc33005bb4",
          "transactionIndex": "0x1",
          "logIndex": "0x0",
          "removed": false
        }
      ],
      "logsBloom": "0x00000000000000200000000000000000000000000000000000000000000000000000000100000000000000000000000000000000000000000000000000000000000000000000000000000008000000000000000000000000000000000000000000000000020000000000000000000800000000000000000000000010000000000000000000000000000000000000000000000000000000000000000400000000000000000000000000000000000000000000000000000000000000000000000000000002000400000000000000000000000000000000000000000000000020000000000000000000000008000100000000000000000000000000000000000000",
      "type": "0x2",
      "transactionHash": "0xe486dc14d76f2e342d29b3a8f6358d67f1ad0042711d6977e4c174fc33005bb4",
      "transactionIndex": "0x1",
      "blockHash": "0x5c4485283e25783fb831846df8b201855bf75b7d3a9398451b91525317338260",
      "blockNumber": "0x25c3287",
      "gasUsed": "0x84a3",
      "effectiveGasPrice": "0xba43b7401",
      "blobGasUsed": "0x9c40",
      "from": "0x56a2950dde6b1040d1dcc4b4c4fc314bd56efb0e",
      "to": "0xf76da0ec605cfac82f1da86080da21316c07d130",
      "contractAddress": null,
      "daFootprintGasScalar": "0x190",
      "l1BaseFeeScalar": "0x2943b",
      "l1BlobBaseFee": "0x32c86902",
      "l1BlobBaseFeeScalar": "0x45567c",
      "l1Fee": "0x2ffc884aadf782",
      "l1GasPrice": "0x376eaf74a",
      "l1GasUsed": "0x640",
      "operatorFeeConstant": "0x0",
      "operatorFeeScalar": "0x5f5e100",
      "tokenRatio": "0xbf6"
    },
    {
      "status": "0x1",
      "cumulativeGasUsed": "0x139b2",
      "logs": [
        {
          "address": "0x61a4ac2678048ed431e362c14d2ec7a0b3191966",
          "topics": [
            "0xddf252ad1be2c89b69c2b068fc378daa952ba7f163c4a11628f55a4df523b3ef",
            "0x0000000000000000000000000000000000000000000000000000000000000000",
            "0x0000000000000000000000004c54f58cdbe8159efb71985e1e5289cbdeced2bd"
          ],
          "data": "0x0000000000000000000000000000000000000000204fce5e3e25026110000000",
          "blockHash": "0x5ada5404fade4a131c3c72d459acb46a5901516a18b8e5c524b49a4d749de16e",
          "blockNumber": "0x25c3289",
          "blockTimestamp": "0x6a23e7f3",
          "transactionHash": "0x30fe62718a1ca47f5ff0dbd9892ee3f427183ba63e89d445aae845057f509345",
          "transactionIndex": "0x1",
          "logIndex": "0x0",
          "removed": false
        }
      ],
      "logsBloom": "0x00000000000000000000000000000000000000000000000000000000000000000000000100000000000000000000000000000000000000002000000000000000000000000000000000000008000000000000000000000000000000000000000000000000020000000000000000000800000000000000000000000010000000000000000000000000000000000000000000000000000000000000000400000000000000000000000000000000000000000000000000000000000000000000000000000002000000000000000000000000001000000000000000000000000020000000000000000000000008000000000000000000020000000000000000000000",
      "type": "0x2",
      "transactionHash": "0x30fe62718a1ca47f5ff0dbd9892ee3f427183ba63e89d445aae845057f509345",
      "transactionIndex": "0x1",
      "blockHash": "0x5ada5404fade4a131c3c72d459acb46a5901516a18b8e5c524b49a4d749de16e",
      "blockNumber": "0x25c3289",
      "gasUsed": "0x84d7",
      "effectiveGasPrice": "0xba43b7401",
      "blobGasUsed": "0x9c40",
      "from": "0x56a2950dde6b1040d1dcc4b4c4fc314bd56efb0e",
      "to": "0x61a4ac2678048ed431e362c14d2ec7a0b3191966",
      "contractAddress": null,
      "daFootprintGasScalar": "0x190",
      "l1BaseFeeScalar": "0x2943b",
      "l1BlobBaseFee": "0x32c86902",
      "l1BlobBaseFeeScalar": "0x45567c",
      "l1Fee": "0x2ffc884aadf782",
      "l1GasPrice": "0x376eaf74a",
      "l1GasUsed": "0x640",
      "operatorFeeConstant": "0x0",
      "operatorFeeScalar": "0x5f5e100",
      "tokenRatio": "0xbf6"
    },
    {
      "status": "0x1",
      "cumulativeGasUsed": "0x1397e",
      "logs": [
        {
          "address": "0x1054424a70dae9098babec332e18a0f07d37d251",
          "topics": [
            "0xddf252ad1be2c89b69c2b068fc378daa952ba7f163c4a11628f55a4df523b3ef",
            "0x0000000000000000000000000000000000000000000000000000000000000000",
            "0x0000000000000000000000004c54f58cdbe8159efb71985e1e5289cbdeced2bd"
          ],
          "data": "0x0000000000000000000000000000000000000000204fce5e3e25026110000000",
          "blockHash": "0xe3189d6f7928b84e7cb8dcfbda523df8a1247f3c3a42f970a99b53871f051a7a",
          "blockNumber": "0x25c328b",
          "blockTimestamp": "0x6a23e7f7",
          "transactionHash": "0x684d5181e302afe4789d68731089ac94df91d7e7b73b2fa9dc8b0540b9e63595",
          "transactionIndex": "0x1",
          "logIndex": "0x0",
          "removed": false
        }
      ],
      "logsBloom": "0x0000008000000000000000000000000000000000000000000000000000000000000000010000000000000000000000000000000000000000000000000000000000000000000000000000000800000000000000000000000000000000000000000000000002000000000000000000080000000000000000000000001000000000000000000000000000000000000000000000000000000000000000040000000000000000000000000000000000000000000000000000000000000000000000000000000200000000000000000000000000000000000000000000000000002000000000000000000000000800000000000000000000000000000000000c000000",
      "type": "0x2",
      "transactionHash": "0x684d5181e302afe4789d68731089ac94df91d7e7b73b2fa9dc8b0540b9e63595",
      "transactionIndex": "0x1",
      "blockHash": "0xe3189d6f7928b84e7cb8dcfbda523df8a1247f3c3a42f970a99b53871f051a7a",
      "blockNumber": "0x25c328b",
      "gasUsed": "0x84a3",
      "effectiveGasPrice": "0xba43b7401",
      "blobGasUsed": "0x9c40",
      "from": "0x56a2950dde6b1040d1dcc4b4c4fc314bd56efb0e",
      "to": "0x1054424a70dae9098babec332e18a0f07d37d251",
      "contractAddress": null,
      "daFootprintGasScalar": "0x190",
      "l1BaseFeeScalar": "0x2943b",
      "l1BlobBaseFee": "0x32c86902",
      "l1BlobBaseFeeScalar": "0x45567c",
      "l1Fee": "0x2ffc884aadf782",
      "l1GasPrice": "0x376eaf74a",
      "l1GasUsed": "0x640",
      "operatorFeeConstant": "0x0",
      "operatorFeeScalar": "0x5f5e100",
      "tokenRatio": "0xbf6"
    },
    {
      "status": "0x1",
      "cumulativeGasUsed": "0x16532",
      "logs": [
        {
          "address": "0xbea967ace62d23d335ddad03972659509e1c3559",
          "topics": [
            "0xddf252ad1be2c89b69c2b068fc378daa952ba7f163c4a11628f55a4df523b3ef",
            "0x0000000000000000000000000000000000000000000000000000000000000000",
            "0x0000000000000000000000004c54f58cdbe8159efb71985e1e5289cbdeced2bd"
          ],
          "data": "0x0000000000000000000000000000000000000000204fce5e3e25026110000000",
          "blockHash": "0xd5e2f900702312e4369553b20b2479e0d245cd2dd01357e4de33ac989f0ced27",
          "blockNumber": "0x25c328d",
          "blockTimestamp": "0x6a23e7fb",
          "transactionHash": "0x2117067d886ada22a6e0535c9ea83a378c13d5d53328f020360c35cc15a2a274",
          "transactionIndex": "0x1",
          "logIndex": "0x0",
          "removed": false
        }
      ],
      "logsBloom": "0x00000000000000000000000000000000000000000000000000000000000010000000000100000000000000000000000000000000000000000000000000000000000000000000000000000008000000000000000000000000000000000000000000000000020000000000000000000800000000008000000000000010000000000000000000000000000000000000000000000000000000000000000400000000000000000000000000000000000040000000000000000000000000000000000000000002000000000000000000000000000000000000000000000000000020000000000000000000000008000000000000000000000000000000000000000000",
      "type": "0x2",
      "transactionHash": "0x2117067d886ada22a6e0535c9ea83a378c13d5d53328f020360c35cc15a2a274",
      "transactionIndex": "0x1",
      "blockHash": "0xd5e2f900702312e4369553b20b2479e0d245cd2dd01357e4de33ac989f0ced27",
      "blockNumber": "0x25c328d",
      "gasUsed": "0x84a3",
      "effectiveGasPrice": "0xba43b7401",
      "blobGasUsed": "0x9c40",
      "from": "0x56a2950dde6b1040d1dcc4b4c4fc314bd56efb0e",
      "to": "0xbea967ace62d23d335ddad03972659509e1c3559",
      "contractAddress": null,
      "daFootprintGasScalar": "0x190",
      "l1BaseFeeScalar": "0x2943b",
      "l1BlobBaseFee": "0x34855934",
      "l1BlobBaseFeeScalar": "0x45567c",
      "l1Fee": "0x2ebd214f37641e",
      "l1GasPrice": "0x35ab7f030",
      "l1GasUsed": "0x640",
      "operatorFeeConstant": "0x0",
      "operatorFeeScalar": "0x5f5e100",
      "tokenRatio": "0xbf6"
    },
    {
      "status": "0x1",
      "cumulativeGasUsed": "0x1397e",
      "logs": [
        {
          "address": "0x10d9eb91d0a69098431fb833e666bd64455d45f3",
          "topics": [
            "0xddf252ad1be2c89b69c2b068fc378daa952ba7f163c4a11628f55a4df523b3ef",
            "0x0000000000000000000000000000000000000000000000000000000000000000",
            "0x0000000000000000000000004c54f58cdbe8159efb71985e1e5289cbdeced2bd"
          ],
          "data": "0x0000000000000000000000000000000000000000204fce5e3e25026110000000",
          "blockHash": "0x40e2b28c08ae150dff6cf9f2bffd235c65a851485b6b8a979d2ee3c42426847b",
          "blockNumber": "0x25c328f",
          "blockTimestamp": "0x6a23e7ff",
          "transactionHash": "0x08c3fcd315b21b3cc5650f9c04d241499a221679712698f683582a1afa1049e4",
          "transactionIndex": "0x1",
          "logIndex": "0x0",
          "removed": false
        }
      ],
      "logsBloom": "0x00000000000000000000000000000000000000000000000000000000000000000000000100000000000000000000000000000000000000000000000000000000000000000000000000000008000000000000000400000000000000000000000000000000020000000000000000000800000000000000000000000010000000000000000000000000000000000004000000000000000000000000000400000000000000000000000000000000000000000000000000000000000000000000000000000002000000000000000000000000000000000000000010000000000020000000000000000000000008000000000000000000000000000000000000000000",
      "type": "0x2",
      "transactionHash": "0x08c3fcd315b21b3cc5650f9c04d241499a221679712698f683582a1afa1049e4",
      "transactionIndex": "0x1",
      "blockHash": "0x40e2b28c08ae150dff6cf9f2bffd235c65a851485b6b8a979d2ee3c42426847b",
      "blockNumber": "0x25c328f",
      "gasUsed": "0x84a3",
      "effectiveGasPrice": "0xba43b7401",
      "blobGasUsed": "0x9c40",
      "from": "0x56a2950dde6b1040d1dcc4b4c4fc314bd56efb0e",
      "to": "0x10d9eb91d0a69098431fb833e666bd64455d45f3",
      "contractAddress": null,
      "daFootprintGasScalar": "0x190",
      "l1BaseFeeScalar": "0x2943b",
      "l1BlobBaseFee": "0x34855934",
      "l1BlobBaseFeeScalar": "0x45567c",
      "l1Fee": "0x2ebd214f37641e",
      "l1GasPrice": "0x35ab7f030",
      "l1GasUsed": "0x640",
      "operatorFeeConstant": "0x0",
      "operatorFeeScalar": "0x5f5e100",
      "tokenRatio": "0xbf6"
    },
    {
      "status": "0x1",
      "cumulativeGasUsed": "0x1397e",
      "logs": [
        {
          "address": "0xfda1e869846776e3c182f5e105640ac48d474605",
          "topics": [
            "0xddf252ad1be2c89b69c2b068fc378daa952ba7f163c4a11628f55a4df523b3ef",
            "0x0000000000000000000000000000000000000000000000000000000000000000",
            "0x0000000000000000000000004c54f58cdbe8159efb71985e1e5289cbdeced2bd"
          ],
          "data": "0x0000000000000000000000000000000000000000204fce5e3e25026110000000",
          "blockHash": "0xd747df742fb315c39a9a8b822e611002fb677d441f5b55ac3f103cb38b23b5d3",
          "blockNumber": "0x25c3292",
          "blockTimestamp": "0x6a23e805",
          "transactionHash": "0x0c24b9f80e4d20979f4de0d731e3ec71e2a068600d5deed7b6f146ac0587bd8b",
          "transactionIndex": "0x1",
          "logIndex": "0x0",
          "removed": false
        }
      ],
      "logsBloom": "0x00000000000000000000000000000000000000000000000000000000000000000000000100000000000000000000000000000000000000000000000000000000000000000000000000000008000000000000000000000000000000000000000080000000020000000000000000000800000000000000000000000010008000008000000000000000000000000000000000000000000000000000000400000000000000000000000000000000000000000000000000000000000000000000000000000002000000000000000000000000000000000000000000000000000020000000000000000000000008000000000000000000000000000000000000000000",
      "type": "0x2",
      "transactionHash": "0x0c24b9f80e4d20979f4de0d731e3ec71e2a068600d5deed7b6f146ac0587bd8b",
      "transactionIndex": "0x1",
      "blockHash": "0xd747df742fb315c39a9a8b822e611002fb677d441f5b55ac3f103cb38b23b5d3",
      "blockNumber": "0x25c3292",
      "gasUsed": "0x84a3",
      "effectiveGasPrice": "0xba43b7401",
      "blobGasUsed": "0x9c40",
      "from": "0x56a2950dde6b1040d1dcc4b4c4fc314bd56efb0e",
      "to": "0xfda1e869846776e3c182f5e105640ac48d474605",
      "contractAddress": null,
      "daFootprintGasScalar": "0x190",
      "l1BaseFeeScalar": "0x2943b",
      "l1BlobBaseFee": "0x34855934",
      "l1BlobBaseFeeScalar": "0x45567c",
      "l1Fee": "0x2ebd214f37641e",
      "l1GasPrice": "0x35ab7f030",
      "l1GasUsed": "0x640",
      "operatorFeeConstant": "0x0",
      "operatorFeeScalar": "0x5f5e100",
      "tokenRatio": "0xbf6"
    },
    {
      "status": "0x1",
      "cumulativeGasUsed": "0x13972",
      "logs": [
        {
          "address": "0x3d85b13c76fc218830e3c0d2e147d1a6b8f3cdc8",
          "topics": [
            "0xddf252ad1be2c89b69c2b068fc378daa952ba7f163c4a11628f55a4df523b3ef",
            "0x0000000000000000000000000000000000000000000000000000000000000000",
            "0x0000000000000000000000004c54f58cdbe8159efb71985e1e5289cbdeced2bd"
          ],
          "data": "0x0000000000000000000000000000000000000000204fce5e3e25026110000000",
          "blockHash": "0xabdb3211964639624b88d8b2a6b66ee444ccfad50a52f27005b0c04cb17d9da4",
          "blockNumber": "0x25c3294",
          "blockTimestamp": "0x6a23e809",
          "transactionHash": "0x4ee30b1e23bcb2b3b9d01da2223975f376c6d9af9b6267e2dff66f6da47603ff",
          "transactionIndex": "0x1",
          "logIndex": "0x0",
          "removed": false
        }
      ],
      "logsBloom": "0x00020000000000000000000000000000000000000000000000000000000000000000000100000000000000000000000000000000000000000000000000000000000000000000000000000008000000000000000000000000000000000000000000000000020000000000000000000800000000000000000000000010000000000000000000000000000000000000000000000000000000000000000400000000000000000000000000000000000000000000000000000000000000000000000000000002000010000000000000000000000000000000000000000000000020000000000000000000008008000000000000000000000000000000000000000000",
      "type": "0x2",
      "transactionHash": "0x4ee30b1e23bcb2b3b9d01da2223975f376c6d9af9b6267e2dff66f6da47603ff",
      "transactionIndex": "0x1",
      "blockHash": "0xabdb3211964639624b88d8b2a6b66ee444ccfad50a52f27005b0c04cb17d9da4",
      "blockNumber": "0x25c3294",
      "gasUsed": "0x84a3",
      "effectiveGasPrice": "0xba43b7401",
      "blobGasUsed": "0x9c40",
      "from": "0x56a2950dde6b1040d1dcc4b4c4fc314bd56efb0e",
      "to": "0x3d85b13c76fc218830e3c0d2e147d1a6b8f3cdc8",
      "contractAddress": null,
      "daFootprintGasScalar": "0x190",
      "l1BaseFeeScalar": "0x2943b",
      "l1BlobBaseFee": "0x35e9e98e",
      "l1BlobBaseFeeScalar": "0x45567c",
      "l1Fee": "0x2e7f6e1876c542",
      "l1GasPrice": "0x3537eb174",
      "l1GasUsed": "0x640",
      "operatorFeeConstant": "0x0",
      "operatorFeeScalar": "0x5f5e100",
      "tokenRatio": "0xbf6"
    },
    {
      "status": "0x1",
      "cumulativeGasUsed": "0x13972",
      "logs": [
        {
          "address": "0x56514dcf6e038ba1f77530cb9df01b2f9427ea11",
          "topics": [
            "0xddf252ad1be2c89b69c2b068fc378daa952ba7f163c4a11628f55a4df523b3ef",
            "0x0000000000000000000000000000000000000000000000000000000000000000",
            "0x0000000000000000000000004c54f58cdbe8159efb71985e1e5289cbdeced2bd"
          ],
          "data": "0x0000000000000000000000000000000000000000204fce5e3e25026110000000",
          "blockHash": "0xa8b8dd45dd89c8e5bafebbf145f376da8b1cb9f583c73918d6ad34cd9dc66f69",
          "blockNumber": "0x25c3297",
          "blockTimestamp": "0x6a23e80f",
          "transactionHash": "0x260be5e6513a99cd3c30e73a294255812a9a29c87ec0376dcb3e915da2c4d2c3",
          "transactionIndex": "0x1",
          "logIndex": "0x0",
          "removed": false
        }
      ],
      "logsBloom": "0x20000000000000000000000000000000000000000000000000000000000000000000000108000000000000000000000000000000000000000000000000000000000000000000000000000008000000000000000000000000000000000000000000000000020000000000000000000800000000000000000000000010000000000000000000000000000000000000000000000000000000000000000400000000000000000000000000000000000000000000000000000000000000000000000000000002000000000000000000000000000000000000000000000000000420000000000000000000000008000000000000000000000000000000000000000000",
      "type": "0x2",
      "transactionHash": "0x260be5e6513a99cd3c30e73a294255812a9a29c87ec0376dcb3e915da2c4d2c3",
      "transactionIndex": "0x1",
      "blockHash": "0xa8b8dd45dd89c8e5bafebbf145f376da8b1cb9f583c73918d6ad34cd9dc66f69",
      "blockNumber": "0x25c3297",
      "gasUsed": "0x84a3",
      "effectiveGasPrice": "0xba43b7401",
      "blobGasUsed": "0x9c40",
      "from": "0x56a2950dde6b1040d1dcc4b4c4fc314bd56efb0e",
      "to": "0x56514dcf6e038ba1f77530cb9df01b2f9427ea11",
      "contractAddress": null,
      "daFootprintGasScalar": "0x190",
      "l1BaseFeeScalar": "0x2943b",
      "l1BlobBaseFee": "0x35e9e98e",
      "l1BlobBaseFeeScalar": "0x45567c",
      "l1Fee": "0x2e7f6e1876c542",
      "l1GasPrice": "0x3537eb174",
      "l1GasUsed": "0x640",
      "operatorFeeConstant": "0x0",
      "operatorFeeScalar": "0x5f5e100",
      "tokenRatio": "0xbf6"
    },
    {
      "status": "0x1",
      "cumulativeGasUsed": "0x16532",
      "logs": [
        {
          "address": "0x92cf957248c8a695da67d91835bd02e6371e5bfd",
          "topics": [
            "0xddf252ad1be2c89b69c2b068fc378daa952ba7f163c4a11628f55a4df523b3ef",
            "0x0000000000000000000000000000000000000000000000000000000000000000",
            "0x0000000000000000000000004c54f58cdbe8159efb71985e1e5289cbdeced2bd"
          ],
          "data": "0x0000000000000000000000000000000000000000204fce5e3e25026110000000",
          "blockHash": "0x4a48f3d5b396f4f95c23a7bc45fd7f9517bc38b38588eb78cea8f03b049b1200",
          "blockNumber": "0x25c3299",
          "blockTimestamp": "0x6a23e813",
          "transactionHash": "0x8990a90714f734bbc89817f2d8e561840b3813b090af1b2bdd53b3aab01d3840",
          "transactionIndex": "0x1",
          "logIndex": "0x0",
          "removed": false
        }
      ],
      "logsBloom": "0x00000000000000000000000000000000000000000000000000000000000000000000000102000000000000000000000000000000000000000000000000000000000000000000000000000008000000000000000000000000000000200000000000000000020000000000000000000800000000004000000000000010000000000000000000000000000000000000000000000000000000000000000400000000000000000000000000000000000000000000000000000000000000000000000000000002000000000000000000000000000000000000000000000000000020000000000000000000000008000000000000000000000000000000000000000000",
      "type": "0x2",
      "transactionHash": "0x8990a90714f734bbc89817f2d8e561840b3813b090af1b2bdd53b3aab01d3840",
      "transactionIndex": "0x1",
      "blockHash": "0x4a48f3d5b396f4f95c23a7bc45fd7f9517bc38b38588eb78cea8f03b049b1200",
      "blockNumber": "0x25c3299",
      "gasUsed": "0x84a3",
      "effectiveGasPrice": "0xba43b7401",
      "blobGasUsed": "0x9c40",
      "from": "0x56a2950dde6b1040d1dcc4b4c4fc314bd56efb0e",
      "to": "0x92cf957248c8a695da67d91835bd02e6371e5bfd",
      "contractAddress": null,
      "daFootprintGasScalar": "0x190",
      "l1BaseFeeScalar": "0x2943b",
      "l1BlobBaseFee": "0x30bc8ad8",
      "l1BlobBaseFeeScalar": "0x45567c",
      "l1Fee": "0x2c596071e0302a",
      "l1GasPrice": "0x330a92a49",
      "l1GasUsed": "0x640",
      "operatorFeeConstant": "0x0",
      "operatorFeeScalar": "0x5f5e100",
      "tokenRatio": "0xbf6"
    },
    {
      "status": "0x1",
      "cumulativeGasUsed": "0x1397e",
      "logs": [
        {
          "address": "0x4e3a788cd351f73d70c85f640758d90d7c573a4d",
          "topics": [
            "0xddf252ad1be2c89b69c2b068fc378daa952ba7f163c4a11628f55a4df523b3ef",
            "0x0000000000000000000000000000000000000000000000000000000000000000",
            "0x0000000000000000000000004c54f58cdbe8159efb71985e1e5289cbdeced2bd"
          ],
          "data": "0x0000000000000000000000000000000000000000204fce5e3e25026110000000",
          "blockHash": "0xdcc7614b3cad6fadba1f69caaf1c8115168501aaf69e663ee305e6082cedfff9",
          "blockNumber": "0x25c329b",
          "blockTimestamp": "0x6a23e817",
          "transactionHash": "0x648d68c181c7adce9182c2f55d30379654256b68899b43c802c548aebcbdc60f",
          "transactionIndex": "0x1",
          "logIndex": "0x0",
          "removed": false
        }
      ],
      "logsBloom": "0x00000000000000000000000000000000000000000000000000000000000000000000000100000000000000000000000000000000000000000000000000000000000000000000000000000008000000000000000000000000000000000000020000000000020000000000000000000a00000000000000000000000010000000000000000000000000100000000000000000000000000000000000000400000000000000000000000000000000000000000000000000000000000000000000000000000002000000000000000000000000000000000000000000000000000020000000000000000000000008000000000000000000000000000000000000000000",
      "type": "0x2",
      "transactionHash": "0x648d68c181c7adce9182c2f55d30379654256b68899b43c802c548aebcbdc60f",
      "transactionIndex": "0x1",
      "blockHash": "0xdcc7614b3cad6fadba1f69caaf1c8115168501aaf69e663ee305e6082cedfff9",
      "blockNumber": "0x25c329b",
      "gasUsed": "0x84a3",
      "effectiveGasPrice": "0xba43b7401",
      "blobGasUsed": "0x9c40",
      "from": "0x56a2950dde6b1040d1dcc4b4c4fc314bd56efb0e",
      "to": "0x4e3a788cd351f73d70c85f640758d90d7c573a4d",
      "contractAddress": null,
      "daFootprintGasScalar": "0x190",
      "l1BaseFeeScalar": "0x2943b",
      "l1BlobBaseFee": "0x30bc8ad8",
      "l1BlobBaseFeeScalar": "0x45567c",
      "l1Fee": "0x2c596071e0302a",
      "l1GasPrice": "0x330a92a49",
      "l1GasUsed": "0x640",
      "operatorFeeConstant": "0x0",
      "operatorFeeScalar": "0x5f5e100",
      "tokenRatio": "0xbf6"
    },
    {
      "status": "0x1",
      "cumulativeGasUsed": "0x1397e",
      "logs": [
        {
          "address": "0xbc58f30dfaae433f5531a037365c06b98960e54a",
          "topics": [
            "0xddf252ad1be2c89b69c2b068fc378daa952ba7f163c4a11628f55a4df523b3ef",
            "0x0000000000000000000000000000000000000000000000000000000000000000",
            "0x0000000000000000000000004c54f58cdbe8159efb71985e1e5289cbdeced2bd"
          ],
          "data": "0x0000000000000000000000000000000000000000204fce5e3e25026110000000",
          "blockHash": "0xc3ce4a882c423d4be946868eecc9b3055c84d3efd5e8bb75a123fa7a2aade5fd",
          "blockNumber": "0x25c329d",
          "blockTimestamp": "0x6a23e81b",
          "transactionHash": "0xfb1da9bf2ca4d43477b733997198a91ac8d72cfa806507c4cbc140e0921c58f7",
          "transactionIndex": "0x1",
          "logIndex": "0x0",
          "removed": false
        }
      ],
      "logsBloom": "0x00000000000000000000000000000000000000000000000000000000000000000000000100000000000000000000000000000000000000000000000000000000000000000000000000000008000000000000000000000000000000000000000000000000020000000000000000000800000000000000000000000010000000000100000000000000000000000000000000000000000000000000000400000000000000000000000000000000000000000000000000000000000000080000000000000002000000000000000000000002000000000000000000000000000020000000000000000000000008000000000000000000000000000000000000000000",
      "type": "0x2",
      "transactionHash": "0xfb1da9bf2ca4d43477b733997198a91ac8d72cfa806507c4cbc140e0921c58f7",
      "transactionIndex": "0x1",
      "blockHash": "0xc3ce4a882c423d4be946868eecc9b3055c84d3efd5e8bb75a123fa7a2aade5fd",
      "blockNumber": "0x25c329d",
      "gasUsed": "0x84a3",
      "effectiveGasPrice": "0xba43b7401",
      "blobGasUsed": "0x9c40",
      "from": "0x56a2950dde6b1040d1dcc4b4c4fc314bd56efb0e",
      "to": "0xbc58f30dfaae433f5531a037365c06b98960e54a",
      "contractAddress": null,
      "daFootprintGasScalar": "0x190",
      "l1BaseFeeScalar": "0x2943b",
      "l1BlobBaseFee": "0x30bc8ad8",
      "l1BlobBaseFeeScalar": "0x45567c",
      "l1Fee": "0x2c596071e0302a",
      "l1GasPrice": "0x330a92a49",
      "l1GasUsed": "0x640",
      "operatorFeeConstant": "0x0",
      "operatorFeeScalar": "0x5f5e100",
      "tokenRatio": "0xbf6"
    },
    {
      "status": "0x1",
      "cumulativeGasUsed": "0x1f076",
      "logs": [
        {
          "address": "0x1d7939e37e08802a6b86204f8e3c52ba4a6cbfba",
          "topics": [
            "0xddf252ad1be2c89b69c2b068fc378daa952ba7f163c4a11628f55a4df523b3ef",
            "0x0000000000000000000000000000000000000000000000000000000000000000",
            "0x0000000000000000000000004c54f58cdbe8159efb71985e1e5289cbdeced2bd"
          ],
          "data": "0x0000000000000000000000000000000000000000204fce5e3e25026110000000",
          "blockHash": "0x127abbbf7cbbd523c5bbd7972999424fbb09c041e4d16ceb0d511550a70747f3",
          "blockNumber": "0x25c329f",
          "blockTimestamp": "0x6a23e81f",
          "transactionHash": "0x3b439fc061e16c413bd2e45a28d7ed802c7196d728a4a2203b76f2b84ea2053e",
          "transactionIndex": "0x2",
          "logIndex": "0x1",
          "removed": false
        }
      ],
      "logsBloom": "0x00000000000000000000000000000000000000000000000000000000000000000000000100000000000000000000000000000000000000000000000000000000000000000000000000080008000000000000000000000000000000000000000000000000021000000000000000000800000000000000000000000010000000000000000000000000000000000000000000000000000000000000000400000000000000000000000000000000000000000000000000000000000000000000000000000002000000000000000000000000000000000000000000000000000020000000000000000000000008000000000000000000000000002000000000000000",
      "type": "0x2",
      "transactionHash": "0x3b439fc061e16c413bd2e45a28d7ed802c7196d728a4a2203b76f2b84ea2053e",
      "transactionIndex": "0x2",
      "blockHash": "0x127abbbf7cbbd523c5bbd7972999424fbb09c041e4d16ceb0d511550a70747f3",
      "blockNumber": "0x25c329f",
      "gasUsed": "0x84a3",
      "effectiveGasPrice": "0xba43b7401",
      "blobGasUsed": "0x9c40",
      "from": "0x56a2950dde6b1040d1dcc4b4c4fc314bd56efb0e",
      "to": "0x1d7939e37e08802a6b86204f8e3c52ba4a6cbfba",
      "contractAddress": null,
      "daFootprintGasScalar": "0x190",
      "l1BaseFeeScalar": "0x2943b",
      "l1BlobBaseFee": "0x311a31e6",
      "l1BlobBaseFeeScalar": "0x45567c",
      "l1Fee": "0x2cd9deb0b9c574",
      "l1GasPrice": "0x33a373002",
      "l1GasUsed": "0x640",
      "operatorFeeConstant": "0x0",
      "operatorFeeScalar": "0x5f5e100",
      "tokenRatio": "0xbf6"
    },
    {
      "status": "0x1",
      "cumulativeGasUsed": "0x1397e",
      "logs": [
        {
          "address": "0x932e82632e80b06318ca969e33f99a54f1a04b10",
          "topics": [
            "0xddf252ad1be2c89b69c2b068fc378daa952ba7f163c4a11628f55a4df523b3ef",
            "0x0000000000000000000000000000000000000000000000000000000000000000",
            "0x0000000000000000000000004c54f58cdbe8159efb71985e1e5289cbdeced2bd"
          ],
          "data": "0x0000000000000000000000000000000000000000204fce5e3e25026110000000",
          "blockHash": "0xe38afe62d835d0d2c29baddd2ab2a7ce7b76c8f2448758250a58e42cfd61607b",
          "blockNumber": "0x25c32a1",
          "blockTimestamp": "0x6a23e823",
          "transactionHash": "0x5ef74d0e4bd21ee3212fcec1e56e07137dd132d862ae20c72277486deec01343",
          "transactionIndex": "0x1",
          "logIndex": "0x0",
          "removed": false
        }
      ],
      "logsBloom": "0x00000000000000000000000000000000000000000000000000000800000000000000000100000000000000000000000000000000000000000000000000000000000000000000000000000008000000000000000000000000000000000000000000000000020000000000000000000800000000000002000000000010000000000000000000000000000000000000000000000000000000000200000400000000000000000000000000000000000000000000000000000000000000000000000000000002000000000000000000000000000000000000000000000000000020000000000000000000000008000000000000000000000000000000000000000000",
      "type": "0x2",
      "transactionHash": "0x5ef74d0e4bd21ee3212fcec1e56e07137dd132d862ae20c72277486deec01343",
      "transactionIndex": "0x1",
      "blockHash": "0xe38afe62d835d0d2c29baddd2ab2a7ce7b76c8f2448758250a58e42cfd61607b",
      "blockNumber": "0x25c32a1",
      "gasUsed": "0x84a3",
      "effectiveGasPrice": "0xba43b7401",
      "blobGasUsed": "0x9c40",
      "from": "0x56a2950dde6b1040d1dcc4b4c4fc314bd56efb0e",
      "to": "0x932e82632e80b06318ca969e33f99a54f1a04b10",
      "contractAddress": null,
      "daFootprintGasScalar": "0x190",
      "l1BaseFeeScalar": "0x2943b",
      "l1BlobBaseFee": "0x311a31e6",
      "l1BlobBaseFeeScalar": "0x45567c",
      "l1Fee": "0x2cd9deb0b9c574",
      "l1GasPrice": "0x33a373002",
      "l1GasUsed": "0x640",
      "operatorFeeConstant": "0x0",
      "operatorFeeScalar": "0x5f5e100",
      "tokenRatio": "0xbf6"
    },
    {
      "status": "0x1",
      "cumulativeGasUsed": "0x1397e",
      "logs": [
        {
          "address": "0xf380e8b6803ad065ef0567dd20c894a55050737c",
          "topics": [
            "0xddf252ad1be2c89b69c2b068fc378daa952ba7f163c4a11628f55a4df523b3ef",
            "0x0000000000000000000000000000000000000000000000000000000000000000",
            "0x0000000000000000000000004c54f58cdbe8159efb71985e1e5289cbdeced2bd"
          ],
          "data": "0x0000000000000000000000000000000000000000204fce5e3e25026110000000",
          "blockHash": "0xb5e3a0dd8f8500a75ad72bacb367df47d569abd0593ebfaf2ad3e664669fd075",
          "blockNumber": "0x25c32a4",
          "blockTimestamp": "0x6a23e829",
          "transactionHash": "0xc931e0fc97e51e00334d30b22b87deeef2ea24211245fc8af878633c737ebbc2",
          "transactionIndex": "0x1",
          "logIndex": "0x0",
          "removed": false
        }
      ],
      "logsBloom": "0x00000000000000000000000000000040000000000000000000000000000000000000000100000000000000000000000000000000000000000000000000000000000000000000000000000008000000000040400000000000000000000000000000000000020000000000000000000800000000000000000000000010000000000000000000000000000000000000000000000000000000000000000400000000000000000000000000000000000000000000000000000000000000000000000000000002000000000000000000000000000000000000000000000000000020000000000000000000000008000000000000000000000000000000000000000000",
      "type": "0x2",
      "transactionHash": "0xc931e0fc97e51e00334d30b22b87deeef2ea24211245fc8af878633c737ebbc2",
      "transactionIndex": "0x1",
      "blockHash": "0xb5e3a0dd8f8500a75ad72bacb367df47d569abd0593ebfaf2ad3e664669fd075",
      "blockNumber": "0x25c32a4",
      "gasUsed": "0x84a3",
      "effectiveGasPrice": "0xba43b7401",
      "blobGasUsed": "0x9c40",
      "from": "0x56a2950dde6b1040d1dcc4b4c4fc314bd56efb0e",
      "to": "0xf380e8b6803ad065ef0567dd20c894a55050737c",
      "contractAddress": null,
      "daFootprintGasScalar": "0x190",
      "l1BaseFeeScalar": "0x2943b",
      "l1BlobBaseFee": "0x311a31e6",
      "l1BlobBaseFeeScalar": "0x45567c",
      "l1Fee": "0x2cd9deb0b9c574",
      "l1GasPrice": "0x33a373002",
      "l1GasUsed": "0x640",
      "operatorFeeConstant": "0x0",
      "operatorFeeScalar": "0x5f5e100",
      "tokenRatio": "0xbf6"
    },
    {
      "status": "0x1",
      "cumulativeGasUsed": "0x1397e",
      "logs": [
        {
          "address": "0x5b0770513b6cd76bf225462f3ec42783e8da69a1",
          "topics": [
            "0xddf252ad1be2c89b69c2b068fc378daa952ba7f163c4a11628f55a4df523b3ef",
            "0x0000000000000000000000000000000000000000000000000000000000000000",
            "0x0000000000000000000000004c54f58cdbe8159efb71985e1e5289cbdeced2bd"
          ],
          "data": "0x0000000000000000000000000000000000000000204fce5e3e25026110000000",
          "blockHash": "0x7aa8f09bf37f6ce8c74a433e4df5f4d845cfbc6a67e607f81574045e6d61e754",
          "blockNumber": "0x25c32a6",
          "blockTimestamp": "0x6a23e82d",
          "transactionHash": "0x79afe4eadc8a4d44fc611e275d655da827be93b5b5e8d32ad5720d158e287a74",
          "transactionIndex": "0x1",
          "logIndex": "0x0",
          "removed": false
        }
      ],
      "logsBloom": "0x00000000000000000000000001000000000000000000000000000000000000000000000100000000000000000000000000000000000000000000000000000000000000000000000000200008000000000000000000000000000000000080000000000000020000000000000000000800000000000000000000000010000000000000000000000000000000000000000000000000000000000000000400000000000000000000000000000000000000000000000000000000000000000000000000000002000000000000000000000000000000000000000000000000000020000000000000000000000008000000000000000000000000000000000000000000",
      "type": "0x2",
      "transactionHash": "0x79afe4eadc8a4d44fc611e275d655da827be93b5b5e8d32ad5720d158e287a74",
      "transactionIndex": "0x1",
      "blockHash": "0x7aa8f09bf37f6ce8c74a433e4df5f4d845cfbc6a67e607f81574045e6d61e754",
      "blockNumber": "0x25c32a6",
      "gasUsed": "0x84a3",
      "effectiveGasPrice": "0xba43b7401",
      "blobGasUsed": "0x9c40",
      "from": "0x56a2950dde6b1040d1dcc4b4c4fc314bd56efb0e",
      "to": "0x5b0770513b6cd76bf225462f3ec42783e8da69a1",
      "contractAddress": null,
      "daFootprintGasScalar": "0x190",
      "l1BaseFeeScalar": "0x2943b",
      "l1BlobBaseFee": "0x335b0fb0",
      "l1BlobBaseFeeScalar": "0x45567c",
      "l1Fee": "0x2b9b46445aaba6",
      "l1GasPrice": "0x31d36d330",
      "l1GasUsed": "0x640",
      "operatorFeeConstant": "0x0",
      "operatorFeeScalar": "0x5f5e100",
      "tokenRatio": "0xbf6"
    },
    {
      "status": "0x1",
      "cumulativeGasUsed": "0x1397e",
      "logs": [
        {
          "address": "0x0aa42416baccdb2fd4768b61111deb7f7d212f9b",
          "topics": [
            "0xddf252ad1be2c89b69c2b068fc378daa952ba7f163c4a11628f55a4df523b3ef",
            "0x0000000000000000000000000000000000000000000000000000000000000000",
            "0x0000000000000000000000004c54f58cdbe8159efb71985e1e5289cbdeced2bd"
          ],
          "data": "0x0000000000000000000000000000000000000000204fce5e3e25026110000000",
          "blockHash": "0x76273b68ff16cea385cb64fa3b9eeb97a091eeed11223c13b9a2628b4295fdba",
          "blockNumber": "0x25c32a8",
          "blockTimestamp": "0x6a23e831",
          "transactionHash": "0x676f8a7345a28724de6366549e49483d9c5e93e9cd2c98266e8b571a188356c0",
          "transactionIndex": "0x1",
          "logIndex": "0x0",
          "removed": false
        }
      ],
      "logsBloom": "0x0000000000000000000000000000000000000000000000000008000000000000000000010000000000000000000000000000000000000000000000000000000000000000000000000000000800000000000000000000000000000000000000000000000002000000000000000000080000000000000000000000001000000000000000000000000000000000000000000000000000000000000000040000000000000000000000000000000000100000000000000000000000000000000000000000000200000000000000000000000000000000000000000000000000002000000000000000000000000a000000000000000000000000000000000000000000",
      "type": "0x2",
      "transactionHash": "0x676f8a7345a28724de6366549e49483d9c5e93e9cd2c98266e8b571a188356c0",
      "transactionIndex": "0x1",
      "blockHash": "0x76273b68ff16cea385cb64fa3b9eeb97a091eeed11223c13b9a2628b4295fdba",
      "blockNumber": "0x25c32a8",
      "gasUsed": "0x84a3",
      "effectiveGasPrice": "0xba43b7401",
      "blobGasUsed": "0x9c40",
      "from": "0x56a2950dde6b1040d1dcc4b4c4fc314bd56efb0e",
      "to": "0x0aa42416baccdb2fd4768b61111deb7f7d212f9b",
      "contractAddress": null,
      "daFootprintGasScalar": "0x190",
      "l1BaseFeeScalar": "0x2943b",
      "l1BlobBaseFee": "0x335b0fb0",
      "l1BlobBaseFeeScalar": "0x45567c",
      "l1Fee": "0x2b9b46445aaba6",
      "l1GasPrice": "0x31d36d330",
      "l1GasUsed": "0x640",
      "operatorFeeConstant": "0x0",
      "operatorFeeScalar": "0x5f5e100",
      "tokenRatio": "0xbf6"
    },
    {
      "status": "0x1",
      "cumulativeGasUsed": "0x1397e",
      "logs": [
        {
          "address": "0xb3e1f06ac529aded2aa20aa38f4c0b4ad317e5f5",
          "topics": [
            "0xddf252ad1be2c89b69c2b068fc378daa952ba7f163c4a11628f55a4df523b3ef",
            "0x0000000000000000000000000000000000000000000000000000000000000000",
            "0x0000000000000000000000004c54f58cdbe8159efb71985e1e5289cbdeced2bd"
          ],
          "data": "0x0000000000000000000000000000000000000000204fce5e3e25026110000000",
          "blockHash": "0xacac90c42ef43ad434df67db4d5aa53b6b9dcfef641e8911abf7766be14e1fb2",
          "blockNumber": "0x25c32aa",
          "blockTimestamp": "0x6a23e835",
          "transactionHash": "0xd5b68efe2dc964fa2da65ff5d78a3e4e0386b44d537c9e039acb5d6567b26159",
          "transactionIndex": "0x1",
          "logIndex": "0x0",
          "removed": false
        }
      ],
      "logsBloom": "0x00000000000000000000000000000000000000000000000000000000000000000000000100000000000000000000000000000000000000000000000000000000000000000000000000000008000000000000000000000000000000000000000000000000020000000000000000000800000000000000000000000010000000000000000000000000000000000000000000000000000000000000000400000000000000000000000000000000000000000000040000000000000000000000000000000002000000000010000000000000000000000000000008000000000020000000000000000000000008000000000000000000000000000000000000000000",
      "type": "0x2",
      "transactionHash": "0xd5b68efe2dc964fa2da65ff5d78a3e4e0386b44d537c9e039acb5d6567b26159",
      "transactionIndex": "0x1",
      "blockHash": "0xacac90c42ef43ad434df67db4d5aa53b6b9dcfef641e8911abf7766be14e1fb2",
      "blockNumber": "0x25c32aa",
      "gasUsed": "0x84a3",
      "effectiveGasPrice": "0xba43b7401",
      "blobGasUsed": "0x9c40",
      "from": "0x56a2950dde6b1040d1dcc4b4c4fc314bd56efb0e",
      "to": "0xb3e1f06ac529aded2aa20aa38f4c0b4ad317e5f5",
      "contractAddress": null,
      "daFootprintGasScalar": "0x190",
      "l1BaseFeeScalar": "0x2943b",
      "l1BlobBaseFee": "0x335b0fb0",
      "l1BlobBaseFeeScalar": "0x45567c",
      "l1Fee": "0x2b9b46445aaba6",
      "l1GasPrice": "0x31d36d330",
      "l1GasUsed": "0x640",
      "operatorFeeConstant": "0x0",
      "operatorFeeScalar": "0x5f5e100",
      "tokenRatio": "0xbf6"
    },
    {
      "status": "0x1",
      "cumulativeGasUsed": "0x13972",
      "logs": [
        {
          "address": "0x62e518611d5a135a50c18e5fcf3a333d6d3a0506",
          "topics": [
            "0xddf252ad1be2c89b69c2b068fc378daa952ba7f163c4a11628f55a4df523b3ef",
            "0x0000000000000000000000000000000000000000000000000000000000000000",
            "0x0000000000000000000000004c54f58cdbe8159efb71985e1e5289cbdeced2bd"
          ],
          "data": "0x0000000000000000000000000000000000000000204fce5e3e25026110000000",
          "blockHash": "0xc6350edf85748ba0b9aa029da08caba6ec8c17e81a400607013701754f462567",
          "blockNumber": "0x25c32ac",
          "blockTimestamp": "0x6a23e839",
          "transactionHash": "0x8af033162c3f420efdb5c9b923a8bd2cfdc886fee72872f18b818b066cf6fefd",
          "transactionIndex": "0x1",
          "logIndex": "0x0",
          "removed": false
        }
      ],
      "logsBloom": "0x00000000000000000000000000000000000000000000000000000000000000000000000100000000000000000000000000000000000000000000000000000000000000000000000000000008000000000000000000000000000000000000000000000000020000000000000000000800000000000000000000000010000000000000000000000002000000000000000000000000000000800000000400000000000000000000000000010000000000000000000000000000000000000000000000000002000000000000000000000000000000000000000000000000000020000000000000000000000008000000000000000000000000000000000000000000",
      "type": "0x2",
      "transactionHash": "0x8af033162c3f420efdb5c9b923a8bd2cfdc886fee72872f18b818b066cf6fefd",
      "transactionIndex": "0x1",
      "blockHash": "0xc6350edf85748ba0b9aa029da08caba6ec8c17e81a400607013701754f462567",
      "blockNumber": "0x25c32ac",
      "gasUsed": "0x84a3",
      "effectiveGasPrice": "0xba43b7401",
      "blobGasUsed": "0x9c40",
      "from": "0x56a2950dde6b1040d1dcc4b4c4fc314bd56efb0e",
      "to": "0x62e518611d5a135a50c18e5fcf3a333d6d3a0506",
      "contractAddress": null,
      "daFootprintGasScalar": "0x190",
      "l1BaseFeeScalar": "0x2943b",
      "l1BlobBaseFee": "0x30035300",
      "l1BlobBaseFeeScalar": "0x45567c",
      "l1Fee": "0x2ad0b195f95610",
      "l1GasPrice": "0x312cc45be",
      "l1GasUsed": "0x640",
      "operatorFeeConstant": "0x0",
      "operatorFeeScalar": "0x5f5e100",
      "tokenRatio": "0xbf6"
    },
    {
      "status": "0x1",
      "cumulativeGasUsed": "0x17c3e",
      "logs": [
        {
          "address": "0xc43bd39225a38ce33751c55c74741834a8e82d16",
          "topics": [
            "0xddf252ad1be2c89b69c2b068fc378daa952ba7f163c4a11628f55a4df523b3ef",
            "0x0000000000000000000000000000000000000000000000000000000000000000",
            "0x0000000000000000000000004c54f58cdbe8159efb71985e1e5289cbdeced2bd"
          ],
          "data": "0x0000000000000000000000000000000000000000204fce5e3e25026110000000",
          "blockHash": "0x3b146aa185d9456f270435440674bde150543b53d391dd1c1c64e979e5f2dfa3",
          "blockNumber": "0x25c32ae",
          "blockTimestamp": "0x6a23e83d",
          "transactionHash": "0x9d52f6b40703f29eb7d38a7e6da3bef8cf646e5e4e7b8cf9b234d03f2fe3453a",
          "transactionIndex": "0x1",
          "logIndex": "0x0",
          "removed": false
        }
      ],
      "logsBloom": "0x00000000000000000000002000000000000000000000000000000000000000000000000100800000000000000000000000000000000000000000000000000000000000000000000000000008010000000000000000000000000000000000000000000000020000000000000000000800000000000000000000000010000000000000000000000000000000000000000000000000000000000000000400000000000000000000000000000000000000000000000000000000000000000000000000000002000000000000000000000000000000000000000000000000000020000000000000000000000008000000000000000000000000000000000000000000",
      "type": "0x2",
      "transactionHash": "0x9d52f6b40703f29eb7d38a7e6da3bef8cf646e5e4e7b8cf9b234d03f2fe3453a",
      "transactionIndex": "0x1",
      "blockHash": "0x3b146aa185d9456f270435440674bde150543b53d391dd1c1c64e979e5f2dfa3",
      "blockNumber": "0x25c32ae",
      "gasUsed": "0xc76f",
      "effectiveGasPrice": "0xba43b7401",
      "blobGasUsed": "0x9c40",
      "from": "0x56a2950dde6b1040d1dcc4b4c4fc314bd56efb0e",
      "to": "0xc43bd39225a38ce33751c55c74741834a8e82d16",
      "contractAddress": null,
      "daFootprintGasScalar": "0x190",
      "l1BaseFeeScalar": "0x2943b",
      "l1BlobBaseFee": "0x30035300",
      "l1BlobBaseFeeScalar": "0x45567c",
      "l1Fee": "0x2ad0b195f95610",
      "l1GasPrice": "0x312cc45be",
      "l1GasUsed": "0x640",
      "operatorFeeConstant": "0x0",
      "operatorFeeScalar": "0x5f5e100",
      "tokenRatio": "0xbf6"
    },
    {
      "status": "0x1",
      "cumulativeGasUsed": "0x17c3e",
      "logs": [
        {
          "address": "0x6289654b4197744800d761a4641ba0c4a79f5ed1",
          "topics": [
            "0xddf252ad1be2c89b69c2b068fc378daa952ba7f163c4a11628f55a4df523b3ef",
            "0x0000000000000000000000000000000000000000000000000000000000000000",
            "0x0000000000000000000000004c54f58cdbe8159efb71985e1e5289cbdeced2bd"
          ],
          "data": "0x0000000000000000000000000000000000000000204fce5e3e25026110000000",
          "blockHash": "0x1733ac3e9edd1ecb371f6437729e6c328cb1bd963eee732f535e18c6c785f874",
          "blockNumber": "0x25c32b1",
          "blockTimestamp": "0x6a23e843",
          "transactionHash": "0xdac8eea9be3849d1ff932277f2160f6f44a0dc23644b8611e6474c0a1fa1b21c",
          "transactionIndex": "0x1",
          "logIndex": "0x0",
          "removed": false
        }
      ],
      "logsBloom": "0x00000000000000000000000000000000800000000000000000000000000000000000000100000000000000000000000000000000000000000000000000000000000000000000000000000008000000000000000000000000000000000000000000000000020000000000000000000800000000000000000000000010000000000000000000000000000000000000040000000000000000000000000400000000000000000000000020000000000000000000000000000000000000000000000000000002000000000000000000000000000000000000000000000000000020000000000000000000000008000000000000000000000000000000000000000000",
      "type": "0x2",
      "transactionHash": "0xdac8eea9be3849d1ff932277f2160f6f44a0dc23644b8611e6474c0a1fa1b21c",
      "transactionIndex": "0x1",
      "blockHash": "0x1733ac3e9edd1ecb371f6437729e6c328cb1bd963eee732f535e18c6c785f874",
      "blockNumber": "0x25c32b1",
      "gasUsed": "0xc76f",
      "effectiveGasPrice": "0xba43b7401",
      "blobGasUsed": "0x9c40",
      "from": "0x56a2950dde6b1040d1dcc4b4c4fc314bd56efb0e",
      "to": "0x6289654b4197744800d761a4641ba0c4a79f5ed1",
      "contractAddress": null,
      "daFootprintGasScalar": "0x190",
      "l1BaseFeeScalar": "0x2943b",
      "l1BlobBaseFee": "0x30035300",
      "l1BlobBaseFeeScalar": "0x45567c",
      "l1Fee": "0x2ad0b195f95610",
      "l1GasPrice": "0x312cc45be",
      "l1GasUsed": "0x640",
      "operatorFeeConstant": "0x0",
      "operatorFeeScalar": "0x5f5e100",
      "tokenRatio": "0xbf6"
    },
    {
      "status": "0x1",
      "cumulativeGasUsed": "0x17c3e",
      "logs": [
        {
          "address": "0x7bb9e063dab0b53fb7b7b438548d5a8c62e3afb7",
          "topics": [
            "0xddf252ad1be2c89b69c2b068fc378daa952ba7f163c4a11628f55a4df523b3ef",
            "0x0000000000000000000000000000000000000000000000000000000000000000",
            "0x0000000000000000000000004c54f58cdbe8159efb71985e1e5289cbdeced2bd"
          ],
          "data": "0x0000000000000000000000000000000000000000204fce5e3e25026110000000",
          "blockHash": "0xe65d9d31db6c2bbc178f434d9c2a824312f371b76b61748512e2f2bcf03799fa",
          "blockNumber": "0x25c32b3",
          "blockTimestamp": "0x6a23e847",
          "transactionHash": "0x420c54ba69f8c52a0c910b876f108c8a0db791f6937a8600e0583acec77c9ea6",
          "transactionIndex": "0x1",
          "logIndex": "0x0",
          "removed": false
        }
      ],
      "logsBloom": "0x00000000000000000000000000000000000000000000000000000000000000000000000100000000000000000000000000000000000000000000000000000000000000000000000000000008000000000000000000000000000000000000000000000000020000000000000000000800000000000000000000000010000000000000000000000000000000000000000000000000001000000000000400002200000000000000000000000000000000000000000000000000000000000000000000000002000000000000000000000000000000000000000000000000000020000000000000000000000008000000000000000000000000000000000000000000",
      "type": "0x2",
      "transactionHash": "0x420c54ba69f8c52a0c910b876f108c8a0db791f6937a8600e0583acec77c9ea6",
      "transactionIndex": "0x1",
      "blockHash": "0xe65d9d31db6c2bbc178f434d9c2a824312f371b76b61748512e2f2bcf03799fa",
      "blockNumber": "0x25c32b3",
      "gasUsed": "0xc76f",
      "effectiveGasPrice": "0xba43b7401",
      "blobGasUsed": "0x9c40",
      "from": "0x56a2950dde6b1040d1dcc4b4c4fc314bd56efb0e",
      "to": "0x7bb9e063dab0b53fb7b7b438548d5a8c62e3afb7",
      "contractAddress": null,
      "daFootprintGasScalar": "0x190",
      "l1BaseFeeScalar": "0x2943b",
      "l1BlobBaseFee": "0x30035300",
      "l1BlobBaseFeeScalar": "0x45567c",
      "l1Fee": "0x2ad0b195f95610",
      "l1GasPrice": "0x312cc45be",
      "l1GasUsed": "0x640",
      "operatorFeeConstant": "0x0",
      "operatorFeeScalar": "0x5f5e100",
      "tokenRatio": "0xbf6"
    },
    {
      "status": "0x1",
      "cumulativeGasUsed": "0x460ee",
      "logs": [
        {
          "address": "0x6956dbbeb8eca1160ae21d2d703cdf6b86525825",
          "topics": [
            "0xddf252ad1be2c89b69c2b068fc378daa952ba7f163c4a11628f55a4df523b3ef",
            "0x0000000000000000000000000000000000000000000000000000000000000000",
            "0x0000000000000000000000004c54f58cdbe8159efb71985e1e5289cbdeced2bd"
          ],
          "data": "0x0000000000000000000000000000000000000000204fce5e3e25026110000000",
          "blockHash": "0xec604e34cb034457bb4128c9e70a5c5e837756cd4dec753bce93e5f4668649df",
          "blockNumber": "0x25c32b5",
          "blockTimestamp": "0x6a23e84b",
          "transactionHash": "0xd3a9bf9377386064ef451ac4f56896e16cd4892635dc7818c28755d514fca943",
          "transactionIndex": "0x2",
          "logIndex": "0x3",
          "removed": false
        }
      ],
      "logsBloom": "0x00000000000000000000000000000000000000000000000000000000000000000000000100000000000000000000000000100000000000000000000000000000000000000000000000000008800000000000000000000000000000000000000000000000020000000000000000000800000000000000000000000010000000000000000000000000000000000000000000000000000000000000000400000000000000000000000000000000000000000000000000000000000000000000000000000002000000000000000000000000000000000000000000000000000020000000000000000000000008000000000000000000000020000000000000000000",
      "type": "0x2",
      "transactionHash": "0xd3a9bf9377386064ef451ac4f56896e16cd4892635dc7818c28755d514fca943",
      "transactionIndex": "0x2",
      "blockHash": "0xec604e34cb034457bb4128c9e70a5c5e837756cd4dec753bce93e5f4668649df",
      "blockNumber": "0x25c32b5",
      "gasUsed": "0xc76f",
      "effectiveGasPrice": "0xba43b7401",
      "blobGasUsed": "0x9c40",
      "from": "0x56a2950dde6b1040d1dcc4b4c4fc314bd56efb0e",
      "to": "0x6956dbbeb8eca1160ae21d2d703cdf6b86525825",
      "contractAddress": null,
      "daFootprintGasScalar": "0x190",
      "l1BaseFeeScalar": "0x2943b",
      "l1BlobBaseFee": "0x30035300",
      "l1BlobBaseFeeScalar": "0x45567c",
      "l1Fee": "0x2adf0315154070",
      "l1GasPrice": "0x312cc45be",
      "l1GasUsed": "0x640",
      "operatorFeeConstant": "0x0",
      "operatorFeeScalar": "0x5f5e100",
      "tokenRatio": "0xbfa"
    },
    {
      "status": "0x1",
      "cumulativeGasUsed": "0x1a7fe",
      "logs": [
        {
          "address": "0xc2226548fb4332dce1e31dc317bcf61effd51375",
          "topics": [
            "0xddf252ad1be2c89b69c2b068fc378daa952ba7f163c4a11628f55a4df523b3ef",
            "0x0000000000000000000000000000000000000000000000000000000000000000",
            "0x0000000000000000000000004c54f58cdbe8159efb71985e1e5289cbdeced2bd"
          ],
          "data": "0x0000000000000000000000000000000000000000204fce5e3e25026110000000",
          "blockHash": "0xa93f5bee35547f98ccddd7fa4d86df2f07e73b999840cc3aee66c9bf101f5216",
          "blockNumber": "0x25c32b7",
          "blockTimestamp": "0x6a23e84f",
          "transactionHash": "0xd69da3469db3f7bd13e67978050629bb0a70027617da605a2118626334771d7d",
          "transactionIndex": "0x1",
          "logIndex": "0x0",
          "removed": false
        }
      ],
      "logsBloom": "0x00000000000000000000000000000000000000000000000000000000000000000000000100000000000000004000000000000000000000000001000000000000000000000000000000000008000000000000000000000000000000000000000000000000020000000000000000000800000000000000000000000010800000000000000000000000000000000000000000000000000000000000000400000000000000000000000000000000000000000000000000000000000000000000000000000002000000000000000000000000000000000000000000000000000020000000000000000000000008000000000000000000000000000000000000000000",
      "type": "0x2",
      "transactionHash": "0xd69da3469db3f7bd13e67978050629bb0a70027617da605a2118626334771d7d",
      "transactionIndex": "0x1",
      "blockHash": "0xa93f5bee35547f98ccddd7fa4d86df2f07e73b999840cc3aee66c9bf101f5216",
      "blockNumber": "0x25c32b7",
      "gasUsed": "0xc76f",
      "effectiveGasPrice": "0xba43b7401",
      "blobGasUsed": "0x9c40",
      "from": "0x56a2950dde6b1040d1dcc4b4c4fc314bd56efb0e",
      "to": "0xc2226548fb4332dce1e31dc317bcf61effd51375",
      "contractAddress": null,
      "daFootprintGasScalar": "0x190",
      "l1BaseFeeScalar": "0x2943b",
      "l1BlobBaseFee": "0x30bc8a92",
      "l1BlobBaseFeeScalar": "0x45567c",
      "l1Fee": "0x29641fa10fc05a",
      "l1GasPrice": "0x2f3a26e85",
      "l1GasUsed": "0x640",
      "operatorFeeConstant": "0x0",
      "operatorFeeScalar": "0x5f5e100",
      "tokenRatio": "0xbfa"
    },
    {
      "status": "0x1",
      "cumulativeGasUsed": "0x17c4a",
      "logs": [
        {
          "address": "0x5dbc3c81dbbb39dd865ec27c66abb48150325df1",
          "topics": [
            "0xddf252ad1be2c89b69c2b068fc378daa952ba7f163c4a11628f55a4df523b3ef",
            "0x0000000000000000000000000000000000000000000000000000000000000000",
            "0x0000000000000000000000004c54f58cdbe8159efb71985e1e5289cbdeced2bd"
          ],
          "data": "0x0000000000000000000000000000000000000000204fce5e3e25026110000000",
          "blockHash": "0xf91c870e73a7a21fc2737c897d6edf2058a6c65e1c3db90fe0547b927818b16b",
          "blockNumber": "0x25c32b9",
          "blockTimestamp": "0x6a23e853",
          "transactionHash": "0xc7298c4d33df19f841534eaa61a2af6db9d7e4dfe6f7402d06e4f8f9409383a2",
          "transactionIndex": "0x1",
          "logIndex": "0x0",
          "removed": false
        }
      ],
      "logsBloom": "0x20000000000000000000000000000000000000000000000000000000000000000000000100000000000000000000800000000000000000000000000000000000000000000000000000000008000000000000000000000000000000000000000000800000020000000000000000000800000000000000000000000010000000000000000000000000000000000000000000000000000000000000000400000000000000000000000000000000000000000000000000000000000000000000000000000002000000000000000000000000000000000000000000000000000020000000000000000000000008000000000000000000000000000000000000000000",
      "type": "0x2",
      "transactionHash": "0xc7298c4d33df19f841534eaa61a2af6db9d7e4dfe6f7402d06e4f8f9409383a2",
      "transactionIndex": "0x1",
      "blockHash": "0xf91c870e73a7a21fc2737c897d6edf2058a6c65e1c3db90fe0547b927818b16b",
      "blockNumber": "0x25c32b9",
      "gasUsed": "0xc76f",
      "effectiveGasPrice": "0xba43b7401",
      "blobGasUsed": "0x9c40",
      "from": "0x56a2950dde6b1040d1dcc4b4c4fc314bd56efb0e",
      "to": "0x5dbc3c81dbbb39dd865ec27c66abb48150325df1",
      "contractAddress": null,
      "daFootprintGasScalar": "0x190",
      "l1BaseFeeScalar": "0x2943b",
      "l1BlobBaseFee": "0x30bc8a92",
      "l1BlobBaseFeeScalar": "0x45567c",
      "l1Fee": "0x29641fa10fc05a",
      "l1GasPrice": "0x2f3a26e85",
      "l1GasUsed": "0x640",
      "operatorFeeConstant": "0x0",
      "operatorFeeScalar": "0x5f5e100",
      "tokenRatio": "0xbfa"
    },
    {
      "status": "0x1",
      "cumulativeGasUsed": "0x17c4a",
      "logs": [
        {
          "address": "0xdd63da0a5ec0a76029dd49c32de7de73d8918e96",
          "topics": [
            "0xddf252ad1be2c89b69c2b068fc378daa952ba7f163c4a11628f55a4df523b3ef",
            "0x0000000000000000000000000000000000000000000000000000000000000000",
            "0x0000000000000000000000004c54f58cdbe8159efb71985e1e5289cbdeced2bd"
          ],
          "data": "0x0000000000000000000000000000000000000000204fce5e3e25026110000000",
          "blockHash": "0x6787dd7f2385a5a7fd137739f2d6d390520c7e34dd104d0c9f202013b218dcfd",
          "blockNumber": "0x25c32bb",
          "blockTimestamp": "0x6a23e857",
          "transactionHash": "0x7b42c95c7e6d86ab952dd8113e48cd4d3370b5ee4ef39c8c983947dd4c854e5a",
          "transactionIndex": "0x1",
          "logIndex": "0x0",
          "removed": false
        }
      ],
      "logsBloom": "0x00000000000000000000000000000000000000000000000000000000000000000000000100000000000000000000000000000000000040000000000000000000000000000000000000000008000000000000000000000000000000000000000000000000020000000000000000000800000000000000000000000010000000000000000000000000000000000000000000000000000000000000000400000000000000000000000000000000000000000000000000000000000000000000000000000002000000000000000000000800000000000000000000000000000020000000000000000000000008000000000000000000000000000000000000100000",
      "type": "0x2",
      "transactionHash": "0x7b42c95c7e6d86ab952dd8113e48cd4d3370b5ee4ef39c8c983947dd4c854e5a",
      "transactionIndex": "0x1",
      "blockHash": "0x6787dd7f2385a5a7fd137739f2d6d390520c7e34dd104d0c9f202013b218dcfd",
      "blockNumber": "0x25c32bb",
      "gasUsed": "0xc76f",
      "effectiveGasPrice": "0xba43b7401",
      "blobGasUsed": "0x9c40",
      "from": "0x56a2950dde6b1040d1dcc4b4c4fc314bd56efb0e",
      "to": "0xdd63da0a5ec0a76029dd49c32de7de73d8918e96",
      "contractAddress": null,
      "daFootprintGasScalar": "0x190",
      "l1BaseFeeScalar": "0x2943b",
      "l1BlobBaseFee": "0x30bc8a92",
      "l1BlobBaseFeeScalar": "0x45567c",
      "l1Fee": "0x29641fa10fc05a",
      "l1GasPrice": "0x2f3a26e85",
      "l1GasUsed": "0x640",
      "operatorFeeConstant": "0x0",
      "operatorFeeScalar": "0x5f5e100",
      "tokenRatio": "0xbfa"
    },
    {
      "status": "0x1",
      "cumulativeGasUsed": "0x17c4a",
      "logs": [
        {
          "address": "0x028ffc7b83ac3ec143bed5a8f14c7e49a356c793",
          "topics": [
            "0xddf252ad1be2c89b69c2b068fc378daa952ba7f163c4a11628f55a4df523b3ef",
            "0x0000000000000000000000000000000000000000000000000000000000000000",
            "0x0000000000000000000000004c54f58cdbe8159efb71985e1e5289cbdeced2bd"
          ],
          "data": "0x0000000000000000000000000000000000000000204fce5e3e25026110000000",
          "blockHash": "0x1384d63dfcc6799b2fb57ceeb74e7c3dce25bb6bb305997af374178e0d1272a8",
          "blockNumber": "0x25c32be",
          "blockTimestamp": "0x6a23e85d",
          "transactionHash": "0xe127da59c9f01129a2e1d6d6b66255f9911c09eede004241d43712384f4037af",
          "transactionIndex": "0x1",
          "logIndex": "0x0",
          "removed": false
        }
      ],
      "logsBloom": "0x00000000000000000000000000000000000000000000000000000040000000000000000100000000000000000000000000000000000000000000000000000040000000000000000000000008000000000000000000000000000000000000000000000000020000000000000000000800000000000000000000000010000000000000000000000000000000000000000000000000000000000000000400000000000000000000000000000000000000000000000000000000000000000000000000000002000000000000000000000000000000000000000000000000000020000000000000001000000008000000000000000000000000000000000000000000",
      "type": "0x2",
      "transactionHash": "0xe127da59c9f01129a2e1d6d6b66255f9911c09eede004241d43712384f4037af",
      "transactionIndex": "0x1",
      "blockHash": "0x1384d63dfcc6799b2fb57ceeb74e7c3dce25bb6bb305997af374178e0d1272a8",
      "blockNumber": "0x25c32be",
      "gasUsed": "0xc76f",
      "effectiveGasPrice": "0xba43b7401",
      "blobGasUsed": "0x9c40",
      "from": "0x56a2950dde6b1040d1dcc4b4c4fc314bd56efb0e",
      "to": "0x028ffc7b83ac3ec143bed5a8f14c7e49a356c793",
      "contractAddress": null,
      "daFootprintGasScalar": "0x190",
      "l1BaseFeeScalar": "0x2943b",
      "l1BlobBaseFee": "0x2b90a2c5",
      "l1BlobBaseFeeScalar": "0x45567c",
      "l1Fee": "0x28bc900dd86944",
      "l1GasPrice": "0x2ef1485b5",
      "l1GasUsed": "0x640",
      "operatorFeeConstant": "0x0",
      "operatorFeeScalar": "0x5f5e100",
      "tokenRatio": "0xbfa"
    },
    {
      "status": "0x1",
      "cumulativeGasUsed": "0x2078e",
      "logs": [
        {
          "address": "0x61d3e9944feff4a17854e408c5ac766a1d9adb63",
          "topics": [
            "0xddf252ad1be2c89b69c2b068fc378daa952ba7f163c4a11628f55a4df523b3ef",
            "0x0000000000000000000000000000000000000000000000000000000000000000",
            "0x0000000000000000000000004c54f58cdbe8159efb71985e1e5289cbdeced2bd"
          ],
          "data": "0x0000000000000000000000000000000000000000204fce5e3e25026110000000",
          "blockHash": "0x65be127dcfcfcf71409ee5f3600b73a2cea15fff065c66abac4e975db28e4736",
          "blockNumber": "0x25c32c1",
          "blockTimestamp": "0x6a23e863",
          "transactionHash": "0x29dda13b9faa9d5c825cde8304fcc936d1ff5d8d1b49f3be5b7a391859e9a24c",
          "transactionIndex": "0x2",
          "logIndex": "0x1",
          "removed": false
        }
      ],
      "logsBloom": "0x00000000000000000000000000000000000000000000000000000020000000000000000100000000000100000000000000000000000000000000000000000000000000000000000000000008000000000000000000000000000000000000000000000000020000000000000000000800000000000000000000000010000000000000000000000000000000000000000000000000000000000000000400000000000000000000000000000000000000000000000000000000000000000000000000000002000000000000000000000000000000000000000000000000000020000000000000008000000008000000000000000000000000000000000000000000",
      "type": "0x2",
      "transactionHash": "0x29dda13b9faa9d5c825cde8304fcc936d1ff5d8d1b49f3be5b7a391859e9a24c",
      "transactionIndex": "0x2",
      "blockHash": "0x65be127dcfcfcf71409ee5f3600b73a2cea15fff065c66abac4e975db28e4736",
      "blockNumber": "0x25c32c1",
      "gasUsed": "0xc76f",
      "effectiveGasPrice": "0xba43b7401",
      "blobGasUsed": "0x9c40",
      "from": "0x56a2950dde6b1040d1dcc4b4c4fc314bd56efb0e",
      "to": "0x61d3e9944feff4a17854e408c5ac766a1d9adb63",
      "contractAddress": null,
      "daFootprintGasScalar": "0x190",
      "l1BaseFeeScalar": "0x2943b",
      "l1BlobBaseFee": "0x2b90a2c5",
      "l1BlobBaseFeeScalar": "0x45567c",
      "l1Fee": "0x28bc900dd86944",
      "l1GasPrice": "0x2ef1485b5",
      "l1GasUsed": "0x640",
      "operatorFeeConstant": "0x0",
      "operatorFeeScalar": "0x5f5e100",
      "tokenRatio": "0xbfa"
    },
    {
      "status": "0x1",
      "cumulativeGasUsed": "0x17c3e",
      "logs": [
        {
          "address": "0x6ceaf0d037e628d8c08e1462f628bde4da633813",
          "topics": [
            "0xddf252ad1be2c89b69c2b068fc378daa952ba7f163c4a11628f55a4df523b3ef",
            "0x0000000000000000000000000000000000000000000000000000000000000000",
            "0x0000000000000000000000004c54f58cdbe8159efb71985e1e5289cbdeced2bd"
          ],
          "data": "0x0000000000000000000000000000000000000000204fce5e3e25026110000000",
          "blockHash": "0xab2f4500049d615e2aecfc17d3f855934eed71c61b268294701adb94249c2219",
          "blockNumber": "0x25c32c4",
          "blockTimestamp": "0x6a23e869",
          "transactionHash": "0x34745d5fc40e0b6f246142636d31df6ea5e3d590d2ba0a569e2004c1add0302b",
          "transactionIndex": "0x1",
          "logIndex": "0x0",
          "removed": false
        }
      ],
      "logsBloom": "0x00000000000000000000000000000100000000000000000000000000000000000000000100000000000000000000000000000000000000000000000000000000000000000000000000000008000000000000000000000000000000000000000000000000020000000000000000000800000000000000000000000010000000000000000000000000000000002000000000000000000000000000000400000000000000000000000000000000000000000000000000000000000000080000000000000002000000000000000000000000000000000000000000000000000020000000000000000000000008000000000000000000000000000000000000000000",
      "type": "0x2",
      "transactionHash": "0x34745d5fc40e0b6f246142636d31df6ea5e3d590d2ba0a569e2004c1add0302b",
      "transactionIndex": "0x1",
      "blockHash": "0xab2f4500049d615e2aecfc17d3f855934eed71c61b268294701adb94249c2219",
      "blockNumber": "0x25c32c4",
      "gasUsed": "0xc76f",
      "effectiveGasPrice": "0xba43b7401",
      "blobGasUsed": "0x9c40",
      "from": "0x56a2950dde6b1040d1dcc4b4c4fc314bd56efb0e",
      "to": "0x6ceaf0d037e628d8c08e1462f628bde4da633813",
      "contractAddress": null,
      "daFootprintGasScalar": "0x190",
      "l1BaseFeeScalar": "0x2943b",
      "l1BlobBaseFee": "0x2c631a74",
      "l1BlobBaseFeeScalar": "0x45567c",
      "l1Fee": "0x2758662df19c2e",
      "l1GasPrice": "0x2d18c145e",
      "l1GasUsed": "0x640",
      "operatorFeeConstant": "0x0",
      "operatorFeeScalar": "0x5f5e100",
      "tokenRatio": "0xbfa"
    },
    {
      "status": "0x1",
      "cumulativeGasUsed": "0x17c3e",
      "logs": [
        {
          "address": "0x56979c925faa2b84637f2991c31fd6b1b33624b0",
          "topics": [
            "0xddf252ad1be2c89b69c2b068fc378daa952ba7f163c4a11628f55a4df523b3ef",
            "0x0000000000000000000000000000000000000000000000000000000000000000",
            "0x0000000000000000000000004c54f58cdbe8159efb71985e1e5289cbdeced2bd"
          ],
          "data": "0x0000000000000000000000000000000000000000204fce5e3e25026110000000",
          "blockHash": "0x95bf924e78e1e4011cf06d333d77a0274f606db9743aa464fe9791b1c31e6cde",
          "blockNumber": "0x25c32c7",
          "blockTimestamp": "0x6a23e86f",
          "transactionHash": "0x0e0b412b49f9dca330ab73116b69f72c0ba654960c9f5cf80785b5952b0f90f9",
          "transactionIndex": "0x1",
          "logIndex": "0x0",
          "removed": false
        }
      ],
      "logsBloom": "0x00000000000000000000000000000000000200000000000000000000000000000000000100000000000000000000000000000000400000000000000000000000000000000000000000000008000000000000000000000000000000000000000000000000020000000000000000000800000000000000000000000010000200000000000000000000000000000000000000000000000000000000000400000000000000000000000000000000000000000000000000000000000000000000000000000002000000000000000000000000000000000000000000000000000020000000000000000000000008000000000000000000000000000000000000000000",
      "type": "0x2",
      "transactionHash": "0x0e0b412b49f9dca330ab73116b69f72c0ba654960c9f5cf80785b5952b0f90f9",
      "transactionIndex": "0x1",
      "blockHash": "0x95bf924e78e1e4011cf06d333d77a0274f606db9743aa464fe9791b1c31e6cde",
      "blockNumber": "0x25c32c7",
      "gasUsed": "0xc76f",
      "effectiveGasPrice": "0xba43b7401",
      "blobGasUsed": "0x9c40",
      "from": "0x56a2950dde6b1040d1dcc4b4c4fc314bd56efb0e",
      "to": "0x56979c925faa2b84637f2991c31fd6b1b33624b0",
      "contractAddress": null,
      "daFootprintGasScalar": "0x190",
      "l1BaseFeeScalar": "0x2943b",
      "l1BlobBaseFee": "0x2c631a74",
      "l1BlobBaseFeeScalar": "0x45567c",
      "l1Fee": "0x2758662df19c2e",
      "l1GasPrice": "0x2d18c145e",
      "l1GasUsed": "0x640",
      "operatorFeeConstant": "0x0",
      "operatorFeeScalar": "0x5f5e100",
      "tokenRatio": "0xbfa"
    },
    {
      "status": "0x1",
      "cumulativeGasUsed": "0x1a7fe",
      "logs": [
        {
          "address": "0x9e2dbb4930607e58401c3f55cbe2e0819a8a0523",
          "topics": [
            "0xddf252ad1be2c89b69c2b068fc378daa952ba7f163c4a11628f55a4df523b3ef",
            "0x0000000000000000000000000000000000000000000000000000000000000000",
            "0x0000000000000000000000004c54f58cdbe8159efb71985e1e5289cbdeced2bd"
          ],
          "data": "0x0000000000000000000000000000000000000000204fce5e3e25026110000000",
          "blockHash": "0x7d45278ec1856c0a2cb5ec0ce55f9ee5586c6b80f0e72efb6795179290115292",
          "blockNumber": "0x25c32c9",
          "blockTimestamp": "0x6a23e873",
          "transactionHash": "0xfdf487d93e2e6190544d13e9accee1e1562703b2147cc1a4c494b7f911702e81",
          "transactionIndex": "0x1",
          "logIndex": "0x0",
          "removed": false
        }
      ],
      "logsBloom": "0x00000000000000000000000000000000000000000000000000010000000000000000000100000000000000000000000000000000000000000000000000000000000000000000000000000008000000000000000000000000000000000000000000000000020000000000000000000800000000000000000000000010000000000000000000000000000000000000000000000000000000000000000400000000000000000000000000000000000000000000000000000000000000000000000000020002000000000000000000000000000000000000000000080000000020000000000000000000000008000000000000000000000000000000000000000000",
      "type": "0x2",
      "transactionHash": "0xfdf487d93e2e6190544d13e9accee1e1562703b2147cc1a4c494b7f911702e81",
      "transactionIndex": "0x1",
      "blockHash": "0x7d45278ec1856c0a2cb5ec0ce55f9ee5586c6b80f0e72efb6795179290115292",
      "blockNumber": "0x25c32c9",
      "gasUsed": "0xc76f",
      "effectiveGasPrice": "0xba43b7401",
      "blobGasUsed": "0x9c40",
      "from": "0x56a2950dde6b1040d1dcc4b4c4fc314bd56efb0e",
      "to": "0x9e2dbb4930607e58401c3f55cbe2e0819a8a0523",
      "contractAddress": null,
      "daFootprintGasScalar": "0x190",
      "l1BaseFeeScalar": "0x2943b",
      "l1BlobBaseFee": "0x2d907276",
      "l1BlobBaseFeeScalar": "0x45567c",
      "l1Fee": "0x275e72fcfa4a1a",
      "l1GasPrice": "0x2d00c244e",
      "l1GasUsed": "0x640",
      "operatorFeeConstant": "0x0",
      "operatorFeeScalar": "0x5f5e100",
      "tokenRatio": "0xbfa"
    },
    {
      "status": "0x1",
      "cumulativeGasUsed": "0x17c4a",
      "logs": [
        {
          "address": "0xd568d045d34dca3f4f24be8099a8b90779047b6a",
          "topics": [
            "0xddf252ad1be2c89b69c2b068fc378daa952ba7f163c4a11628f55a4df523b3ef",
            "0x0000000000000000000000000000000000000000000000000000000000000000",
            "0x0000000000000000000000004c54f58cdbe8159efb71985e1e5289cbdeced2bd"
          ],
          "data": "0x0000000000000000000000000000000000000000204fce5e3e25026110000000",
          "blockHash": "0x3e73bb4ac59fff0abc1cb46c66c92f22064d231ed481d5236b6a877d280383ec",
          "blockNumber": "0x25c32cb",
          "blockTimestamp": "0x6a23e877",
          "transactionHash": "0x101d5c8f7c5540937db625924217479f3261d28eda616462494098564455e694",
          "transactionIndex": "0x1",
          "logIndex": "0x0",
          "removed": false
        }
      ],
      "logsBloom": "0x00000000000000000000000000000000000000000000000000000000000000000100001100000000000000000000000000000000000000000000000000000000000000000000000000000008000000000000000000000000000000000000000000000000020000000000000000000800000000000000000000000010000000000000000000000000000000000000000000000000000000000000000400000000000000000000000000000000000000000000000000000000000000000000000000000002000000000000000000000000000000000000000000000000000020000000000000000000000008000000000000000002000000000000000000000000",
      "type": "0x2",
      "transactionHash": "0x101d5c8f7c5540937db625924217479f3261d28eda616462494098564455e694",
      "transactionIndex": "0x1",
      "blockHash": "0x3e73bb4ac59fff0abc1cb46c66c92f22064d231ed481d5236b6a877d280383ec",
      "blockNumber": "0x25c32cb",
      "gasUsed": "0xc76f",
      "effectiveGasPrice": "0xba43b7401",
      "blobGasUsed": "0x9c40",
      "from": "0x56a2950dde6b1040d1dcc4b4c4fc314bd56efb0e",
      "to": "0xd568d045d34dca3f4f24be8099a8b90779047b6a",
      "contractAddress": null,
      "daFootprintGasScalar": "0x190",
      "l1BaseFeeScalar": "0x2943b",
      "l1BlobBaseFee": "0x2d907276",
      "l1BlobBaseFeeScalar": "0x45567c",
      "l1Fee": "0x275e72fcfa4a1a",
      "l1GasPrice": "0x2d00c244e",
      "l1GasUsed": "0x640",
      "operatorFeeConstant": "0x0",
      "operatorFeeScalar": "0x5f5e100",
      "tokenRatio": "0xbfa"
    },
    {
      "status": "0x1",
      "cumulativeGasUsed": "0x17c4a",
      "logs": [
        {
          "address": "0x781dfd2a2e6b2fb23e10a4b36691520e4bc36e2a",
          "topics": [
            "0xddf252ad1be2c89b69c2b068fc378daa952ba7f163c4a11628f55a4df523b3ef",
            "0x0000000000000000000000000000000000000000000000000000000000000000",
            "0x0000000000000000000000004c54f58cdbe8159efb71985e1e5289cbdeced2bd"
          ],
          "data": "0x0000000000000000000000000000000000000000204fce5e3e25026110000000",
          "blockHash": "0x0942a0d83a59553af1d11b1efc254ae873cce0d8e312e93aaf98046ce1638745",
          "blockNumber": "0x25c32cd",
          "blockTimestamp": "0x6a23e87b",
          "transactionHash": "0xb639bbaacb135baebfb231d97ccebac2baf9087357d34d71b9a408d1af33ce86",
          "transactionIndex": "0x1",
          "logIndex": "0x0",
          "removed": false
        }
      ],
      "logsBloom": "0x00000000000000000000000000000000000000000000000000000000000000000000000100000000000000000000000000000000000000000000000000000000000000000000000000000008000000000000040000000000000000000000000000000000020000000000000000000800000000000000000000000010000000000000000000000000000000020000000000000000000000000000000400000000000000000000000000000000000000000000000000000000000000000000000000000002000000000000000000000000000000000000000000000000000020000000000000000000000008000000000000000001000000000000000000000000",
      "type": "0x2",
      "transactionHash": "0xb639bbaacb135baebfb231d97ccebac2baf9087357d34d71b9a408d1af33ce86",
      "transactionIndex": "0x1",
      "blockHash": "0x0942a0d83a59553af1d11b1efc254ae873cce0d8e312e93aaf98046ce1638745",
      "blockNumber": "0x25c32cd",
      "gasUsed": "0xc76f",
      "effectiveGasPrice": "0xba43b7401",
      "blobGasUsed": "0x9c40",
      "from": "0x56a2950dde6b1040d1dcc4b4c4fc314bd56efb0e",
      "to": "0x781dfd2a2e6b2fb23e10a4b36691520e4bc36e2a",
      "contractAddress": null,
      "daFootprintGasScalar": "0x190",
      "l1BaseFeeScalar": "0x2943b",
      "l1BlobBaseFee": "0x2d907276",
      "l1BlobBaseFeeScalar": "0x45567c",
      "l1Fee": "0x275e72fcfa4a1a",
      "l1GasPrice": "0x2d00c244e",
      "l1GasUsed": "0x640",
      "operatorFeeConstant": "0x0",
      "operatorFeeScalar": "0x5f5e100",
      "tokenRatio": "0xbfa"
    },
    {
      "status": "0x1",
      "cumulativeGasUsed": "0x1a7f2",
      "logs": [
        {
          "address": "0x2cbc4431d40121faa5b5a6d15240285761128f5a",
          "topics": [
            "0xddf252ad1be2c89b69c2b068fc378daa952ba7f163c4a11628f55a4df523b3ef",
            "0x0000000000000000000000000000000000000000000000000000000000000000",
            "0x0000000000000000000000004c54f58cdbe8159efb71985e1e5289cbdeced2bd"
          ],
          "data": "0x0000000000000000000000000000000000000000204fce5e3e25026110000000",
          "blockHash": "0x9d0fdc2ed67408d815025eab09bfe08b6b12a49832b5c4e6a9cfe2353b62281d",
          "blockNumber": "0x25c32cf",
          "blockTimestamp": "0x6a23e87f",
          "transactionHash": "0xe95f15a76e47373ac9177a050ff1440af741dffb805a7d0a875b49e9e5cb6ec7",
          "transactionIndex": "0x1",
          "logIndex": "0x0",
          "removed": false
        }
      ],
      "logsBloom": "0x00000000000000000000000000000000000000000000000000000000000000200000000100000000000000000000000000000000000000000000000000000000000000000000000000000008000000000000000000000000000000000000000000000000020000000000000000000800000000000000000000000010000000000000000000000000000000000000000000000000000000000000000400000000000000000000000000000000000000000000000000000000000000000000000000000002000000000000000000000000080000000004000000000000000020000000000000000000000008000000000000000000000000000000000000000000",
      "type": "0x2",
      "transactionHash": "0xe95f15a76e47373ac9177a050ff1440af741dffb805a7d0a875b49e9e5cb6ec7",
      "transactionIndex": "0x1",
      "blockHash": "0x9d0fdc2ed67408d815025eab09bfe08b6b12a49832b5c4e6a9cfe2353b62281d",
      "blockNumber": "0x25c32cf",
      "gasUsed": "0xc76f",
      "effectiveGasPrice": "0xba43b7401",
      "blobGasUsed": "0x9c40",
      "from": "0x56a2950dde6b1040d1dcc4b4c4fc314bd56efb0e",
      "to": "0x2cbc4431d40121faa5b5a6d15240285761128f5a",
      "contractAddress": null,
      "daFootprintGasScalar": "0x190",
      "l1BaseFeeScalar": "0x2943b",
      "l1BlobBaseFee": "0x2761ab72",
      "l1BlobBaseFeeScalar": "0x45567c",
      "l1Fee": "0x27e2e3f35e7004",
      "l1GasPrice": "0x2e4e79ca2",
      "l1GasUsed": "0x640",
      "operatorFeeConstant": "0x0",
      "operatorFeeScalar": "0x5f5e100",
      "tokenRatio": "0xbfa"
    },
    {
      "status": "0x1",
      "cumulativeGasUsed": "0x17c3e",
      "logs": [
        {
          "address": "0x37e11a01f58f973098bef434a34e7fc3be4e3041",
          "topics": [
            "0xddf252ad1be2c89b69c2b068fc378daa952ba7f163c4a11628f55a4df523b3ef",
            "0x0000000000000000000000000000000000000000000000000000000000000000",
            "0x0000000000000000000000004c54f58cdbe8159efb71985e1e5289cbdeced2bd"
          ],
          "data": "0x0000000000000000000000000000000000000000204fce5e3e25026110000000",
          "blockHash": "0xb6283fc4579d48b85abfbfbf315416827d544899b7a4d22ab0ebe95dca5af373",
          "blockNumber": "0x25c32d1",
          "blockTimestamp": "0x6a23e883",
          "transactionHash": "0x33222388679dfdf790dc6caaf9aa60b7073f1864b053f3f55706694df9061744",
          "transactionIndex": "0x1",
          "logIndex": "0x0",
          "removed": false
        }
      ],
      "logsBloom": "0x00000000000000000000000000000000000000000000000000000000000000000000000100000000000000000000000000000000000020000000000000000000000000000000000000000008000000000000000000000000000000000000000000000000020000000000000000000800000000000000000000000010000000000000000000000000000000000000000000000000000000000000000400000000000100000000000000000000000000000000000000000000000000000000000000000002000000000000000000000000000000000000000000000000000020000000000000000000000008000000000010000000000000000000000000000000",
      "type": "0x2",
      "transactionHash": "0x33222388679dfdf790dc6caaf9aa60b7073f1864b053f3f55706694df9061744",
      "transactionIndex": "0x1",
      "blockHash": "0xb6283fc4579d48b85abfbfbf315416827d544899b7a4d22ab0ebe95dca5af373",
      "blockNumber": "0x25c32d1",
      "gasUsed": "0xc76f",
      "effectiveGasPrice": "0xba43b7401",
      "blobGasUsed": "0x9c40",
      "from": "0x56a2950dde6b1040d1dcc4b4c4fc314bd56efb0e",
      "to": "0x37e11a01f58f973098bef434a34e7fc3be4e3041",
      "contractAddress": null,
      "daFootprintGasScalar": "0x190",
      "l1BaseFeeScalar": "0x2943b",
      "l1BlobBaseFee": "0x2761ab72",
      "l1BlobBaseFeeScalar": "0x45567c",
      "l1Fee": "0x27e2e3f35e7004",
      "l1GasPrice": "0x2e4e79ca2",
      "l1GasUsed": "0x640",
      "operatorFeeConstant": "0x0",
      "operatorFeeScalar": "0x5f5e100",
      "tokenRatio": "0xbfa"
    },
    {
      "status": "0x1",
      "cumulativeGasUsed": "0x17c3e",
      "logs": [
        {
          "address": "0x718c268093b11bea78a9b84861b2e4e96e86c33b",
          "topics": [
            "0xddf252ad1be2c89b69c2b068fc378daa952ba7f163c4a11628f55a4df523b3ef",
            "0x0000000000000000000000000000000000000000000000000000000000000000",
            "0x0000000000000000000000004c54f58cdbe8159efb71985e1e5289cbdeced2bd"
          ],
          "data": "0x0000000000000000000000000000000000000000204fce5e3e25026110000000",
          "blockHash": "0x976a28277453dfedca0858eb14f1ee57837d45495e24749223db4a7cd48a532e",
          "blockNumber": "0x25c32d3",
          "blockTimestamp": "0x6a23e887",
          "transactionHash": "0x5087569ec2c2bc932b19504b71608e0795d34dbada0804f2414529fefae57e43",
          "transactionIndex": "0x1",
          "logIndex": "0x0",
          "removed": false
        }
      ],
      "logsBloom": "0x00000000000000000000000000000000000000000000000000000000000000000000000100000000000000000000000000000000000000000000000000000000001000000000000000000008000000000000000000000000000000000000000000000000020000000000000000000800000000200000000000000010000000000000000000000000000000000000000000000000000000000000000400000000000000000000000000000000000000000000000000000000000000000000000000000002000000000000000000000000000000000000000000000000000020000000000000000000000008000000000000100000000000000000000000000000",
      "type": "0x2",
      "transactionHash": "0x5087569ec2c2bc932b19504b71608e0795d34dbada0804f2414529fefae57e43",
      "transactionIndex": "0x1",
      "blockHash": "0x976a28277453dfedca0858eb14f1ee57837d45495e24749223db4a7cd48a532e",
      "blockNumber": "0x25c32d3",
      "gasUsed": "0xc76f",
      "effectiveGasPrice": "0xba43b7401",
      "blobGasUsed": "0x9c40",
      "from": "0x56a2950dde6b1040d1dcc4b4c4fc314bd56efb0e",
      "to": "0x718c268093b11bea78a9b84861b2e4e96e86c33b",
      "contractAddress": null,
      "daFootprintGasScalar": "0x190",
      "l1BaseFeeScalar": "0x2943b",
      "l1BlobBaseFee": "0x2761ab72",
      "l1BlobBaseFeeScalar": "0x45567c",
      "l1Fee": "0x27e2e3f35e7004",
      "l1GasPrice": "0x2e4e79ca2",
      "l1GasUsed": "0x640",
      "operatorFeeConstant": "0x0",
      "operatorFeeScalar": "0x5f5e100",
      "tokenRatio": "0xbfa"
    },
    {
      "status": "0x1",
      "cumulativeGasUsed": "0x2078e",
      "logs": [
        {
          "address": "0x42feae1f60b23feb1f5c501977af161116fe3e99",
          "topics": [
            "0xddf252ad1be2c89b69c2b068fc378daa952ba7f163c4a11628f55a4df523b3ef",
            "0x0000000000000000000000000000000000000000000000000000000000000000",
            "0x0000000000000000000000004c54f58cdbe8159efb71985e1e5289cbdeced2bd"
          ],
          "data": "0x0000000000000000000000000000000000000000204fce5e3e25026110000000",
          "blockHash": "0x642e3bbaebe397086c008562f28169c071a565583ca4d13a0271f9de1846e092",
          "blockNumber": "0x25c32d6",
          "blockTimestamp": "0x6a23e88d",
          "transactionHash": "0xf193c19ac24b0bfbb731861ef62346face8b07aa2d3eda870586aadf3918131e",
          "transactionIndex": "0x2",
          "logIndex": "0x1",
          "removed": false
        }
      ],
      "logsBloom": "0x00000000000000000000000000000000000000000000000000000000000000000000000100000000000000000000000000000000000000000000000000000000000000000000000000000008000000000000000000000200000000000000000000000000020000000000000000000800000000000000000000000010000000000000000000000000000000000000000000000000000000000000000400000000000000000000000000000000000000000000000000000000000000000040000000000002000000000000000000000000000000000000000000000000000020000000000000000000000008000000000000000800000000000000000000000000",
      "type": "0x2",
      "transactionHash": "0xf193c19ac24b0bfbb731861ef62346face8b07aa2d3eda870586aadf3918131e",
      "transactionIndex": "0x2",
      "blockHash": "0x642e3bbaebe397086c008562f28169c071a565583ca4d13a0271f9de1846e092",
      "blockNumber": "0x25c32d6",
      "gasUsed": "0xc76f",
      "effectiveGasPrice": "0xba43b7401",
      "blobGasUsed": "0x9c40",
      "from": "0x56a2950dde6b1040d1dcc4b4c4fc314bd56efb0e",
      "to": "0x42feae1f60b23feb1f5c501977af161116fe3e99",
      "contractAddress": null,
      "daFootprintGasScalar": "0x190",
      "l1BaseFeeScalar": "0x2943b",
      "l1BlobBaseFee": "0x27f996f3",
      "l1BlobBaseFeeScalar": "0x45567c",
      "l1Fee": "0x27215bcc45338c",
      "l1GasPrice": "0x2d49c5176",
      "l1GasUsed": "0x640",
      "operatorFeeConstant": "0x0",
      "operatorFeeScalar": "0x5f5e100",
      "tokenRatio": "0xbfa"
    },
    {
      "status": "0x1",
      "cumulativeGasUsed": "0x2078e",
      "logs": [
        {
          "address": "0x039263c8b98f62f7e2debcd277ef3f1f2baf9dce",
          "topics": [
            "0xddf252ad1be2c89b69c2b068fc378daa952ba7f163c4a11628f55a4df523b3ef",
            "0x0000000000000000000000000000000000000000000000000000000000000000",
            "0x0000000000000000000000004c54f58cdbe8159efb71985e1e5289cbdeced2bd"
          ],
          "data": "0x0000000000000000000000000000000000000000204fce5e3e25026110000000",
          "blockHash": "0x934f6bd0c9171bba59510d226fa3e6669ae2b45d6cddf91e5a2d4772c8a8b5f0",
          "blockNumber": "0x25c32d9",
          "blockTimestamp": "0x6a23e893",
          "transactionHash": "0x7c8690649f4ae7cd570651c9075ea3f621d41f7418ca4f701b10e2c0da6fd8c4",
          "transactionIndex": "0x2",
          "logIndex": "0x1",
          "removed": false
        }
      ],
      "logsBloom": "0x00000000000000000000000000000000000000000000000000000000000000000000000100000000000004000000000000000000000000000000000000000000000000000000000000000008000000000000000000000000000000000000000000000000020000000000000000000800000000000000000000000010000000000000000000000000000000000000000000000000000000000000000400000000008000000000000000000000000000000000000000000000000000000000000000000002000000000000000000000000000000000000000000000000000020000000000000040000000008000000000000000000000000000000000000000000",
      "type": "0x2",
      "transactionHash": "0x7c8690649f4ae7cd570651c9075ea3f621d41f7418ca4f701b10e2c0da6fd8c4",
      "transactionIndex": "0x2",
      "blockHash": "0x934f6bd0c9171bba59510d226fa3e6669ae2b45d6cddf91e5a2d4772c8a8b5f0",
      "blockNumber": "0x25c32d9",
      "gasUsed": "0xc76f",
      "effectiveGasPrice": "0xba43b7401",
      "blobGasUsed": "0x9c40",
      "from": "0x56a2950dde6b1040d1dcc4b4c4fc314bd56efb0e",
      "to": "0x039263c8b98f62f7e2debcd277ef3f1f2baf9dce",
      "contractAddress": null,
      "daFootprintGasScalar": "0x190",
      "l1BaseFeeScalar": "0x2943b",
      "l1BlobBaseFee": "0x27f996f3",
      "l1BlobBaseFeeScalar": "0x45567c",
      "l1Fee": "0x27215bcc45338c",
      "l1GasPrice": "0x2d49c5176",
      "l1GasUsed": "0x640",
      "operatorFeeConstant": "0x0",
      "operatorFeeScalar": "0x5f5e100",
      "tokenRatio": "0xbfa"
    },
    {
      "status": "0x1",
      "cumulativeGasUsed": "0x17c4a",
      "logs": [
        {
          "address": "0x58061565f6f2b5c8322ee3fa2dcd6497d72e5b20",
          "topics": [
            "0xddf252ad1be2c89b69c2b068fc378daa952ba7f163c4a11628f55a4df523b3ef",
            "0x0000000000000000000000000000000000000000000000000000000000000000",
            "0x0000000000000000000000004c54f58cdbe8159efb71985e1e5289cbdeced2bd"
          ],
          "data": "0x0000000000000000000000000000000000000000204fce5e3e25026110000000",
          "blockHash": "0x3690ac2c2a3d77fda10d1d7a0617bf3001d6926059976e5ac154097f906d70f0",
          "blockNumber": "0x25c32dc",
          "blockTimestamp": "0x6a23e899",
          "transactionHash": "0x915b18bf9057549b17ea8712afcbb46808e822d6d74a1274e02b996e7344ffa3",
          "transactionIndex": "0x1",
          "logIndex": "0x0",
          "removed": false
        }
      ],
      "logsBloom": "0x00000000000000000001000000000000000000000000000000000000000000000000000100000000000000000000000000000000000000000000000000000000000000000000000000000008000000000000000000000000000000000000000000000000020000100000000000000800000000000000000000000010000000002000000000000000000000000000000000000000000000000000000400000000000000000000000000000000000000000000000000000000000000000000000000000002000000000000000000000000000000000000000000000000000020000000000000000000000008000000000000000000000000000000000000000000",
      "type": "0x2",
      "transactionHash": "0x915b18bf9057549b17ea8712afcbb46808e822d6d74a1274e02b996e7344ffa3",
      "transactionIndex": "0x1",
      "blockHash": "0x3690ac2c2a3d77fda10d1d7a0617bf3001d6926059976e5ac154097f906d70f0",
      "blockNumber": "0x25c32dc",
      "gasUsed": "0xc76f",
      "effectiveGasPrice": "0xba43b7401",
      "blobGasUsed": "0x9c40",
      "from": "0x56a2950dde6b1040d1dcc4b4c4fc314bd56efb0e",
      "to": "0x58061565f6f2b5c8322ee3fa2dcd6497d72e5b20",
      "contractAddress": null,
      "daFootprintGasScalar": "0x190",
      "l1BaseFeeScalar": "0x2943b",
      "l1BlobBaseFee": "0x286d07cf",
      "l1BlobBaseFeeScalar": "0x45567c",
      "l1Fee": "0x26081a1d7371f4",
      "l1GasPrice": "0x2bd9f41a8",
      "l1GasUsed": "0x640",
      "operatorFeeConstant": "0x0",
      "operatorFeeScalar": "0x5f5e100",
      "tokenRatio": "0xbfa"
    }
  ],
  "libraries": [],
  "pending": [],
  "returns": {},
  "timestamp": 1780738201063,
  "chain": 5003,
  "commit": "948124a"
}