{
  "transactions": [
    {
      "hash": "0xb4c0ea2e72c6da568f48a38ef4647c72759a53a1f1d796d3b9b448c1406a082d",
      "transactionType": "CALL",
      "contractName": null,
      "contractAddress": "0x29faf6cafa4bea1dc7c232f0a1818d4da6b724dd",
      "function": "mint(address,uint256)",
      "arguments": [
        "0xB5f72a0ab0bA971c8C4F69D4A075cB7fd7859e65",
        "10000000000000000"
      ],
      "transaction": {
        "from": "0x56a2950dde6b1040d1dcc4b4c4fc314bd56efb0e",
        "to": "0x29faf6cafa4bea1dc7c232f0a1818d4da6b724dd",
        "gas": "0xae00",
        "value": "0x0",
        "input": "0x40c10f19000000000000000000000000b5f72a0ab0ba971c8c4f69d4a075cb7fd7859e65000000000000000000000000000000000000000000000000002386f26fc10000",
        "nonce": "0xac",
        "chainId": "0x138b"
      },
      "additionalContracts": [],
      "isFixedGasLimit": false
    },
    {
      "hash": "0x947f57f80b8d046f8b4522d9df310f5ca5c7c185bcf0c552c120cc22f5244d83",
      "transactionType": "CALL",
      "contractName": null,
      "contractAddress": "0xada0466303441102cb16f8ec1594c744d603f746",
      "function": "mint(address,uint256)",
      "arguments": [
        "0xB5f72a0ab0bA971c8C4F69D4A075cB7fd7859e65",
        "10000000000000000000000000000"
      ],
      "transaction": {
        "from": "0x56a2950dde6b1040d1dcc4b4c4fc314bd56efb0e",
        "to": "0xada0466303441102cb16f8ec1594c744d603f746",
        "gas": "0xae3e",
        "value": "0x0",
        "input": "0x40c10f19000000000000000000000000b5f72a0ab0ba971c8c4f69d4a075cb7fd7859e650000000000000000000000000000000000000000204fce5e3e25026110000000",
        "nonce": "0xad",
        "chainId": "0x138b"
      },
      "additionalContracts": [],
      "isFixedGasLimit": false
    },
    {
      "hash": "0xb1511a63ea75cbe248e060614cdefbfc6ae980a4cb6cbce17743ad87f7e051aa",
      "transactionType": "CALL",
      "contractName": null,
      "contractAddress": "0x0d7766158f14ad7bb82d9fd8a47734e801e3f5b8",
      "function": "mint(address,uint256)",
      "arguments": [
        "0xB5f72a0ab0bA971c8C4F69D4A075cB7fd7859e65",
        "10000000000000000000000000000"
      ],
      "transaction": {
        "from": "0x56a2950dde6b1040d1dcc4b4c4fc314bd56efb0e",
        "to": "0x0d7766158f14ad7bb82d9fd8a47734e801e3f5b8",
        "gas": "0xae3e",
        "value": "0x0",
        "input": "0x40c10f19000000000000000000000000b5f72a0ab0ba971c8c4f69d4a075cb7fd7859e650000000000000000000000000000000000000000204fce5e3e25026110000000",
        "nonce": "0xae",
        "chainId": "0x138b"
      },
      "additionalContracts": [],
      "isFixedGasLimit": false
    },
    {
      "hash": "0xb2337c904bf8ce7edce9241767dc58dbc622cc79f47fb3723931a919164403b6",
      "transactionType": "CALL",
      "contractName": null,
      "contractAddress": "0xd89395df78aafdf86b330899d1c6189211e88750",
      "function": "mint(address,uint256)",
      "arguments": [
        "0xB5f72a0ab0bA971c8C4F69D4A075cB7fd7859e65",
        "10000000000000000000000000000"
      ],
      "transaction": {
        "from": "0x56a2950dde6b1040d1dcc4b4c4fc314bd56efb0e",
        "to": "0xd89395df78aafdf86b330899d1c6189211e88750",
        "gas": "0xae3e",
        "value": "0x0",
        "input": "0x40c10f19000000000000000000000000b5f72a0ab0ba971c8c4f69d4a075cb7fd7859e650000000000000000000000000000000000000000204fce5e3e25026110000000",
        "nonce": "0xaf",
        "chainId": "0x138b"
      },
      "additionalContracts": [],
      "isFixedGasLimit": false
    },
    {
      "hash": "0xe1bf554debd4ef38059cc09718c466682f3c46c5ca0c5ecfcba72056157e3fba",
      "transactionType": "CALL",
      "contractName": null,
      "contractAddress": "0xb6f57152bc6ac9cdc7862f8dae0aac17f6f5d8ff",
      "function": "mint(address,uint256)",
      "arguments": [
        "0xB5f72a0ab0bA971c8C4F69D4A075cB7fd7859e65",
        "10000000000000000000000000000"
      ],
      "transaction": {
        "from": "0x56a2950dde6b1040d1dcc4b4c4fc314bd56efb0e",
        "to": "0xb6f57152bc6ac9cdc7862f8dae0aac17f6f5d8ff",
        "gas": "0xae3e",
        "value": "0x0",
        "input": "0x40c10f19000000000000000000000000b5f72a0ab0ba971c8c4f69d4a075cb7fd7859e650000000000000000000000000000000000000000204fce5e3e25026110000000",
        "nonce": "0xb0",
        "chainId": "0x138b"
      },
      "additionalContracts": [],
      "isFixedGasLimit": false
    },
    {
      "hash": "0x9ded478db64a7244b90777345df09789e24cace8fda412f1d4fc64dab41c193c",
      "transactionType": "CALL",
      "contractName": null,
      "contractAddress": "0xf76da0ec605cfac82f1da86080da21316c07d130",
      "function": "mint(address,uint256)",
      "arguments": [
        "0xB5f72a0ab0bA971c8C4F69D4A075cB7fd7859e65",
        "10000000000000000000000000000"
      ],
      "transaction": {
        "from": "0x56a2950dde6b1040d1dcc4b4c4fc314bd56efb0e",
        "to": "0xf76da0ec605cfac82f1da86080da21316c07d130",
        "gas": "0xae3e",
        "value": "0x0",
        "input": "0x40c10f19000000000000000000000000b5f72a0ab0ba971c8c4f69d4a075cb7fd7859e650000000000000000000000000000000000000000204fce5e3e25026110000000",
        "nonce": "0xb1",
        "chainId": "0x138b"
      },
      "additionalContracts": [],
      "isFixedGasLimit": false
    },
    {
      "hash": "0x1be9ed16f72ed0b43fe6770d6a819669553fb855ba8a52a63456b5cc5a7a6248",
      "transactionType": "CALL",
      "contractName": null,
      "contractAddress": "0x61a4ac2678048ed431e362c14d2ec7a0b3191966",
      "function": "mint(address,uint256)",
      "arguments": [
        "0xB5f72a0ab0bA971c8C4F69D4A075cB7fd7859e65",
        "10000000000000000000000000000"
      ],
      "transaction": {
        "from": "0x56a2950dde6b1040d1dcc4b4c4fc314bd56efb0e",
        "to": "0x61a4ac2678048ed431e362c14d2ec7a0b3191966",
        "gas": "0xae82",
        "value": "0x0",
        "input": "0x40c10f19000000000000000000000000b5f72a0ab0ba971c8c4f69d4a075cb7fd7859e650000000000000000000000000000000000000000204fce5e3e25026110000000",
        "nonce": "0xb2",
        "chainId": "0x138b"
      },
      "additionalContracts": [],
      "isFixedGasLimit": false
    },
    {
      "hash": "0x43eceeceb590c9d5bb3bca0e413f350c1b43de6fe738de95658db9bbdc3df540",
      "transactionType": "CALL",
      "contractName": "MockCETES",
      "contractAddress": "0x1054424a70dae9098babec332e18a0f07d37d251",
      "function": "mint(address,uint256)",
      "arguments": [
        "0xB5f72a0ab0bA971c8C4F69D4A075cB7fd7859e65",
        "10000000000000000000000000000"
      ],
      "transaction": {
        "from": "0x56a2950dde6b1040d1dcc4b4c4fc314bd56efb0e",
        "to": "0x1054424a70dae9098babec332e18a0f07d37d251",
        "gas": "0xae3e",
        "value": "0x0",
        "input": "0x40c10f19000000000000000000000000b5f72a0ab0ba971c8c4f69d4a075cb7fd7859e650000000000000000000000000000000000000000204fce5e3e25026110000000",
        "nonce": "0xb3",
        "chainId": "0x138b"
      },
      "additionalContracts": [],
      "isFixedGasLimit": false
    },
    {
      "hash": "0xa3ad8c2aede3916e4b088bf8bb2c1443c3abc7f08fdf7b6be2822c16443af2b2",
      "transactionType": "CALL",
      "contractName": "MockGILTS",
      "contractAddress": "0xbea967ace62d23d335ddad03972659509e1c3559",
      "function": "mint(address,uint256)",
      "arguments": [
        "0xB5f72a0ab0bA971c8C4F69D4A075cB7fd7859e65",
        "10000000000000000000000000000"
      ],
      "transaction": {
        "from": "0x56a2950dde6b1040d1dcc4b4c4fc314bd56efb0e",
        "to": "0xbea967ace62d23d335ddad03972659509e1c3559",
        "gas": "0xae3e",
        "value": "0x0",
        "input": "0x40c10f19000000000000000000000000b5f72a0ab0ba971c8c4f69d4a075cb7fd7859e650000000000000000000000000000000000000000204fce5e3e25026110000000",
        "nonce": "0xb4",
        "chainId": "0x138b"
      },
      "additionalContracts": [],
      "isFixedGasLimit": false
    },
    {
      "hash": "0xcd11ab16547bd996694f6c30a58ed90b0b37a7561cf9df30f9f5c33df77b96b2",
      "transactionType": "CALL",
      "contractName": null,
      "contractAddress": "0x10d9eb91d0a69098431fb833e666bd64455d45f3",
      "function": "mint(address,uint256)",
      "arguments": [
        "0xB5f72a0ab0bA971c8C4F69D4A075cB7fd7859e65",
        "10000000000000000000000000000"
      ],
      "transaction": {
        "from": "0x56a2950dde6b1040d1dcc4b4c4fc314bd56efb0e",
        "to": "0x10d9eb91d0a69098431fb833e666bd64455d45f3",
        "gas": "0xae3e",
        "value": "0x0",
        "input": "0x40c10f19000000000000000000000000b5f72a0ab0ba971c8c4f69d4a075cb7fd7859e650000000000000000000000000000000000000000204fce5e3e25026110000000",
        "nonce": "0xb5",
        "chainId": "0x138b"
      },
      "additionalContracts": [],
      "isFixedGasLimit": false
    },
    {
      "hash": "0x7f32da41ca373b323430accfa91f5b161f3c4e2863c83b13ecf2b57960a77f54",
      "transactionType": "CALL",
      "contractName": null,
      "contractAddress": "0xfda1e869846776e3c182f5e105640ac48d474605",
      "function": "mint(address,uint256)",
      "arguments": [
        "0xB5f72a0ab0bA971c8C4F69D4A075cB7fd7859e65",
        "10000000000000000000000000000"
      ],
      "transaction": {
        "from": "0x56a2950dde6b1040d1dcc4b4c4fc314bd56efb0e",
        "to": "0xfda1e869846776e3c182f5e105640ac48d474605",
        "gas": "0xae3e",
        "value": "0x0",
        "input": "0x40c10f19000000000000000000000000b5f72a0ab0ba971c8c4f69d4a075cb7fd7859e650000000000000000000000000000000000000000204fce5e3e25026110000000",
        "nonce": "0xb6",
        "chainId": "0x138b"
      },
      "additionalContracts": [],
      "isFixedGasLimit": false
    },
    {
      "hash": "0x900edb556ff9d22af34ff03c3bf01be7bf03e75bc2a0e9ab73866fb4b3a695db",
      "transactionType": "CALL",
      "contractName": null,
      "contractAddress": "0x3d85b13c76fc218830e3c0d2e147d1a6b8f3cdc8",
      "function": "mint(address,uint256)",
      "arguments": [
        "0xB5f72a0ab0bA971c8C4F69D4A075cB7fd7859e65",
        "10000000000000000000000000000"
      ],
      "transaction": {
        "from": "0x56a2950dde6b1040d1dcc4b4c4fc314bd56efb0e",
        "to": "0x3d85b13c76fc218830e3c0d2e147d1a6b8f3cdc8",
        "gas": "0xae3e",
        "value": "0x0",
        "input": "0x40c10f19000000000000000000000000b5f72a0ab0ba971c8c4f69d4a075cb7fd7859e650000000000000000000000000000000000000000204fce5e3e25026110000000",
        "nonce": "0xb7",
        "chainId": "0x138b"
      },
      "additionalContracts": [],
      "isFixedGasLimit": false
    },
    {
      "hash": "0x41a1de97982b0f8570335bb972fbee6e5f49fb623efcb46e74ad32be37322a19",
      "transactionType": "CALL",
      "contractName": null,
      "contractAddress": "0x56514dcf6e038ba1f77530cb9df01b2f9427ea11",
      "function": "mint(address,uint256)",
      "arguments": [
        "0xB5f72a0ab0bA971c8C4F69D4A075cB7fd7859e65",
        "10000000000000000000000000000"
      ],
      "transaction": {
        "from": "0x56a2950dde6b1040d1dcc4b4c4fc314bd56efb0e",
        "to": "0x56514dcf6e038ba1f77530cb9df01b2f9427ea11",
        "gas": "0xae3e",
        "value": "0x0",
        "input": "0x40c10f19000000000000000000000000b5f72a0ab0ba971c8c4f69d4a075cb7fd7859e650000000000000000000000000000000000000000204fce5e3e25026110000000",
        "nonce": "0xb8",
        "chainId": "0x138b"
      },
      "additionalContracts": [],
      "isFixedGasLimit": false
    },
    {
      "hash": "0x5837b653c74adbf89f9cd0f7713ca3dc4fa0c6a8330e9fc9df7ecc8ab09f7d7b",
      "transactionType": "CALL",
      "contractName": null,
      "contractAddress": "0x92cf957248c8a695da67d91835bd02e6371e5bfd",
      "function": "mint(address,uint256)",
      "arguments": [
        "0xB5f72a0ab0bA971c8C4F69D4A075cB7fd7859e65",
        "10000000000000000000000000000"
      ],
      "transaction": {
        "from": "0x56a2950dde6b1040d1dcc4b4c4fc314bd56efb0e",
        "to": "0x92cf957248c8a695da67d91835bd02e6371e5bfd",
        "gas": "0xae3e",
        "value": "0x0",
        "input": "0x40c10f19000000000000000000000000b5f72a0ab0ba971c8c4f69d4a075cb7fd7859e650000000000000000000000000000000000000000204fce5e3e25026110000000",
        "nonce": "0xb9",
        "chainId": "0x138b"
      },
      "additionalContracts": [],
      "isFixedGasLimit": false
    },
    {
      "hash": "0x4d138ca4c9092baa2855fa342246038ce94c9dab017740cb9897b627fa1cc0dd",
      "transactionType": "CALL",
      "contractName": null,
      "contractAddress": "0x4e3a788cd351f73d70c85f640758d90d7c573a4d",
      "function": "mint(address,uint256)",
      "arguments": [
        "0xB5f72a0ab0bA971c8C4F69D4A075cB7fd7859e65",
        "10000000000000000000000000000"
      ],
      "transaction": {
        "from": "0x56a2950dde6b1040d1dcc4b4c4fc314bd56efb0e",
        "to": "0x4e3a788cd351f73d70c85f640758d90d7c573a4d",
        "gas": "0xae3e",
        "value": "0x0",
        "input": "0x40c10f19000000000000000000000000b5f72a0ab0ba971c8c4f69d4a075cb7fd7859e650000000000000000000000000000000000000000204fce5e3e25026110000000",
        "nonce": "0xba",
        "chainId": "0x138b"
      },
      "additionalContracts": [],
      "isFixedGasLimit": false
    },
    {
      "hash": "0x87e400820815e3e3047b1362e0ddbd73403d84ea11e4acd67b2f7a78c6a684c4",
      "transactionType": "CALL",
      "contractName": null,
      "contractAddress": "0xbc58f30dfaae433f5531a037365c06b98960e54a",
      "function": "mint(address,uint256)",
      "arguments": [
        "0xB5f72a0ab0bA971c8C4F69D4A075cB7fd7859e65",
        "10000000000000000000000000000"
      ],
      "transaction": {
        "from": "0x56a2950dde6b1040d1dcc4b4c4fc314bd56efb0e",
        "to": "0xbc58f30dfaae433f5531a037365c06b98960e54a",
        "gas": "0xae3e",
        "value": "0x0",
        "input": "0x40c10f19000000000000000000000000b5f72a0ab0ba971c8c4f69d4a075cb7fd7859e650000000000000000000000000000000000000000204fce5e3e25026110000000",
        "nonce": "0xbb",
        "chainId": "0x138b"
      },
      "additionalContracts": [],
      "isFixedGasLimit": false
    },
    {
      "hash": "0x141bebefbc24a1f7aa25aeff1c66173b5435c5b152e1c1d1464f29fd700a5e05",
      "transactionType": "CALL",
      "contractName": null,
      "contractAddress": "0x1d7939e37e08802a6b86204f8e3c52ba4a6cbfba",
      "function": "mint(address,uint256)",
      "arguments": [
        "0xB5f72a0ab0bA971c8C4F69D4A075cB7fd7859e65",
        "10000000000000000000000000000"
      ],
      "transaction": {
        "from": "0x56a2950dde6b1040d1dcc4b4c4fc314bd56efb0e",
        "to": "0x1d7939e37e08802a6b86204f8e3c52ba4a6cbfba",
        "gas": "0xae3e",
        "value": "0x0",
        "input": "0x40c10f19000000000000000000000000b5f72a0ab0ba971c8c4f69d4a075cb7fd7859e650000000000000000000000000000000000000000204fce5e3e25026110000000",
        "nonce": "0xbc",
        "chainId": "0x138b"
      },
      "additionalContracts": [],
      "isFixedGasLimit": false
    },
    {
      "hash": "0xfe9c286df34ce223eca4c457b0dd9b48c87b67137d5f965835646834cc0b4e9e",
      "transactionType": "CALL",
      "contractName": "MockWTI",
      "contractAddress": "0x932e82632e80b06318ca969e33f99a54f1a04b10",
      "function": "mint(address,uint256)",
      "arguments": [
        "0xB5f72a0ab0bA971c8C4F69D4A075cB7fd7859e65",
        "10000000000000000000000000000"
      ],
      "transaction": {
        "from": "0x56a2950dde6b1040d1dcc4b4c4fc314bd56efb0e",
        "to": "0x932e82632e80b06318ca969e33f99a54f1a04b10",
        "gas": "0xae3e",
        "value": "0x0",
        "input": "0x40c10f19000000000000000000000000b5f72a0ab0ba971c8c4f69d4a075cb7fd7859e650000000000000000000000000000000000000000204fce5e3e25026110000000",
        "nonce": "0xbd",
        "chainId": "0x138b"
      },
      "additionalContracts": [],
      "isFixedGasLimit": false
    },
    {
      "hash": "0x5e1571b70e0f94ed7fd971340b01f9bbec5c61f6cc377ae82ad606618bcceeb5",
      "transactionType": "CALL",
      "contractName": "MockXAG",
      "contractAddress": "0xf380e8b6803ad065ef0567dd20c894a55050737c",
      "function": "mint(address,uint256)",
      "arguments": [
        "0xB5f72a0ab0bA971c8C4F69D4A075cB7fd7859e65",
        "10000000000000000000000000000"
      ],
      "transaction": {
        "from": "0x56a2950dde6b1040d1dcc4b4c4fc314bd56efb0e",
        "to": "0xf380e8b6803ad065ef0567dd20c894a55050737c",
        "gas": "0xae3e",
        "value": "0x0",
        "input": "0x40c10f19000000000000000000000000b5f72a0ab0ba971c8c4f69d4a075cb7fd7859e650000000000000000000000000000000000000000204fce5e3e25026110000000",
        "nonce": "0xbe",
        "chainId": "0x138b"
      },
      "additionalContracts": [],
      "isFixedGasLimit": false
    },
    {
      "hash": "0xa887a3afb0eae204512ffec73bcf052d1688c24efcf90f500391132a0c764259",
      "transactionType": "CALL",
      "contractName": null,
      "contractAddress": "0x5b0770513b6cd76bf225462f3ec42783e8da69a1",
      "function": "mint(address,uint256)",
      "arguments": [
        "0xB5f72a0ab0bA971c8C4F69D4A075cB7fd7859e65",
        "10000000000000000000000000000"
      ],
      "transaction": {
        "from": "0x56a2950dde6b1040d1dcc4b4c4fc314bd56efb0e",
        "to": "0x5b0770513b6cd76bf225462f3ec42783e8da69a1",
        "gas": "0xae3e",
        "value": "0x0",
        "input": "0x40c10f19000000000000000000000000b5f72a0ab0ba971c8c4f69d4a075cb7fd7859e650000000000000000000000000000000000000000204fce5e3e25026110000000",
        "nonce": "0xbf",
        "chainId": "0x138b"
      },
      "additionalContracts": [],
      "isFixedGasLimit": false
    },
    {
      "hash": "0x61aa72f9d549a72fe6f06b58aa880cf0bbabfd6d31f7f88d153872cf016ea955",
      "transactionType": "CALL",
      "contractName": null,
      "contractAddress": "0x0aa42416baccdb2fd4768b61111deb7f7d212f9b",
      "function": "mint(address,uint256)",
      "arguments": [
        "0xB5f72a0ab0bA971c8C4F69D4A075cB7fd7859e65",
        "10000000000000000000000000000"
      ],
      "transaction": {
        "from": "0x56a2950dde6b1040d1dcc4b4c4fc314bd56efb0e",
        "to": "0x0aa42416baccdb2fd4768b61111deb7f7d212f9b",
        "gas": "0xae3e",
        "value": "0x0",
        "input": "0x40c10f19000000000000000000000000b5f72a0ab0ba971c8c4f69d4a075cb7fd7859e650000000000000000000000000000000000000000204fce5e3e25026110000000",
        "nonce": "0xc0",
        "chainId": "0x138b"
      },
      "additionalContracts": [],
      "isFixedGasLimit": false
    },
    {
      "hash": "0x52708ff451cd77aa52445222b3c9ab868fd4cfcd77c5e9ffabb3846f0ecf929f",
      "transactionType": "CALL",
      "contractName": null,
      "contractAddress": "0xb3e1f06ac529aded2aa20aa38f4c0b4ad317e5f5",
      "function": "mint(address,uint256)",
      "arguments": [
        "0xB5f72a0ab0bA971c8C4F69D4A075cB7fd7859e65",
        "10000000000000000000000000000"
      ],
      "transaction": {
        "from": "0x56a2950dde6b1040d1dcc4b4c4fc314bd56efb0e",
        "to": "0xb3e1f06ac529aded2aa20aa38f4c0b4ad317e5f5",
        "gas": "0xae3e",
        "value": "0x0",
        "input": "0x40c10f19000000000000000000000000b5f72a0ab0ba971c8c4f69d4a075cb7fd7859e650000000000000000000000000000000000000000204fce5e3e25026110000000",
        "nonce": "0xc1",
        "chainId": "0x138b"
      },
      "additionalContracts": [],
      "isFixedGasLimit": false
    },
    {
      "hash": "0x1dfab45df101d4985ff95b772694d3af606772967e93c949d3939b8baa75e5b2",
      "transactionType": "CALL",
      "contractName": null,
      "contractAddress": "0x62e518611d5a135a50c18e5fcf3a333d6d3a0506",
      "function": "mint(address,uint256)",
      "arguments": [
        "0xB5f72a0ab0bA971c8C4F69D4A075cB7fd7859e65",
        "10000000000000000000000000000"
      ],
      "transaction": {
        "from": "0x56a2950dde6b1040d1dcc4b4c4fc314bd56efb0e",
        "to": "0x62e518611d5a135a50c18e5fcf3a333d6d3a0506",
        "gas": "0xae3e",
        "value": "0x0",
        "input": "0x40c10f19000000000000000000000000b5f72a0ab0ba971c8c4f69d4a075cb7fd7859e650000000000000000000000000000000000000000204fce5e3e25026110000000",
        "nonce": "0xc2",
        "chainId": "0x138b"
      },
      "additionalContracts": [],
      "isFixedGasLimit": false
    },
    {
      "hash": "0x45e711031b1e745917bb3488eed2d5d519d2151d364a78c044f8c40fe2e5a1ca",
      "transactionType": "CALL",
      "contractName": null,
      "contractAddress": "0xc43bd39225a38ce33751c55c74741834a8e82d16",
      "function": "mint(address,uint256)",
      "arguments": [
        "0xB5f72a0ab0bA971c8C4F69D4A075cB7fd7859e65",
        "10000000000000000000000000000"
      ],
      "transaction": {
        "from": "0x56a2950dde6b1040d1dcc4b4c4fc314bd56efb0e",
        "to": "0xc43bd39225a38ce33751c55c74741834a8e82d16",
        "gas": "0xae3e",
        "value": "0x0",
        "input": "0x40c10f19000000000000000000000000b5f72a0ab0ba971c8c4f69d4a075cb7fd7859e650000000000000000000000000000000000000000204fce5e3e25026110000000",
        "nonce": "0xc3",
        "chainId": "0x138b"
      },
      "additionalContracts": [],
      "isFixedGasLimit": false
    },
    {
      "hash": "0xa9281438cddb793ba51e022dfaa0cf099a15a244577e1a0a96101def8984c69c",
      "transactionType": "CALL",
      "contractName": null,
      "contractAddress": "0x6289654b4197744800d761a4641ba0c4a79f5ed1",
      "function": "mint(address,uint256)",
      "arguments": [
        "0xB5f72a0ab0bA971c8C4F69D4A075cB7fd7859e65",
        "10000000000000000000000000000"
      ],
      "transaction": {
        "from": "0x56a2950dde6b1040d1dcc4b4c4fc314bd56efb0e",
        "to": "0x6289654b4197744800d761a4641ba0c4a79f5ed1",
        "gas": "0xae3e",
        "value": "0x0",
        "input": "0x40c10f19000000000000000000000000b5f72a0ab0ba971c8c4f69d4a075cb7fd7859e650000000000000000000000000000000000000000204fce5e3e25026110000000",
        "nonce": "0xc4",
        "chainId": "0x138b"
      },
      "additionalContracts": [],
      "isFixedGasLimit": false
    },
    {
      "hash": "0xa5f78f1e659537b6bc60d532d120eaf10d0918f0ca71d2e04fbaa6fe7da7cf25",
      "transactionType": "CALL",
      "contractName": null,
      "contractAddress": "0x7bb9e063dab0b53fb7b7b438548d5a8c62e3afb7",
      "function": "mint(address,uint256)",
      "arguments": [
        "0xB5f72a0ab0bA971c8C4F69D4A075cB7fd7859e65",
        "10000000000000000000000000000"
      ],
      "transaction": {
        "from": "0x56a2950dde6b1040d1dcc4b4c4fc314bd56efb0e",
        "to": "0x7bb9e063dab0b53fb7b7b438548d5a8c62e3afb7",
        "gas": "0xae3e",
        "value": "0x0",
        "input": "0x40c10f19000000000000000000000000b5f72a0ab0ba971c8c4f69d4a075cb7fd7859e650000000000000000000000000000000000000000204fce5e3e25026110000000",
        "nonce": "0xc5",
        "chainId": "0x138b"
      },
      "additionalContracts": [],
      "isFixedGasLimit": false
    },
    {
      "hash": "0xfeb06b4fb5cd69cd22664a17d7e24c5a4d9c788680b7afd63fa5047cf3fc629f",
      "transactionType": "CALL",
      "contractName": null,
      "contractAddress": "0x6956dbbeb8eca1160ae21d2d703cdf6b86525825",
      "function": "mint(address,uint256)",
      "arguments": [
        "0xB5f72a0ab0bA971c8C4F69D4A075cB7fd7859e65",
        "10000000000000000000000000000"
      ],
      "transaction": {
        "from": "0x56a2950dde6b1040d1dcc4b4c4fc314bd56efb0e",
        "to": "0x6956dbbeb8eca1160ae21d2d703cdf6b86525825",
        "gas": "0xae3e",
        "value": "0x0",
        "input": "0x40c10f19000000000000000000000000b5f72a0ab0ba971c8c4f69d4a075cb7fd7859e650000000000000000000000000000000000000000204fce5e3e25026110000000",
        "nonce": "0xc6",
        "chainId": "0x138b"
      },
      "additionalContracts": [],
      "isFixedGasLimit": false
    },
    {
      "hash": "0x040e9426b074a613bc901fe7f5e15bb903db800b9a5671050b2f013287f313ea",
      "transactionType": "CALL",
      "contractName": "MockAAPL",
      "contractAddress": "0xc2226548fb4332dce1e31dc317bcf61effd51375",
      "function": "mint(address,uint256)",
      "arguments": [
        "0xB5f72a0ab0bA971c8C4F69D4A075cB7fd7859e65",
        "10000000000000000000000000000"
      ],
      "transaction": {
        "from": "0x56a2950dde6b1040d1dcc4b4c4fc314bd56efb0e",
        "to": "0xc2226548fb4332dce1e31dc317bcf61effd51375",
        "gas": "0xae3e",
        "value": "0x0",
        "input": "0x40c10f19000000000000000000000000b5f72a0ab0ba971c8c4f69d4a075cb7fd7859e650000000000000000000000000000000000000000204fce5e3e25026110000000",
        "nonce": "0xc7",
        "chainId": "0x138b"
      },
      "additionalContracts": [],
      "isFixedGasLimit": false
    },
    {
      "hash": "0xfde6d02eca9ff6051efd66b7e33f87dd9b932047388fa16db303ff2b175cd408",
      "transactionType": "CALL",
      "contractName": "MockAMZN",
      "contractAddress": "0x5dbc3c81dbbb39dd865ec27c66abb48150325df1",
      "function": "mint(address,uint256)",
      "arguments": [
        "0xB5f72a0ab0bA971c8C4F69D4A075cB7fd7859e65",
        "10000000000000000000000000000"
      ],
      "transaction": {
        "from": "0x56a2950dde6b1040d1dcc4b4c4fc314bd56efb0e",
        "to": "0x5dbc3c81dbbb39dd865ec27c66abb48150325df1",
        "gas": "0xae3e",
        "value": "0x0",
        "input": "0x40c10f19000000000000000000000000b5f72a0ab0ba971c8c4f69d4a075cb7fd7859e650000000000000000000000000000000000000000204fce5e3e25026110000000",
        "nonce": "0xc8",
        "chainId": "0x138b"
      },
      "additionalContracts": [],
      "isFixedGasLimit": false
    },
    {
      "hash": "0xb7d5524020a702fc57d808df2edd70c30b9c5d8a9f8e261e6c53135e5421b028",
      "transactionType": "CALL",
      "contractName": null,
      "contractAddress": "0xdd63da0a5ec0a76029dd49c32de7de73d8918e96",
      "function": "mint(address,uint256)",
      "arguments": [
        "0xB5f72a0ab0bA971c8C4F69D4A075cB7fd7859e65",
        "10000000000000000000000000000"
      ],
      "transaction": {
        "from": "0x56a2950dde6b1040d1dcc4b4c4fc314bd56efb0e",
        "to": "0xdd63da0a5ec0a76029dd49c32de7de73d8918e96",
        "gas": "0xae3e",
        "value": "0x0",
        "input": "0x40c10f19000000000000000000000000b5f72a0ab0ba971c8c4f69d4a075cb7fd7859e650000000000000000000000000000000000000000204fce5e3e25026110000000",
        "nonce": "0xc9",
        "chainId": "0x138b"
      },
      "additionalContracts": [],
      "isFixedGasLimit": false
    },
    {
      "hash": "0xa42675d8a6a4d71408ae1b19365ffe53f125f0594b5d58083c46d8786a1c7135",
      "transactionType": "CALL",
      "contractName": null,
      "contractAddress": "0x028ffc7b83ac3ec143bed5a8f14c7e49a356c793",
      "function": "mint(address,uint256)",
      "arguments": [
        "0xB5f72a0ab0bA971c8C4F69D4A075cB7fd7859e65",
        "10000000000000000000000000000"
      ],
      "transaction": {
        "from": "0x56a2950dde6b1040d1dcc4b4c4fc314bd56efb0e",
        "to": "0x028ffc7b83ac3ec143bed5a8f14c7e49a356c793",
        "gas": "0xae3e",
        "value": "0x0",
        "input": "0x40c10f19000000000000000000000000b5f72a0ab0ba971c8c4f69d4a075cb7fd7859e650000000000000000000000000000000000000000204fce5e3e25026110000000",
        "nonce": "0xca",
        "chainId": "0x138b"
      },
      "additionalContracts": [],
      "isFixedGasLimit": false
    },
    {
      "hash": "0xc45625ab278c65746b109eb05a252d07edcb066fcd5c5b13eed19908dee2951f",
      "transactionType": "CALL",
      "contractName": null,
      "contractAddress": "0x61d3e9944feff4a17854e408c5ac766a1d9adb63",
      "function": "mint(address,uint256)",
      "arguments": [
        "0xB5f72a0ab0bA971c8C4F69D4A075cB7fd7859e65",
        "10000000000000000000000000000"
      ],
      "transaction": {
        "from": "0x56a2950dde6b1040d1dcc4b4c4fc314bd56efb0e",
        "to": "0x61d3e9944feff4a17854e408c5ac766a1d9adb63",
        "gas": "0xae3e",
        "value": "0x0",
        "input": "0x40c10f19000000000000000000000000b5f72a0ab0ba971c8c4f69d4a075cb7fd7859e650000000000000000000000000000000000000000204fce5e3e25026110000000",
        "nonce": "0xcb",
        "chainId": "0x138b"
      },
      "additionalContracts": [],
      "isFixedGasLimit": false
    },
    {
      "hash": "0xfe930f59bfc230f0932ae568c5ce544068068f4d3c51d56330cdf047cd3ac050",
      "transactionType": "CALL",
      "contractName": null,
      "contractAddress": "0x6ceaf0d037e628d8c08e1462f628bde4da633813",
      "function": "mint(address,uint256)",
      "arguments": [
        "0xB5f72a0ab0bA971c8C4F69D4A075cB7fd7859e65",
        "10000000000000000000000000000"
      ],
      "transaction": {
        "from": "0x56a2950dde6b1040d1dcc4b4c4fc314bd56efb0e",
        "to": "0x6ceaf0d037e628d8c08e1462f628bde4da633813",
        "gas": "0xae3e",
        "value": "0x0",
        "input": "0x40c10f19000000000000000000000000b5f72a0ab0ba971c8c4f69d4a075cb7fd7859e650000000000000000000000000000000000000000204fce5e3e25026110000000",
        "nonce": "0xcc",
        "chainId": "0x138b"
      },
      "additionalContracts": [],
      "isFixedGasLimit": false
    },
    {
      "hash": "0xf8d66b7b74c110c1240e3f00c2aae4e9e167f1d79eb7f0758c58dada457f73ff",
      "transactionType": "CALL",
      "contractName": null,
      "contractAddress": "0x56979c925faa2b84637f2991c31fd6b1b33624b0",
      "function": "mint(address,uint256)",
      "arguments": [
        "0xB5f72a0ab0bA971c8C4F69D4A075cB7fd7859e65",
        "10000000000000000000000000000"
      ],
      "transaction": {
        "from": "0x56a2950dde6b1040d1dcc4b4c4fc314bd56efb0e",
        "to": "0x56979c925faa2b84637f2991c31fd6b1b33624b0",
        "gas": "0xae3e",
        "value": "0x0",
        "input": "0x40c10f19000000000000000000000000b5f72a0ab0ba971c8c4f69d4a075cb7fd7859e650000000000000000000000000000000000000000204fce5e3e25026110000000",
        "nonce": "0xcd",
        "chainId": "0x138b"
      },
      "additionalContracts": [],
      "isFixedGasLimit": false
    },
    {
      "hash": "0x30c59a29b06cc9ebca4df7ee0002cf2e12c84acb5aac9e9088cbdcad048cbca1",
      "transactionType": "CALL",
      "contractName": null,
      "contractAddress": "0x9e2dbb4930607e58401c3f55cbe2e0819a8a0523",
      "function": "mint(address,uint256)",
      "arguments": [
        "0xB5f72a0ab0bA971c8C4F69D4A075cB7fd7859e65",
        "10000000000000000000000000000"
      ],
      "transaction": {
        "from": "0x56a2950dde6b1040d1dcc4b4c4fc314bd56efb0e",
        "to": "0x9e2dbb4930607e58401c3f55cbe2e0819a8a0523",
        "gas": "0xae3e",
        "value": "0x0",
        "input": "0x40c10f19000000000000000000000000b5f72a0ab0ba971c8c4f69d4a075cb7fd7859e650000000000000000000000000000000000000000204fce5e3e25026110000000",
        "nonce": "0xce",
        "chainId": "0x138b"
      },
      "additionalContracts": [],
      "isFixedGasLimit": false
    },
    {
      "hash": "0xba7035d02136de2cf82f1825f574407e1d3a1cafde6a4874f56c2f5429e8bc3a",
      "transactionType": "CALL",
      "contractName": null,
      "contractAddress": "0xd568d045d34dca3f4f24be8099a8b90779047b6a",
      "function": "mint(address,uint256)",
      "arguments": [
        "0xB5f72a0ab0bA971c8C4F69D4A075cB7fd7859e65",
        "10000000000000000000000000000"
      ],
      "transaction": {
        "from": "0x56a2950dde6b1040d1dcc4b4c4fc314bd56efb0e",
        "to": "0xd568d045d34dca3f4f24be8099a8b90779047b6a",
        "gas": "0xae3e",
        "value": "0x0",
        "input": "0x40c10f19000000000000000000000000b5f72a0ab0ba971c8c4f69d4a075cb7fd7859e650000000000000000000000000000000000000000204fce5e3e25026110000000",
        "nonce": "0xcf",
        "chainId": "0x138b"
      },
      "additionalContracts": [],
      "isFixedGasLimit": false
    },
    {
      "hash": "0x645582dfb455efd26d5d7c5e5fc37371eff6bb1d08e596db67c5a0784b25391b",
      "transactionType": "CALL",
      "contractName": null,
      "contractAddress": "0x781dfd2a2e6b2fb23e10a4b36691520e4bc36e2a",
      "function": "mint(address,uint256)",
      "arguments": [
        "0xB5f72a0ab0bA971c8C4F69D4A075cB7fd7859e65",
        "10000000000000000000000000000"
      ],
      "transaction": {
        "from": "0x56a2950dde6b1040d1dcc4b4c4fc314bd56efb0e",
        "to": "0x781dfd2a2e6b2fb23e10a4b36691520e4bc36e2a",
        "gas": "0xae3e",
        "value": "0x0",
        "input": "0x40c10f19000000000000000000000000b5f72a0ab0ba971c8c4f69d4a075cb7fd7859e650000000000000000000000000000000000000000204fce5e3e25026110000000",
        "nonce": "0xd0",
        "chainId": "0x138b"
      },
      "additionalContracts": [],
      "isFixedGasLimit": false
    },
    {
      "hash": "0x259b257b36ebb15059845fcf29925ab07370dce828b95e82332e0e417980499a",
      "transactionType": "CALL",
      "contractName": "MockGBP",
      "contractAddress": "0x2cbc4431d40121faa5b5a6d15240285761128f5a",
      "function": "mint(address,uint256)",
      "arguments": [
        "0xB5f72a0ab0bA971c8C4F69D4A075cB7fd7859e65",
        "10000000000000000000000000000"
      ],
      "transaction": {
        "from": "0x56a2950dde6b1040d1dcc4b4c4fc314bd56efb0e",
        "to": "0x2cbc4431d40121faa5b5a6d15240285761128f5a",
        "gas": "0xae3e",
        "value": "0x0",
        "input": "0x40c10f19000000000000000000000000b5f72a0ab0ba971c8c4f69d4a075cb7fd7859e650000000000000000000000000000000000000000204fce5e3e25026110000000",
        "nonce": "0xd1",
        "chainId": "0x138b"
      },
      "additionalContracts": [],
      "isFixedGasLimit": false
    },
    {
      "hash": "0x45765a79074aec582ac73a5a201b30d3c82f3f2563e8ab571bc5555fb9b675ce",
      "transactionType": "CALL",
      "contractName": "MockIDR",
      "contractAddress": "0x37e11a01f58f973098bef434a34e7fc3be4e3041",
      "function": "mint(address,uint256)",
      "arguments": [
        "0xB5f72a0ab0bA971c8C4F69D4A075cB7fd7859e65",
        "10000000000000000000000000000"
      ],
      "transaction": {
        "from": "0x56a2950dde6b1040d1dcc4b4c4fc314bd56efb0e",
        "to": "0x37e11a01f58f973098bef434a34e7fc3be4e3041",
        "gas": "0xae3e",
        "value": "0x0",
        "input": "0x40c10f19000000000000000000000000b5f72a0ab0ba971c8c4f69d4a075cb7fd7859e650000000000000000000000000000000000000000204fce5e3e25026110000000",
        "nonce": "0xd2",
        "chainId": "0x138b"
      },
      "additionalContracts": [],
      "isFixedGasLimit": false
    },
    {
      "hash": "0x33c7f8c957f1ea20a4a5c508f4914e3e7283678423167838bc9d8d532db766a4",
      "transactionType": "CALL",
      "contractName": null,
      "contractAddress": "0x718c268093b11bea78a9b84861b2e4e96e86c33b",
      "function": "mint(address,uint256)",
      "arguments": [
        "0xB5f72a0ab0bA971c8C4F69D4A075cB7fd7859e65",
        "10000000000000000000000000000"
      ],
      "transaction": {
        "from": "0x56a2950dde6b1040d1dcc4b4c4fc314bd56efb0e",
        "to": "0x718c268093b11bea78a9b84861b2e4e96e86c33b",
        "gas": "0xae3e",
        "value": "0x0",
        "input": "0x40c10f19000000000000000000000000b5f72a0ab0ba971c8c4f69d4a075cb7fd7859e650000000000000000000000000000000000000000204fce5e3e25026110000000",
        "nonce": "0xd3",
        "chainId": "0x138b"
      },
      "additionalContracts": [],
      "isFixedGasLimit": false
    },
    {
      "hash": "0x788e1be3791cfaa7d2d5b019f89935393e880d6094f792d1f6e060c8d7ed32fb",
      "transactionType": "CALL",
      "contractName": "MockKRW",
      "contractAddress": "0x42feae1f60b23feb1f5c501977af161116fe3e99",
      "function": "mint(address,uint256)",
      "arguments": [
        "0xB5f72a0ab0bA971c8C4F69D4A075cB7fd7859e65",
        "10000000000000000000000000000"
      ],
      "transaction": {
        "from": "0x56a2950dde6b1040d1dcc4b4c4fc314bd56efb0e",
        "to": "0x42feae1f60b23feb1f5c501977af161116fe3e99",
        "gas": "0xae3e",
        "value": "0x0",
        "input": "0x40c10f19000000000000000000000000b5f72a0ab0ba971c8c4f69d4a075cb7fd7859e650000000000000000000000000000000000000000204fce5e3e25026110000000",
        "nonce": "0xd4",
        "chainId": "0x138b"
      },
      "additionalContracts": [],
      "isFixedGasLimit": false
    },
    {
      "hash": "0xc61fd199507c5b5f5978be3b28d3f518af03d88402b07ea4360ae936a61654d7",
      "transactionType": "CALL",
      "contractName": "MockSGD",
      "contractAddress": "0x039263c8b98f62f7e2debcd277ef3f1f2baf9dce",
      "function": "mint(address,uint256)",
      "arguments": [
        "0xB5f72a0ab0bA971c8C4F69D4A075cB7fd7859e65",
        "10000000000000000000000000000"
      ],
      "transaction": {
        "from": "0x56a2950dde6b1040d1dcc4b4c4fc314bd56efb0e",
        "to": "0x039263c8b98f62f7e2debcd277ef3f1f2baf9dce",
        "gas": "0xae3e",
        "value": "0x0",
        "input": "0x40c10f19000000000000000000000000b5f72a0ab0ba971c8c4f69d4a075cb7fd7859e650000000000000000000000000000000000000000204fce5e3e25026110000000",
        "nonce": "0xd5",
        "chainId": "0x138b"
      },
      "additionalContracts": [],
      "isFixedGasLimit": false
    },
    {
      "hash": "0x7b208124d0543fc3de0ca8736a69efaee22e8d56a1967948aded499960c349f9",
      "transactionType": "CALL",
      "contractName": "MockTRY",
      "contractAddress": "0x58061565f6f2b5c8322ee3fa2dcd6497d72e5b20",
      "function": "mint(address,uint256)",
      "arguments": [
        "0xB5f72a0ab0bA971c8C4F69D4A075cB7fd7859e65",
        "10000000000000000000000000000"
      ],
      "transaction": {
        "from": "0x56a2950dde6b1040d1dcc4b4c4fc314bd56efb0e",
        "to": "0x58061565f6f2b5c8322ee3fa2dcd6497d72e5b20",
        "gas": "0xae3e",
        "value": "0x0",
        "input": "0x40c10f19000000000000000000000000b5f72a0ab0ba971c8c4f69d4a075cb7fd7859e650000000000000000000000000000000000000000204fce5e3e25026110000000",
        "nonce": "0xd6",
        "chainId": "0x138b"
      },
      "additionalContracts": [],
      "isFixedGasLimit": false
    }
  ],
  "receipts": [
    {
      "status": "0x1",
      "cumulativeGasUsed": "0x1394e",
      "logs": [
        {
          "address": "0x29faf6cafa4bea1dc7c232f0a1818d4da6b724dd",
          "topics": [
            "0xddf252ad1be2c89b69c2b068fc378daa952ba7f163c4a11628f55a4df523b3ef",
            "0x0000000000000000000000000000000000000000000000000000000000000000",
            "0x000000000000000000000000b5f72a0ab0ba971c8c4f69d4a075cb7fd7859e65"
          ],
          "data": "0x000000000000000000000000000000000000000000000000002386f26fc10000",
          "blockHash": "0xa252fc56ea9c4f6490eaaabff589d10af4929abe1500b8dda4a8f6779083ba1a",
          "blockNumber": "0x25c2ea5",
          "blockTimestamp": "0x6a23e02b",
          "transactionHash": "0xb4c0ea2e72c6da568f48a38ef4647c72759a53a1f1d796d3b9b448c1406a082d",
          "transactionIndex": "0x1",
          "logIndex": "0x0",
          "removed": false
        }
      ],
      "logsBloom": "0x00000000000000000000000000000000000000000000000000000000000000000000000000000000000000000000000000000000000000040000000000000000000000000000000000000008000000000000000000000000000000000000000000000000020000008000000040000800000000000000000000000010000000100000000000000000000000000000000000000000000000000000000000000000000000000000000000000000000000000000000000000000000000000000000000000002000000000000000000000000000000000000000000000000080020000000000000000000000000000000000000000000000000000000000000400000",
      "type": "0x2",
      "transactionHash": "0xb4c0ea2e72c6da568f48a38ef4647c72759a53a1f1d796d3b9b448c1406a082d",
      "transactionIndex": "0x1",
      "blockHash": "0xa252fc56ea9c4f6490eaaabff589d10af4929abe1500b8dda4a8f6779083ba1a",
      "blockNumber": "0x25c2ea5",
      "gasUsed": "0x8473",
      "effectiveGasPrice": "0xba43b7401",
      "blobGasUsed": "0x9c40",
      "from": "0x56a2950dde6b1040d1dcc4b4c4fc314bd56efb0e",
      "to": "0x29faf6cafa4bea1dc7c232f0a1818d4da6b724dd",
      "contractAddress": null,
      "daFootprintGasScalar": "0x190",
      "l1BaseFeeScalar": "0x2943b",
      "l1BlobBaseFee": "0x3f516ff7",
      "l1BlobBaseFeeScalar": "0x45567c",
      "l1Fee": "0x39f944d593f6cd",
      "l1GasPrice": "0x4273d55ee",
      "l1GasUsed": "0x640",
      "operatorFeeConstant": "0x0",
      "operatorFeeScalar": "0x5f5e100",
      "tokenRatio": "0xc03"
    },
    {
      "status": "0x1",
      "cumulativeGasUsed": "0x1397e",
      "logs": [
        {
          "address": "0xada0466303441102cb16f8ec1594c744d603f746",
          "topics": [
            "0xddf252ad1be2c89b69c2b068fc378daa952ba7f163c4a11628f55a4df523b3ef",
            "0x0000000000000000000000000000000000000000000000000000000000000000",
            "0x000000000000000000000000b5f72a0ab0ba971c8c4f69d4a075cb7fd7859e65"
          ],
          "data": "0x0000000000000000000000000000000000000000204fce5e3e25026110000000",
          "blockHash": "0xeff8f0c63881c51bcf2a14e4c49fb970863722718b8294ee4a56f658007d0f62",
          "blockNumber": "0x25c2ea7",
          "blockTimestamp": "0x6a23e02f",
          "transactionHash": "0x947f57f80b8d046f8b4522d9df310f5ca5c7c185bcf0c552c120cc22f5244d83",
          "transactionIndex": "0x1",
          "logIndex": "0x0",
          "removed": false
        }
      ],
      "logsBloom": "0x00000000000000000000000000000000000000000000000000000000000000000000000000000000000000000000000000000000000000000000000000000000000000000000000000000008000000000000000000000000000000000000000000000000020000008000000000000800200000000000000000000010000000100000000000000000000000000000000000000000000000000000000000080000000000000000000000000000000000000000000000000000000000000000000000000002000000000000000000000000000000000000000000000000080020000000000000000000080000000000000000000000000000000000000000000000",
      "type": "0x2",
      "transactionHash": "0x947f57f80b8d046f8b4522d9df310f5ca5c7c185bcf0c552c120cc22f5244d83",
      "transactionIndex": "0x1",
      "blockHash": "0xeff8f0c63881c51bcf2a14e4c49fb970863722718b8294ee4a56f658007d0f62",
      "blockNumber": "0x25c2ea7",
      "gasUsed": "0x84a3",
      "effectiveGasPrice": "0xba43b7401",
      "blobGasUsed": "0x9c40",
      "from": "0x56a2950dde6b1040d1dcc4b4c4fc314bd56efb0e",
      "to": "0xada0466303441102cb16f8ec1594c744d603f746",
      "contractAddress": null,
      "daFootprintGasScalar": "0x190",
      "l1BaseFeeScalar": "0x2943b",
      "l1BlobBaseFee": "0x3f516ff7",
      "l1BlobBaseFeeScalar": "0x45567c",
      "l1Fee": "0x39f944d593f6cd",
      "l1GasPrice": "0x4273d55ee",
      "l1GasUsed": "0x640",
      "operatorFeeConstant": "0x0",
      "operatorFeeScalar": "0x5f5e100",
      "tokenRatio": "0xc03"
    },
    {
      "status": "0x1",
      "cumulativeGasUsed": "0x1397e",
      "logs": [
        {
          "address": "0x0d7766158f14ad7bb82d9fd8a47734e801e3f5b8",
          "topics": [
            "0xddf252ad1be2c89b69c2b068fc378daa952ba7f163c4a11628f55a4df523b3ef",
            "0x0000000000000000000000000000000000000000000000000000000000000000",
            "0x000000000000000000000000b5f72a0ab0ba971c8c4f69d4a075cb7fd7859e65"
          ],
          "data": "0x0000000000000000000000000000000000000000204fce5e3e25026110000000",
          "blockHash": "0xa6b7ab6b0dfd99e13fc7e2e069ea184158a0ff195a528cc00c84e6c79c4c3c4a",
          "blockNumber": "0x25c2eaa",
          "blockTimestamp": "0x6a23e035",
          "transactionHash": "0xb1511a63ea75cbe248e060614cdefbfc6ae980a4cb6cbce17743ad87f7e051aa",
          "transactionIndex": "0x1",
          "logIndex": "0x0",
          "removed": false
        }
      ],
      "logsBloom": "0x00000000000000000000000000000000000000000000000000000000000000000000000000000000000000000000000000000000000000000000000000000000040000000000000000000008000000000000000000000000000000000000000000000000020000008000000000000800000000000000000000000010000000100000000000000000000000000000000000000000000000000000000000000000000000000000000000000000000000000080000000000000000000000000000000000002000000000000000000000000000000000000000000080000080020000000000000000000000000000000000000000000000000000000000000000000",
      "type": "0x2",
      "transactionHash": "0xb1511a63ea75cbe248e060614cdefbfc6ae980a4cb6cbce17743ad87f7e051aa",
      "transactionIndex": "0x1",
      "blockHash": "0xa6b7ab6b0dfd99e13fc7e2e069ea184158a0ff195a528cc00c84e6c79c4c3c4a",
      "blockNumber": "0x25c2eaa",
      "gasUsed": "0x84a3",
      "effectiveGasPrice": "0xba43b7401",
      "blobGasUsed": "0x9c40",
      "from": "0x56a2950dde6b1040d1dcc4b4c4fc314bd56efb0e",
      "to": "0x0d7766158f14ad7bb82d9fd8a47734e801e3f5b8",
      "contractAddress": null,
      "daFootprintGasScalar": "0x190",
      "l1BaseFeeScalar": "0x2943b",
      "l1BlobBaseFee": "0x42b89226",
      "l1BlobBaseFeeScalar": "0x45567c",
      "l1Fee": "0x3b06f1bd75c669",
      "l1GasPrice": "0x436c65115",
      "l1GasUsed": "0x640",
      "operatorFeeConstant": "0x0",
      "operatorFeeScalar": "0x5f5e100",
      "tokenRatio": "0xc03"
    },
    {
      "status": "0x1",
      "cumulativeGasUsed": "0x1397e",
      "logs": [
        {
          "address": "0xd89395df78aafdf86b330899d1c6189211e88750",
          "topics": [
            "0xddf252ad1be2c89b69c2b068fc378daa952ba7f163c4a11628f55a4df523b3ef",
            "0x0000000000000000000000000000000000000000000000000000000000000000",
            "0x000000000000000000000000b5f72a0ab0ba971c8c4f69d4a075cb7fd7859e65"
          ],
          "data": "0x0000000000000000000000000000000000000000204fce5e3e25026110000000",
          "blockHash": "0x568050416d5e79c3daa3ce7a8ec178b7d2dffd8f88b723fc26533e1e0ce9271c",
          "blockNumber": "0x25c2ead",
          "blockTimestamp": "0x6a23e03b",
          "transactionHash": "0xb2337c904bf8ce7edce9241767dc58dbc622cc79f47fb3723931a919164403b6",
          "transactionIndex": "0x1",
          "logIndex": "0x0",
          "removed": false
        }
      ],
      "logsBloom": "0x00000000000000000000000000000000000000000000000000000000000000000000000000000000000000000000000000000000000000800000000000000000000000000000000000000008000000000010000000000000000000000000000000000000020000008000000000000800000000000000000000000010000000100000000000000000000000000000000000000000000000000000000000000000000000000000000000000000000000000000000000000000000000002000000000000002000000000000000000000000000000000000000000000000080020000000000000000000000000000000000000000000000000000000000000000000",
      "type": "0x2",
      "transactionHash": "0xb2337c904bf8ce7edce9241767dc58dbc622cc79f47fb3723931a919164403b6",
      "transactionIndex": "0x1",
      "blockHash": "0x568050416d5e79c3daa3ce7a8ec178b7d2dffd8f88b723fc26533e1e0ce9271c",
      "blockNumber": "0x25c2ead",
      "gasUsed": "0x84a3",
      "effectiveGasPrice": "0xba43b7401",
      "blobGasUsed": "0x9c40",
      "from": "0x56a2950dde6b1040d1dcc4b4c4fc314bd56efb0e",
      "to": "0xd89395df78aafdf86b330899d1c6189211e88750",
      "contractAddress": null,
      "daFootprintGasScalar": "0x190",
      "l1BaseFeeScalar": "0x2943b",
      "l1BlobBaseFee": "0x42b89226",
      "l1BlobBaseFeeScalar": "0x45567c",
      "l1Fee": "0x3b06f1bd75c669",
      "l1GasPrice": "0x436c65115",
      "l1GasUsed": "0x640",
      "operatorFeeConstant": "0x0",
      "operatorFeeScalar": "0x5f5e100",
      "tokenRatio": "0xc03"
    },
    {
      "status": "0x1",
      "cumulativeGasUsed": "0x1397e",
      "logs": [
        {
          "address": "0xb6f57152bc6ac9cdc7862f8dae0aac17f6f5d8ff",
          "topics": [
            "0xddf252ad1be2c89b69c2b068fc378daa952ba7f163c4a11628f55a4df523b3ef",
            "0x0000000000000000000000000000000000000000000000000000000000000000",
            "0x000000000000000000000000b5f72a0ab0ba971c8c4f69d4a075cb7fd7859e65"
          ],
          "data": "0x0000000000000000000000000000000000000000204fce5e3e25026110000000",
          "blockHash": "0xd0695319f0389e098b5bfe8535f4a3949a32bb1b30e7408a35831210cc4143c3",
          "blockNumber": "0x25c2eaf",
          "blockTimestamp": "0x6a23e03f",
          "transactionHash": "0xe1bf554debd4ef38059cc09718c466682f3c46c5ca0c5ecfcba72056157e3fba",
          "transactionIndex": "0x1",
          "logIndex": "0x0",
          "removed": false
        }
      ],
      "logsBloom": "0x00000000000000000000000000000000000000000000000000000000000000000000000000000000000000000000000000000000000000000000000000000200000000000000400000000008000000000000000000000000000000000000000000000000020000008000000000000800000000000000000000000010000000100000000000000000000000000000000004000000000000000000000000000000000000000000000000000000000000000000000000000000000000000000000000000002000000000000000000000000000000000000000000000000080020000000000000000000000000000000000000000000000000000000000000000000",
      "type": "0x2",
      "transactionHash": "0xe1bf554debd4ef38059cc09718c466682f3c46c5ca0c5ecfcba72056157e3fba",
      "transactionIndex": "0x1",
      "blockHash": "0xd0695319f0389e098b5bfe8535f4a3949a32bb1b30e7408a35831210cc4143c3",
      "blockNumber": "0x25c2eaf",
      "gasUsed": "0x84a3",
      "effectiveGasPrice": "0xba43b7401",
      "blobGasUsed": "0x9c40",
      "from": "0x56a2950dde6b1040d1dcc4b4c4fc314bd56efb0e",
      "to": "0xb6f57152bc6ac9cdc7862f8dae0aac17f6f5d8ff",
      "contractAddress": null,
      "daFootprintGasScalar": "0x190",
      "l1BaseFeeScalar": "0x2943b",
      "l1BlobBaseFee": "0x43fae861",
      "l1BlobBaseFeeScalar": "0x45567c",
      "l1Fee": "0x3b682f7ceffd95",
      "l1GasPrice": "0x43c528d2e",
      "l1GasUsed": "0x640",
      "operatorFeeConstant": "0x0",
      "operatorFeeScalar": "0x5f5e100",
      "tokenRatio": "0xc03"
    },
    {
      "status": "0x1",
      "cumulativeGasUsed": "0x1397e",
      "logs": [
        {
          "address": "0xf76da0ec605cfac82f1da86080da21316c07d130",
          "topics": [
            "0xddf252ad1be2c89b69c2b068fc378daa952ba7f163c4a11628f55a4df523b3ef",
            "0x0000000000000000000000000000000000000000000000000000000000000000",
            "0x000000000000000000000000b5f72a0ab0ba971c8c4f69d4a075cb7fd7859e65"
          ],
          "data": "0x0000000000000000000000000000000000000000204fce5e3e25026110000000",
          "blockHash": "0xe3557b11ef11a95441d1a0d338ffa85fc15b8c99c79500886664781611f74acd",
          "blockNumber": "0x25c2eb1",
          "blockTimestamp": "0x6a23e043",
          "transactionHash": "0x9ded478db64a7244b90777345df09789e24cace8fda412f1d4fc64dab41c193c",
          "transactionIndex": "0x1",
          "logIndex": "0x0",
          "removed": false
        }
      ],
      "logsBloom": "0x00000000000000200000000000000000000000000000000000000000000000000000000000000000000000000000000000000000000000000000000000000000000000000000000000000008000000000000000000000000000000000000000000000000020000008000000000000800000000000000000000000010000000100000000000000000000000000000000000000000000000000000000000000000000000000000000000000000000000000000000000000000000000000000000000000002000400000000000000000000000000000000000000000000080020000000000000000000000000000100000000000000000000000000000000000000",
      "type": "0x2",
      "transactionHash": "0x9ded478db64a7244b90777345df09789e24cace8fda412f1d4fc64dab41c193c",
      "transactionIndex": "0x1",
      "blockHash": "0xe3557b11ef11a95441d1a0d338ffa85fc15b8c99c79500886664781611f74acd",
      "blockNumber": "0x25c2eb1",
      "gasUsed": "0x84a3",
      "effectiveGasPrice": "0xba43b7401",
      "blobGasUsed": "0x9c40",
      "from": "0x56a2950dde6b1040d1dcc4b4c4fc314bd56efb0e",
      "to": "0xf76da0ec605cfac82f1da86080da21316c07d130",
      "contractAddress": null,
      "daFootprintGasScalar": "0x190",
      "l1BaseFeeScalar": "0x2943b",
      "l1BlobBaseFee": "0x43fae861",
      "l1BlobBaseFeeScalar": "0x45567c",
      "l1Fee": "0x3b682f7ceffd95",
      "l1GasPrice": "0x43c528d2e",
      "l1GasUsed": "0x640",
      "operatorFeeConstant": "0x0",
      "operatorFeeScalar": "0x5f5e100",
      "tokenRatio": "0xc03"
    },
    {
      "status": "0x1",
      "cumulativeGasUsed": "0x139b2",
      "logs": [
        {
          "address": "0x61a4ac2678048ed431e362c14d2ec7a0b3191966",
          "topics": [
            "0xddf252ad1be2c89b69c2b068fc378daa952ba7f163c4a11628f55a4df523b3ef",
            "0x0000000000000000000000000000000000000000000000000000000000000000",
            "0x000000000000000000000000b5f72a0ab0ba971c8c4f69d4a075cb7fd7859e65"
          ],
          "data": "0x0000000000000000000000000000000000000000204fce5e3e25026110000000",
          "blockHash": "0xe7bb0d01f4b66422d61b9d62d99d0c7caf0d34a835f1433afa48ec0b17aa960a",
          "blockNumber": "0x25c2eb3",
          "blockTimestamp": "0x6a23e047",
          "transactionHash": "0x1be9ed16f72ed0b43fe6770d6a819669553fb855ba8a52a63456b5cc5a7a6248",
          "transactionIndex": "0x1",
          "logIndex": "0x0",
          "removed": false
        }
      ],
      "logsBloom": "0x00000000000000000000000000000000000000000000000000000000000000000000000000000000000000000000000000000000000000002000000000000000000000000000000000000008000000000000000000000000000000000000000000000000020000008000000000000800000000000000000000000010000000100000000000000000000000000000000000000000000000000000000000000000000000000000000000000000000000000000000000000000000000000000000000000002000000000000000000000000001000000000000000000000080020000000000000000000000000000000000000000000020000000000000000000000",
      "type": "0x2",
      "transactionHash": "0x1be9ed16f72ed0b43fe6770d6a819669553fb855ba8a52a63456b5cc5a7a6248",
      "transactionIndex": "0x1",
      "blockHash": "0xe7bb0d01f4b66422d61b9d62d99d0c7caf0d34a835f1433afa48ec0b17aa960a",
      "blockNumber": "0x25c2eb3",
      "gasUsed": "0x84d7",
      "effectiveGasPrice": "0xba43b7401",
      "blobGasUsed": "0x9c40",
      "from": "0x56a2950dde6b1040d1dcc4b4c4fc314bd56efb0e",
      "to": "0x61a4ac2678048ed431e362c14d2ec7a0b3191966",
      "contractAddress": null,
      "daFootprintGasScalar": "0x190",
      "l1BaseFeeScalar": "0x2943b",
      "l1BlobBaseFee": "0x43fae861",
      "l1BlobBaseFeeScalar": "0x45567c",
      "l1Fee": "0x3b682f7ceffd95",
      "l1GasPrice": "0x43c528d2e",
      "l1GasUsed": "0x640",
      "operatorFeeConstant": "0x0",
      "operatorFeeScalar": "0x5f5e100",
      "tokenRatio": "0xc03"
    },
    {
      "status": "0x1",
      "cumulativeGasUsed": "0x1397e",
      "logs": [
        {
          "address": "0x1054424a70dae9098babec332e18a0f07d37d251",
          "topics": [
            "0xddf252ad1be2c89b69c2b068fc378daa952ba7f163c4a11628f55a4df523b3ef",
            "0x0000000000000000000000000000000000000000000000000000000000000000",
            "0x000000000000000000000000b5f72a0ab0ba971c8c4f69d4a075cb7fd7859e65"
          ],
          "data": "0x0000000000000000000000000000000000000000204fce5e3e25026110000000",
          "blockHash": "0x3bee31120edb64df7123db559860bb65b7f35ed65453bb08f12c2b428c2c9121",
          "blockNumber": "0x25c2eb5",
          "blockTimestamp": "0x6a23e04b",
          "transactionHash": "0x43eceeceb590c9d5bb3bca0e413f350c1b43de6fe738de95658db9bbdc3df540",
          "transactionIndex": "0x1",
          "logIndex": "0x0",
          "removed": false
        }
      ],
      "logsBloom": "0x0000008000000000000000000000000000000000000000000000000000000000000000000000000000000000000000000000000000000000000000000000000000000000000000000000000800000000000000000000000000000000000000000000000002000000800000000000080000000000000000000000001000000010000000000000000000000000000000000000000000000000000000000000000000000000000000000000000000000000000000000000000000000000000000000000000200000000000000000000000000000000000000000000000008002000000000000000000000000000000000000000000000000000000000000c000000",
      "type": "0x2",
      "transactionHash": "0x43eceeceb590c9d5bb3bca0e413f350c1b43de6fe738de95658db9bbdc3df540",
      "transactionIndex": "0x1",
      "blockHash": "0x3bee31120edb64df7123db559860bb65b7f35ed65453bb08f12c2b428c2c9121",
      "blockNumber": "0x25c2eb5",
      "gasUsed": "0x84a3",
      "effectiveGasPrice": "0xba43b7401",
      "blobGasUsed": "0x9c40",
      "from": "0x56a2950dde6b1040d1dcc4b4c4fc314bd56efb0e",
      "to": "0x1054424a70dae9098babec332e18a0f07d37d251",
      "contractAddress": null,
      "daFootprintGasScalar": "0x190",
      "l1BaseFeeScalar": "0x2943b",
      "l1BlobBaseFee": "0x3ed8ab73",
      "l1BlobBaseFeeScalar": "0x45567c",
      "l1Fee": "0x3b9cf89f4f4a32",
      "l1GasPrice": "0x4491bdedf",
      "l1GasUsed": "0x640",
      "operatorFeeConstant": "0x0",
      "operatorFeeScalar": "0x5f5e100",
      "tokenRatio": "0xc03"
    },
    {
      "status": "0x1",
      "cumulativeGasUsed": "0x1397e",
      "logs": [
        {
          "address": "0xbea967ace62d23d335ddad03972659509e1c3559",
          "topics": [
            "0xddf252ad1be2c89b69c2b068fc378daa952ba7f163c4a11628f55a4df523b3ef",
            "0x0000000000000000000000000000000000000000000000000000000000000000",
            "0x000000000000000000000000b5f72a0ab0ba971c8c4f69d4a075cb7fd7859e65"
          ],
          "data": "0x0000000000000000000000000000000000000000204fce5e3e25026110000000",
          "blockHash": "0xec505e0ad9b810a2816c33c4ca8e2dc674384b1f3b9072453a47942e89407eec",
          "blockNumber": "0x25c2eb7",
          "blockTimestamp": "0x6a23e04f",
          "transactionHash": "0xa3ad8c2aede3916e4b088bf8bb2c1443c3abc7f08fdf7b6be2822c16443af2b2",
          "transactionIndex": "0x1",
          "logIndex": "0x0",
          "removed": false
        }
      ],
      "logsBloom": "0x00000000000000000000000000000000000000000000000000000000000010000000000000000000000000000000000000000000000000000000000000000000000000000000000000000008000000000000000000000000000000000000000000000000020000008000000000000800000000008000000000000010000000100000000000000000000000000000000000000000000000000000000000000000000000000000000000000000000040000000000000000000000000000000000000000002000000000000000000000000000000000000000000000000080020000000000000000000000000000000000000000000000000000000000000000000",
      "type": "0x2",
      "transactionHash": "0xa3ad8c2aede3916e4b088bf8bb2c1443c3abc7f08fdf7b6be2822c16443af2b2",
      "transactionIndex": "0x1",
      "blockHash": "0xec505e0ad9b810a2816c33c4ca8e2dc674384b1f3b9072453a47942e89407eec",
      "blockNumber": "0x25c2eb7",
      "gasUsed": "0x84a3",
      "effectiveGasPrice": "0xba43b7401",
      "blobGasUsed": "0x9c40",
      "from": "0x56a2950dde6b1040d1dcc4b4c4fc314bd56efb0e",
      "to": "0xbea967ace62d23d335ddad03972659509e1c3559",
      "contractAddress": null,
      "daFootprintGasScalar": "0x190",
      "l1BaseFeeScalar": "0x2943b",
      "l1BlobBaseFee": "0x3ed8ab73",
      "l1BlobBaseFeeScalar": "0x45567c",
      "l1Fee": "0x3b9cf89f4f4a32",
      "l1GasPrice": "0x4491bdedf",
      "l1GasUsed": "0x640",
      "operatorFeeConstant": "0x0",
      "operatorFeeScalar": "0x5f5e100",
      "tokenRatio": "0xc03"
    },
    {
      "status": "0x1",
      "cumulativeGasUsed": "0x41e22",
      "logs": [
        {
          "address": "0x10d9eb91d0a69098431fb833e666bd64455d45f3",
          "topics": [
            "0xddf252ad1be2c89b69c2b068fc378daa952ba7f163c4a11628f55a4df523b3ef",
            "0x0000000000000000000000000000000000000000000000000000000000000000",
            "0x000000000000000000000000b5f72a0ab0ba971c8c4f69d4a075cb7fd7859e65"
          ],
          "data": "0x0000000000000000000000000000000000000000204fce5e3e25026110000000",
          "blockHash": "0x4c3641fd3046fb95a7e6141a14c40fa7a942c52610bf379e19c56c4782605e89",
          "blockNumber": "0x25c2eb9",
          "blockTimestamp": "0x6a23e053",
          "transactionHash": "0xcd11ab16547bd996694f6c30a58ed90b0b37a7561cf9df30f9f5c33df77b96b2",
          "transactionIndex": "0x2",
          "logIndex": "0x3",
          "removed": false
        }
      ],
      "logsBloom": "0x00000000000000000000000000000000000000000000000000000000000000000000000000000000000000000000000000000000000000000000000000000000000000000000000000000008000000000000000400000000000000000000000000000000020000008000000000000800000000000000000000000010000000100000000000000000000000000004000000000000000000000000000000000000000000000000000000000000000000000000000000000000000000000000000000000002000000000000000000000000000000000000000010000000080020000000000000000000000000000000000000000000000000000000000000000000",
      "type": "0x2",
      "transactionHash": "0xcd11ab16547bd996694f6c30a58ed90b0b37a7561cf9df30f9f5c33df77b96b2",
      "transactionIndex": "0x2",
      "blockHash": "0x4c3641fd3046fb95a7e6141a14c40fa7a942c52610bf379e19c56c4782605e89",
      "blockNumber": "0x25c2eb9",
      "gasUsed": "0x84a3",
      "effectiveGasPrice": "0xba43b7401",
      "blobGasUsed": "0x9c40",
      "from": "0x56a2950dde6b1040d1dcc4b4c4fc314bd56efb0e",
      "to": "0x10d9eb91d0a69098431fb833e666bd64455d45f3",
      "contractAddress": null,
      "daFootprintGasScalar": "0x190",
      "l1BaseFeeScalar": "0x2943b",
      "l1BlobBaseFee": "0x3ed8ab73",
      "l1BlobBaseFeeScalar": "0x45567c",
      "l1Fee": "0x3b9cf89f4f4a32",
      "l1GasPrice": "0x4491bdedf",
      "l1GasUsed": "0x640",
      "operatorFeeConstant": "0x0",
      "operatorFeeScalar": "0x5f5e100",
      "tokenRatio": "0xc03"
    },
    {
      "status": "0x1",
      "cumulativeGasUsed": "0x1c4c2",
      "logs": [
        {
          "address": "0xfda1e869846776e3c182f5e105640ac48d474605",
          "topics": [
            "0xddf252ad1be2c89b69c2b068fc378daa952ba7f163c4a11628f55a4df523b3ef",
            "0x0000000000000000000000000000000000000000000000000000000000000000",
            "0x000000000000000000000000b5f72a0ab0ba971c8c4f69d4a075cb7fd7859e65"
          ],
          "data": "0x0000000000000000000000000000000000000000204fce5e3e25026110000000",
          "blockHash": "0x7d2a73dc62ce7ab8b4d67b83689dd32dd2b097c8eb5a824849e5e437ea8fa702",
          "blockNumber": "0x25c2ebc",
          "blockTimestamp": "0x6a23e059",
          "transactionHash": "0x7f32da41ca373b323430accfa91f5b161f3c4e2863c83b13ecf2b57960a77f54",
          "transactionIndex": "0x2",
          "logIndex": "0x1",
          "removed": false
        }
      ],
      "logsBloom": "0x00000000000000000000000000000000000000000000000000000000000000000000000000000000000000000000000000000000000000000000000000000000000000000000000000000008000000000000000000000000000000000000000080000000020000008000000000000800000000000000000000000010008000108000000000000000000000000000000000000000000000000000000000000000000000000000000000000000000000000000000000000000000000000000000000000002000000000000000000000000000000000000000000000000080020000000000000000000000000000000000000000000000000000000000000000000",
      "type": "0x2",
      "transactionHash": "0x7f32da41ca373b323430accfa91f5b161f3c4e2863c83b13ecf2b57960a77f54",
      "transactionIndex": "0x2",
      "blockHash": "0x7d2a73dc62ce7ab8b4d67b83689dd32dd2b097c8eb5a824849e5e437ea8fa702",
      "blockNumber": "0x25c2ebc",
      "gasUsed": "0x84a3",
      "effectiveGasPrice": "0xba43b7401",
      "blobGasUsed": "0x9c40",
      "from": "0x56a2950dde6b1040d1dcc4b4c4fc314bd56efb0e",
      "to": "0xfda1e869846776e3c182f5e105640ac48d474605",
      "contractAddress": null,
      "daFootprintGasScalar": "0x190",
      "l1BaseFeeScalar": "0x2943b",
      "l1BlobBaseFee": "0x3ed8ab73",
      "l1BlobBaseFeeScalar": "0x45567c",
      "l1Fee": "0x3b9cf89f4f4a32",
      "l1GasPrice": "0x4491bdedf",
      "l1GasUsed": "0x640",
      "operatorFeeConstant": "0x0",
      "operatorFeeScalar": "0x5f5e100",
      "tokenRatio": "0xc03"
    },
    {
      "status": "0x1",
      "cumulativeGasUsed": "0x1397e",
      "logs": [
        {
          "address": "0x3d85b13c76fc218830e3c0d2e147d1a6b8f3cdc8",
          "topics": [
            "0xddf252ad1be2c89b69c2b068fc378daa952ba7f163c4a11628f55a4df523b3ef",
            "0x0000000000000000000000000000000000000000000000000000000000000000",
            "0x000000000000000000000000b5f72a0ab0ba971c8c4f69d4a075cb7fd7859e65"
          ],
          "data": "0x0000000000000000000000000000000000000000204fce5e3e25026110000000",
          "blockHash": "0x50ac4c50b6c3a8ab341caa93151147a92b266d75ba80a35d3bce6e9dddab4fbb",
          "blockNumber": "0x25c2ebe",
          "blockTimestamp": "0x6a23e05d",
          "transactionHash": "0x900edb556ff9d22af34ff03c3bf01be7bf03e75bc2a0e9ab73866fb4b3a695db",
          "transactionIndex": "0x1",
          "logIndex": "0x0",
          "removed": false
        }
      ],
      "logsBloom": "0x00020000000000000000000000000000000000000000000000000000000000000000000000000000000000000000000000000000000000000000000000000000000000000000000000000008000000000000000000000000000000000000000000000000020000008000000000000800000000000000000000000010000000100000000000000000000000000000000000000000000000000000000000000000000000000000000000000000000000000000000000000000000000000000000000000002000010000000000000000000000000000000000000000000080020000000000000000000008000000000000000000000000000000000000000000000",
      "type": "0x2",
      "transactionHash": "0x900edb556ff9d22af34ff03c3bf01be7bf03e75bc2a0e9ab73866fb4b3a695db",
      "transactionIndex": "0x1",
      "blockHash": "0x50ac4c50b6c3a8ab341caa93151147a92b266d75ba80a35d3bce6e9dddab4fbb",
      "blockNumber": "0x25c2ebe",
      "gasUsed": "0x84a3",
      "effectiveGasPrice": "0xba43b7401",
      "blobGasUsed": "0x9c40",
      "from": "0x56a2950dde6b1040d1dcc4b4c4fc314bd56efb0e",
      "to": "0x3d85b13c76fc218830e3c0d2e147d1a6b8f3cdc8",
      "contractAddress": null,
      "daFootprintGasScalar": "0x190",
      "l1BaseFeeScalar": "0x2943b",
      "l1BlobBaseFee": "0x3ed8ab73",
      "l1BlobBaseFeeScalar": "0x45567c",
      "l1Fee": "0x3b9cf89f4f4a32",
      "l1GasPrice": "0x4491bdedf",
      "l1GasUsed": "0x640",
      "operatorFeeConstant": "0x0",
      "operatorFeeScalar": "0x5f5e100",
      "tokenRatio": "0xc03"
    },
    {
      "status": "0x1",
      "cumulativeGasUsed": "0x13972",
      "logs": [
        {
          "address": "0x56514dcf6e038ba1f77530cb9df01b2f9427ea11",
          "topics": [
            "0xddf252ad1be2c89b69c2b068fc378daa952ba7f163c4a11628f55a4df523b3ef",
            "0x0000000000000000000000000000000000000000000000000000000000000000",
            "0x000000000000000000000000b5f72a0ab0ba971c8c4f69d4a075cb7fd7859e65"
          ],
          "data": "0x0000000000000000000000000000000000000000204fce5e3e25026110000000",
          "blockHash": "0x603d073a1e753d11c11db6715a55799c64c77e0913527470cc44ed78b6d416a7",
          "blockNumber": "0x25c2ec1",
          "blockTimestamp": "0x6a23e063",
          "transactionHash": "0x41a1de97982b0f8570335bb972fbee6e5f49fb623efcb46e74ad32be37322a19",
          "transactionIndex": "0x1",
          "logIndex": "0x0",
          "removed": false
        }
      ],
      "logsBloom": "0x20000000000000000000000000000000000000000000000000000000000000000000000008000000000000000000000000000000000000000000000000000000000000000000000000000008000000000000000000000000000000000000000000000000020000008000000000000800000000000000000000000010000000100000000000000000000000000000000000000000000000000000000000000000000000000000000000000000000000000000000000000000000000000000000000000002000000000000000000000000000000000000000000000000080420000000000000000000000000000000000000000000000000000000000000000000",
      "type": "0x2",
      "transactionHash": "0x41a1de97982b0f8570335bb972fbee6e5f49fb623efcb46e74ad32be37322a19",
      "transactionIndex": "0x1",
      "blockHash": "0x603d073a1e753d11c11db6715a55799c64c77e0913527470cc44ed78b6d416a7",
      "blockNumber": "0x25c2ec1",
      "gasUsed": "0x84a3",
      "effectiveGasPrice": "0xba43b7401",
      "blobGasUsed": "0x9c40",
      "from": "0x56a2950dde6b1040d1dcc4b4c4fc314bd56efb0e",
      "to": "0x56514dcf6e038ba1f77530cb9df01b2f9427ea11",
      "contractAddress": null,
      "daFootprintGasScalar": "0x190",
      "l1BaseFeeScalar": "0x2943b",
      "l1BlobBaseFee": "0x3f516f9c",
      "l1BlobBaseFeeScalar": "0x45567c",
      "l1Fee": "0x3bc35d716ef267",
      "l1GasPrice": "0x44b578c95",
      "l1GasUsed": "0x640",
      "operatorFeeConstant": "0x0",
      "operatorFeeScalar": "0x5f5e100",
      "tokenRatio": "0xc03"
    },
    {
      "status": "0x1",
      "cumulativeGasUsed": "0x13972",
      "logs": [
        {
          "address": "0x92cf957248c8a695da67d91835bd02e6371e5bfd",
          "topics": [
            "0xddf252ad1be2c89b69c2b068fc378daa952ba7f163c4a11628f55a4df523b3ef",
            "0x0000000000000000000000000000000000000000000000000000000000000000",
            "0x000000000000000000000000b5f72a0ab0ba971c8c4f69d4a075cb7fd7859e65"
          ],
          "data": "0x0000000000000000000000000000000000000000204fce5e3e25026110000000",
          "blockHash": "0xea68395e9c7ce4b693d6f03e2fb9720eb828a803f78078fb290315f0ba59f61d",
          "blockNumber": "0x25c2ec3",
          "blockTimestamp": "0x6a23e067",
          "transactionHash": "0x5837b653c74adbf89f9cd0f7713ca3dc4fa0c6a8330e9fc9df7ecc8ab09f7d7b",
          "transactionIndex": "0x1",
          "logIndex": "0x0",
          "removed": false
        }
      ],
      "logsBloom": "0x00000000000000000000000000000000000000000000000000000000000000000000000002000000000000000000000000000000000000000000000000000000000000000000000000000008000000000000000000000000000000200000000000000000020000008000000000000800000000004000000000000010000000100000000000000000000000000000000000000000000000000000000000000000000000000000000000000000000000000000000000000000000000000000000000000002000000000000000000000000000000000000000000000000080020000000000000000000000000000000000000000000000000000000000000000000",
      "type": "0x2",
      "transactionHash": "0x5837b653c74adbf89f9cd0f7713ca3dc4fa0c6a8330e9fc9df7ecc8ab09f7d7b",
      "transactionIndex": "0x1",
      "blockHash": "0xea68395e9c7ce4b693d6f03e2fb9720eb828a803f78078fb290315f0ba59f61d",
      "blockNumber": "0x25c2ec3",
      "gasUsed": "0x84a3",
      "effectiveGasPrice": "0xba43b7401",
      "blobGasUsed": "0x9c40",
      "from": "0x56a2950dde6b1040d1dcc4b4c4fc314bd56efb0e",
      "to": "0x92cf957248c8a695da67d91835bd02e6371e5bfd",
      "contractAddress": null,
      "daFootprintGasScalar": "0x190",
      "l1BaseFeeScalar": "0x2943b",
      "l1BlobBaseFee": "0x3f516f9c",
      "l1BlobBaseFeeScalar": "0x45567c",
      "l1Fee": "0x3bc35d716ef267",
      "l1GasPrice": "0x44b578c95",
      "l1GasUsed": "0x640",
      "operatorFeeConstant": "0x0",
      "operatorFeeScalar": "0x5f5e100",
      "tokenRatio": "0xc03"
    },
    {
      "status": "0x1",
      "cumulativeGasUsed": "0x13972",
      "logs": [
        {
          "address": "0x4e3a788cd351f73d70c85f640758d90d7c573a4d",
          "topics": [
            "0xddf252ad1be2c89b69c2b068fc378daa952ba7f163c4a11628f55a4df523b3ef",
            "0x0000000000000000000000000000000000000000000000000000000000000000",
            "0x000000000000000000000000b5f72a0ab0ba971c8c4f69d4a075cb7fd7859e65"
          ],
          "data": "0x0000000000000000000000000000000000000000204fce5e3e25026110000000",
          "blockHash": "0x577327ee50188f0dd8417a7454243785e7a1f42e97fc851d65b7bf4c1507a4de",
          "blockNumber": "0x25c2ec5",
          "blockTimestamp": "0x6a23e06b",
          "transactionHash": "0x4d138ca4c9092baa2855fa342246038ce94c9dab017740cb9897b627fa1cc0dd",
          "transactionIndex": "0x1",
          "logIndex": "0x0",
          "removed": false
        }
      ],
      "logsBloom": "0x00000000000000000000000000000000000000000000000000000000000000000000000000000000000000000000000000000000000000000000000000000000000000000000000000000008000000000000000000000000000000000000020000000000020000008000000000000a00000000000000000000000010000000100000000000000000100000000000000000000000000000000000000000000000000000000000000000000000000000000000000000000000000000000000000000000002000000000000000000000000000000000000000000000000080020000000000000000000000000000000000000000000000000000000000000000000",
      "type": "0x2",
      "transactionHash": "0x4d138ca4c9092baa2855fa342246038ce94c9dab017740cb9897b627fa1cc0dd",
      "transactionIndex": "0x1",
      "blockHash": "0x577327ee50188f0dd8417a7454243785e7a1f42e97fc851d65b7bf4c1507a4de",
      "blockNumber": "0x25c2ec5",
      "gasUsed": "0x84a3",
      "effectiveGasPrice": "0xba43b7401",
      "blobGasUsed": "0x9c40",
      "from": "0x56a2950dde6b1040d1dcc4b4c4fc314bd56efb0e",
      "to": "0x4e3a788cd351f73d70c85f640758d90d7c573a4d",
      "contractAddress": null,
      "daFootprintGasScalar": "0x190",
      "l1BaseFeeScalar": "0x2943b",
      "l1BlobBaseFee": "0x3f516f9c",
      "l1BlobBaseFeeScalar": "0x45567c",
      "l1Fee": "0x3bc35d716ef267",
      "l1GasPrice": "0x44b578c95",
      "l1GasUsed": "0x640",
      "operatorFeeConstant": "0x0",
      "operatorFeeScalar": "0x5f5e100",
      "tokenRatio": "0xc03"
    },
    {
      "status": "0x1",
      "cumulativeGasUsed": "0x1c4c2",
      "logs": [
        {
          "address": "0xbc58f30dfaae433f5531a037365c06b98960e54a",
          "topics": [
            "0xddf252ad1be2c89b69c2b068fc378daa952ba7f163c4a11628f55a4df523b3ef",
            "0x0000000000000000000000000000000000000000000000000000000000000000",
            "0x000000000000000000000000b5f72a0ab0ba971c8c4f69d4a075cb7fd7859e65"
          ],
          "data": "0x0000000000000000000000000000000000000000204fce5e3e25026110000000",
          "blockHash": "0x1d92cdc7d08989d7a508f0b293be774dce38e196fea970011976e9e731997536",
          "blockNumber": "0x25c2ec8",
          "blockTimestamp": "0x6a23e071",
          "transactionHash": "0x87e400820815e3e3047b1362e0ddbd73403d84ea11e4acd67b2f7a78c6a684c4",
          "transactionIndex": "0x2",
          "logIndex": "0x1",
          "removed": false
        }
      ],
      "logsBloom": "0x00000000000000000000000000000000000000000000000000000000000000000000000000000000000000000000000000000000000000000000000000000000000000000000000000000008000000000000000000000000000000000000000000000000020000008000000000000800000000000000000000000010000000100100000000000000000000000000000000000000000000000000000000000000000000000000000000000000000000000000000000000000000000080000000000000002000000000000000000000002000000000000000000000000080020000000000000000000000000000000000000000000000000000000000000000000",
      "type": "0x2",
      "transactionHash": "0x87e400820815e3e3047b1362e0ddbd73403d84ea11e4acd67b2f7a78c6a684c4",
      "transactionIndex": "0x2",
      "blockHash": "0x1d92cdc7d08989d7a508f0b293be774dce38e196fea970011976e9e731997536",
      "blockNumber": "0x25c2ec8",
      "gasUsed": "0x84a3",
      "effectiveGasPrice": "0xba43b7401",
      "blobGasUsed": "0x9c40",
      "from": "0x56a2950dde6b1040d1dcc4b4c4fc314bd56efb0e",
      "to": "0xbc58f30dfaae433f5531a037365c06b98960e54a",
      "contractAddress": null,
      "daFootprintGasScalar": "0x190",
      "l1BaseFeeScalar": "0x2943b",
      "l1BlobBaseFee": "0x4045b1dd",
      "l1BlobBaseFeeScalar": "0x45567c",
      "l1Fee": "0x3ba77a59748ddd",
      "l1GasPrice": "0x4478a7bfd",
      "l1GasUsed": "0x640",
      "operatorFeeConstant": "0x0",
      "operatorFeeScalar": "0x5f5e100",
      "tokenRatio": "0xc03"
    },
    {
      "status": "0x1",
      "cumulativeGasUsed": "0x1397e",
      "logs": [
        {
          "address": "0x1d7939e37e08802a6b86204f8e3c52ba4a6cbfba",
          "topics": [
            "0xddf252ad1be2c89b69c2b068fc378daa952ba7f163c4a11628f55a4df523b3ef",
            "0x0000000000000000000000000000000000000000000000000000000000000000",
            "0x000000000000000000000000b5f72a0ab0ba971c8c4f69d4a075cb7fd7859e65"
          ],
          "data": "0x0000000000000000000000000000000000000000204fce5e3e25026110000000",
          "blockHash": "0x79bf1ccb3f1988fcd03d82f9a7d96ed3847decf0594ae967effc66dd689fa593",
          "blockNumber": "0x25c2eca",
          "blockTimestamp": "0x6a23e075",
          "transactionHash": "0x141bebefbc24a1f7aa25aeff1c66173b5435c5b152e1c1d1464f29fd700a5e05",
          "transactionIndex": "0x1",
          "logIndex": "0x0",
          "removed": false
        }
      ],
      "logsBloom": "0x00000000000000000000000000000000000000000000000000000000000000000000000000000000000000000000000000000000000000000000000000000000000000000000000000080008000000000000000000000000000000000000000000000000021000008000000000000800000000000000000000000010000000100000000000000000000000000000000000000000000000000000000000000000000000000000000000000000000000000000000000000000000000000000000000000002000000000000000000000000000000000000000000000000080020000000000000000000000000000000000000000000000000002000000000000000",
      "type": "0x2",
      "transactionHash": "0x141bebefbc24a1f7aa25aeff1c66173b5435c5b152e1c1d1464f29fd700a5e05",
      "transactionIndex": "0x1",
      "blockHash": "0x79bf1ccb3f1988fcd03d82f9a7d96ed3847decf0594ae967effc66dd689fa593",
      "blockNumber": "0x25c2eca",
      "gasUsed": "0x84a3",
      "effectiveGasPrice": "0xba43b7401",
      "blobGasUsed": "0x9c40",
      "from": "0x56a2950dde6b1040d1dcc4b4c4fc314bd56efb0e",
      "to": "0x1d7939e37e08802a6b86204f8e3c52ba4a6cbfba",
      "contractAddress": null,
      "daFootprintGasScalar": "0x190",
      "l1BaseFeeScalar": "0x2943b",
      "l1BlobBaseFee": "0x4045b1dd",
      "l1BlobBaseFeeScalar": "0x45567c",
      "l1Fee": "0x3ba77a59748ddd",
      "l1GasPrice": "0x4478a7bfd",
      "l1GasUsed": "0x640",
      "operatorFeeConstant": "0x0",
      "operatorFeeScalar": "0x5f5e100",
      "tokenRatio": "0xc03"
    },
    {
      "status": "0x1",
      "cumulativeGasUsed": "0x16532",
      "logs": [
        {
          "address": "0x932e82632e80b06318ca969e33f99a54f1a04b10",
          "topics": [
            "0xddf252ad1be2c89b69c2b068fc378daa952ba7f163c4a11628f55a4df523b3ef",
            "0x0000000000000000000000000000000000000000000000000000000000000000",
            "0x000000000000000000000000b5f72a0ab0ba971c8c4f69d4a075cb7fd7859e65"
          ],
          "data": "0x0000000000000000000000000000000000000000204fce5e3e25026110000000",
          "blockHash": "0xc329a7ae9cb3ec1b9828284d895acf0b31ca8d3741bda0f9f787a9d51c7de75c",
          "blockNumber": "0x25c2ecc",
          "blockTimestamp": "0x6a23e079",
          "transactionHash": "0xfe9c286df34ce223eca4c457b0dd9b48c87b67137d5f965835646834cc0b4e9e",
          "transactionIndex": "0x1",
          "logIndex": "0x0",
          "removed": false
        }
      ],
      "logsBloom": "0x00000000000000000000000000000000000000000000000000000800000000000000000000000000000000000000000000000000000000000000000000000000000000000000000000000008000000000000000000000000000000000000000000000000020000008000000000000800000000000002000000000010000000100000000000000000000000000000000000000000000000000200000000000000000000000000000000000000000000000000000000000000000000000000000000000002000000000000000000000000000000000000000000000000080020000000000000000000000000000000000000000000000000000000000000000000",
      "type": "0x2",
      "transactionHash": "0xfe9c286df34ce223eca4c457b0dd9b48c87b67137d5f965835646834cc0b4e9e",
      "transactionIndex": "0x1",
      "blockHash": "0xc329a7ae9cb3ec1b9828284d895acf0b31ca8d3741bda0f9f787a9d51c7de75c",
      "blockNumber": "0x25c2ecc",
      "gasUsed": "0x84a3",
      "effectiveGasPrice": "0xba43b7401",
      "blobGasUsed": "0x9c40",
      "from": "0x56a2950dde6b1040d1dcc4b4c4fc314bd56efb0e",
      "to": "0x932e82632e80b06318ca969e33f99a54f1a04b10",
      "contractAddress": null,
      "daFootprintGasScalar": "0x190",
      "l1BaseFeeScalar": "0x2943b",
      "l1BlobBaseFee": "0x4338c7fa",
      "l1BlobBaseFeeScalar": "0x45567c",
      "l1Fee": "0x3c18a5d024cabe",
      "l1GasPrice": "0x44b80eb91",
      "l1GasUsed": "0x640",
      "operatorFeeConstant": "0x0",
      "operatorFeeScalar": "0x5f5e100",
      "tokenRatio": "0xc03"
    },
    {
      "status": "0x1",
      "cumulativeGasUsed": "0x1397e",
      "logs": [
        {
          "address": "0xf380e8b6803ad065ef0567dd20c894a55050737c",
          "topics": [
            "0xddf252ad1be2c89b69c2b068fc378daa952ba7f163c4a11628f55a4df523b3ef",
            "0x0000000000000000000000000000000000000000000000000000000000000000",
            "0x000000000000000000000000b5f72a0ab0ba971c8c4f69d4a075cb7fd7859e65"
          ],
          "data": "0x0000000000000000000000000000000000000000204fce5e3e25026110000000",
          "blockHash": "0x780cb6a53b19f4a9ee28605c1393ed10541640fdf130aab65e1c133cd5053c48",
          "blockNumber": "0x25c2ece",
          "blockTimestamp": "0x6a23e07d",
          "transactionHash": "0x5e1571b70e0f94ed7fd971340b01f9bbec5c61f6cc377ae82ad606618bcceeb5",
          "transactionIndex": "0x1",
          "logIndex": "0x0",
          "removed": false
        }
      ],
      "logsBloom": "0x00000000000000000000000000000040000000000000000000000000000000000000000000000000000000000000000000000000000000000000000000000000000000000000000000000008000000000040400000000000000000000000000000000000020000008000000000000800000000000000000000000010000000100000000000000000000000000000000000000000000000000000000000000000000000000000000000000000000000000000000000000000000000000000000000000002000000000000000000000000000000000000000000000000080020000000000000000000000000000000000000000000000000000000000000000000",
      "type": "0x2",
      "transactionHash": "0x5e1571b70e0f94ed7fd971340b01f9bbec5c61f6cc377ae82ad606618bcceeb5",
      "transactionIndex": "0x1",
      "blockHash": "0x780cb6a53b19f4a9ee28605c1393ed10541640fdf130aab65e1c133cd5053c48",
      "blockNumber": "0x25c2ece",
      "gasUsed": "0x84a3",
      "effectiveGasPrice": "0xba43b7401",
      "blobGasUsed": "0x9c40",
      "from": "0x56a2950dde6b1040d1dcc4b4c4fc314bd56efb0e",
      "to": "0xf380e8b6803ad065ef0567dd20c894a55050737c",
      "contractAddress": null,
      "daFootprintGasScalar": "0x190",
      "l1BaseFeeScalar": "0x2943b",
      "l1BlobBaseFee": "0x4338c7fa",
      "l1BlobBaseFeeScalar": "0x45567c",
      "l1Fee": "0x3c18a5d024cabe",
      "l1GasPrice": "0x44b80eb91",
      "l1GasUsed": "0x640",
      "operatorFeeConstant": "0x0",
      "operatorFeeScalar": "0x5f5e100",
      "tokenRatio": "0xc03"
    },
    {
      "status": "0x1",
      "cumulativeGasUsed": "0x1397e",
      "logs": [
        {
          "address": "0x5b0770513b6cd76bf225462f3ec42783e8da69a1",
          "topics": [
            "0xddf252ad1be2c89b69c2b068fc378daa952ba7f163c4a11628f55a4df523b3ef",
            "0x0000000000000000000000000000000000000000000000000000000000000000",
            "0x000000000000000000000000b5f72a0ab0ba971c8c4f69d4a075cb7fd7859e65"
          ],
          "data": "0x0000000000000000000000000000000000000000204fce5e3e25026110000000",
          "blockHash": "0x0fafccf9343fafc53b2dcfa2b5c08bce2566806dd42d76b7d700b5b4ad98d165",
          "blockNumber": "0x25c2ed0",
          "blockTimestamp": "0x6a23e081",
          "transactionHash": "0xa887a3afb0eae204512ffec73bcf052d1688c24efcf90f500391132a0c764259",
          "transactionIndex": "0x1",
          "logIndex": "0x0",
          "removed": false
        }
      ],
      "logsBloom": "0x00000000000000000000000001000000000000000000000000000000000000000000000000000000000000000000000000000000000000000000000000000000000000000000000000200008000000000000000000000000000000000080000000000000020000008000000000000800000000000000000000000010000000100000000000000000000000000000000000000000000000000000000000000000000000000000000000000000000000000000000000000000000000000000000000000002000000000000000000000000000000000000000000000000080020000000000000000000000000000000000000000000000000000000000000000000",
      "type": "0x2",
      "transactionHash": "0xa887a3afb0eae204512ffec73bcf052d1688c24efcf90f500391132a0c764259",
      "transactionIndex": "0x1",
      "blockHash": "0x0fafccf9343fafc53b2dcfa2b5c08bce2566806dd42d76b7d700b5b4ad98d165",
      "blockNumber": "0x25c2ed0",
      "gasUsed": "0x84a3",
      "effectiveGasPrice": "0xba43b7401",
      "blobGasUsed": "0x9c40",
      "from": "0x56a2950dde6b1040d1dcc4b4c4fc314bd56efb0e",
      "to": "0x5b0770513b6cd76bf225462f3ec42783e8da69a1",
      "contractAddress": null,
      "daFootprintGasScalar": "0x190",
      "l1BaseFeeScalar": "0x2943b",
      "l1BlobBaseFee": "0x4338c7fa",
      "l1BlobBaseFeeScalar": "0x45567c",
      "l1Fee": "0x3c18a5d024cabe",
      "l1GasPrice": "0x44b80eb91",
      "l1GasUsed": "0x640",
      "operatorFeeConstant": "0x0",
      "operatorFeeScalar": "0x5f5e100",
      "tokenRatio": "0xc03"
    },
    {
      "status": "0x1",
      "cumulativeGasUsed": "0x16532",
      "logs": [
        {
          "address": "0x0aa42416baccdb2fd4768b61111deb7f7d212f9b",
          "topics": [
            "0xddf252ad1be2c89b69c2b068fc378daa952ba7f163c4a11628f55a4df523b3ef",
            "0x0000000000000000000000000000000000000000000000000000000000000000",
            "0x000000000000000000000000b5f72a0ab0ba971c8c4f69d4a075cb7fd7859e65"
          ],
          "data": "0x0000000000000000000000000000000000000000204fce5e3e25026110000000",
          "blockHash": "0xb81bad67fc474556cf9cd3e352f28c7c7643955b8b4b5496968f31bcbec0d4bd",
          "blockNumber": "0x25c2ed2",
          "blockTimestamp": "0x6a23e085",
          "transactionHash": "0x61aa72f9d549a72fe6f06b58aa880cf0bbabfd6d31f7f88d153872cf016ea955",
          "transactionIndex": "0x1",
          "logIndex": "0x0",
          "removed": false
        }
      ],
      "logsBloom": "0x00000000000000000000000000000000000000000000000000080000000000000000000000000000000000000000000000000000000000000000000000000000000000000000000000000008000000000000000000000000000000000000000000000000020000008000000000000800000000000000000000000010000000100000000000000000000000000000000000000000000000000000000000000000000000000000000000000000001000000000000000000000000000000000000000000002000000000000000000000000000000000000000000000000080020000000000000000000000002000000000000000000000000000000000000000000",
      "type": "0x2",
      "transactionHash": "0x61aa72f9d549a72fe6f06b58aa880cf0bbabfd6d31f7f88d153872cf016ea955",
      "transactionIndex": "0x1",
      "blockHash": "0xb81bad67fc474556cf9cd3e352f28c7c7643955b8b4b5496968f31bcbec0d4bd",
      "blockNumber": "0x25c2ed2",
      "gasUsed": "0x84a3",
      "effectiveGasPrice": "0xba43b7401",
      "blobGasUsed": "0x9c40",
      "from": "0x56a2950dde6b1040d1dcc4b4c4fc314bd56efb0e",
      "to": "0x0aa42416baccdb2fd4768b61111deb7f7d212f9b",
      "contractAddress": null,
      "daFootprintGasScalar": "0x190",
      "l1BaseFeeScalar": "0x2943b",
      "l1BlobBaseFee": "0x443c195a",
      "l1BlobBaseFeeScalar": "0x45567c",
      "l1Fee": "0x3c528eb8fe05e9",
      "l1GasPrice": "0x44e5d86b3",
      "l1GasUsed": "0x640",
      "operatorFeeConstant": "0x0",
      "operatorFeeScalar": "0x5f5e100",
      "tokenRatio": "0xc03"
    },
    {
      "status": "0x1",
      "cumulativeGasUsed": "0x1397e",
      "logs": [
        {
          "address": "0xb3e1f06ac529aded2aa20aa38f4c0b4ad317e5f5",
          "topics": [
            "0xddf252ad1be2c89b69c2b068fc378daa952ba7f163c4a11628f55a4df523b3ef",
            "0x0000000000000000000000000000000000000000000000000000000000000000",
            "0x000000000000000000000000b5f72a0ab0ba971c8c4f69d4a075cb7fd7859e65"
          ],
          "data": "0x0000000000000000000000000000000000000000204fce5e3e25026110000000",
          "blockHash": "0xc5adff6ca170fd27e7cde6242708837f3dd490eceb857fdb9f32d918ef2bf517",
          "blockNumber": "0x25c2ed4",
          "blockTimestamp": "0x6a23e089",
          "transactionHash": "0x52708ff451cd77aa52445222b3c9ab868fd4cfcd77c5e9ffabb3846f0ecf929f",
          "transactionIndex": "0x1",
          "logIndex": "0x0",
          "removed": false
        }
      ],
      "logsBloom": "0x00000000000000000000000000000000000000000000000000000000000000000000000000000000000000000000000000000000000000000000000000000000000000000000000000000008000000000000000000000000000000000000000000000000020000008000000000000800000000000000000000000010000000100000000000000000000000000000000000000000000000000000000000000000000000000000000000000000000000000000040000000000000000000000000000000002000000000010000000000000000000000000000008000000080020000000000000000000000000000000000000000000000000000000000000000000",
      "type": "0x2",
      "transactionHash": "0x52708ff451cd77aa52445222b3c9ab868fd4cfcd77c5e9ffabb3846f0ecf929f",
      "transactionIndex": "0x1",
      "blockHash": "0xc5adff6ca170fd27e7cde6242708837f3dd490eceb857fdb9f32d918ef2bf517",
      "blockNumber": "0x25c2ed4",
      "gasUsed": "0x84a3",
      "effectiveGasPrice": "0xba43b7401",
      "blobGasUsed": "0x9c40",
      "from": "0x56a2950dde6b1040d1dcc4b4c4fc314bd56efb0e",
      "to": "0xb3e1f06ac529aded2aa20aa38f4c0b4ad317e5f5",
      "contractAddress": null,
      "daFootprintGasScalar": "0x190",
      "l1BaseFeeScalar": "0x2943b",
      "l1BlobBaseFee": "0x443c195a",
      "l1BlobBaseFeeScalar": "0x45567c",
      "l1Fee": "0x3c528eb8fe05e9",
      "l1GasPrice": "0x44e5d86b3",
      "l1GasUsed": "0x640",
      "operatorFeeConstant": "0x0",
      "operatorFeeScalar": "0x5f5e100",
      "tokenRatio": "0xc03"
    },
    {
      "status": "0x1",
      "cumulativeGasUsed": "0x1397e",
      "logs": [
        {
          "address": "0x62e518611d5a135a50c18e5fcf3a333d6d3a0506",
          "topics": [
            "0xddf252ad1be2c89b69c2b068fc378daa952ba7f163c4a11628f55a4df523b3ef",
            "0x0000000000000000000000000000000000000000000000000000000000000000",
            "0x000000000000000000000000b5f72a0ab0ba971c8c4f69d4a075cb7fd7859e65"
          ],
          "data": "0x0000000000000000000000000000000000000000204fce5e3e25026110000000",
          "blockHash": "0x3e2f1051b4bcc049acc9abe8430535fe9e146ce54777b19527d5b0bb8ce6a163",
          "blockNumber": "0x25c2ed6",
          "blockTimestamp": "0x6a23e08d",
          "transactionHash": "0x1dfab45df101d4985ff95b772694d3af606772967e93c949d3939b8baa75e5b2",
          "transactionIndex": "0x1",
          "logIndex": "0x0",
          "removed": false
        }
      ],
      "logsBloom": "0x00000000000000000000000000000000000000000000000000000000000000000000000000000000000000000000000000000000000000000000000000000000000000000000000000000008000000000000000000000000000000000000000000000000020000008000000000000800000000000000000000000010000000100000000000000002000000000000000000000000000000800000000000000000000000000000000000010000000000000000000000000000000000000000000000000002000000000000000000000000000000000000000000000000080020000000000000000000000000000000000000000000000000000000000000000000",
      "type": "0x2",
      "transactionHash": "0x1dfab45df101d4985ff95b772694d3af606772967e93c949d3939b8baa75e5b2",
      "transactionIndex": "0x1",
      "blockHash": "0x3e2f1051b4bcc049acc9abe8430535fe9e146ce54777b19527d5b0bb8ce6a163",
      "blockNumber": "0x25c2ed6",
      "gasUsed": "0x84a3",
      "effectiveGasPrice": "0xba43b7401",
      "blobGasUsed": "0x9c40",
      "from": "0x56a2950dde6b1040d1dcc4b4c4fc314bd56efb0e",
      "to": "0x62e518611d5a135a50c18e5fcf3a333d6d3a0506",
      "contractAddress": null,
      "daFootprintGasScalar": "0x190",
      "l1BaseFeeScalar": "0x2943b",
      "l1BlobBaseFee": "0x443c195a",
      "l1BlobBaseFeeScalar": "0x45567c",
      "l1Fee": "0x3c528eb8fe05e9",
      "l1GasPrice": "0x44e5d86b3",
      "l1GasUsed": "0x640",
      "operatorFeeConstant": "0x0",
      "operatorFeeScalar": "0x5f5e100",
      "tokenRatio": "0xc03"
    },
    {
      "status": "0x1",
      "cumulativeGasUsed": "0x1397e",
      "logs": [
        {
          "address": "0xc43bd39225a38ce33751c55c74741834a8e82d16",
          "topics": [
            "0xddf252ad1be2c89b69c2b068fc378daa952ba7f163c4a11628f55a4df523b3ef",
            "0x0000000000000000000000000000000000000000000000000000000000000000",
            "0x000000000000000000000000b5f72a0ab0ba971c8c4f69d4a075cb7fd7859e65"
          ],
          "data": "0x0000000000000000000000000000000000000000204fce5e3e25026110000000",
          "blockHash": "0x51c06502c00cba91329a38933d1cfe6ec969935c069393adbfde06eb14044d9a",
          "blockNumber": "0x25c2ed9",
          "blockTimestamp": "0x6a23e093",
          "transactionHash": "0x45e711031b1e745917bb3488eed2d5d519d2151d364a78c044f8c40fe2e5a1ca",
          "transactionIndex": "0x1",
          "logIndex": "0x0",
          "removed": false
        }
      ],
      "logsBloom": "0x00000000000000000000002000000000000000000000000000000000000000000000000000800000000000000000000000000000000000000000000000000000000000000000000000000008010000000000000000000000000000000000000000000000020000008000000000000800000000000000000000000010000000100000000000000000000000000000000000000000000000000000000000000000000000000000000000000000000000000000000000000000000000000000000000000002000000000000000000000000000000000000000000000000080020000000000000000000000000000000000000000000000000000000000000000000",
      "type": "0x2",
      "transactionHash": "0x45e711031b1e745917bb3488eed2d5d519d2151d364a78c044f8c40fe2e5a1ca",
      "transactionIndex": "0x1",
      "blockHash": "0x51c06502c00cba91329a38933d1cfe6ec969935c069393adbfde06eb14044d9a",
      "blockNumber": "0x25c2ed9",
      "gasUsed": "0x84a3",
      "effectiveGasPrice": "0xba43b7401",
      "blobGasUsed": "0x9c40",
      "from": "0x56a2950dde6b1040d1dcc4b4c4fc314bd56efb0e",
      "to": "0xc43bd39225a38ce33751c55c74741834a8e82d16",
      "contractAddress": null,
      "daFootprintGasScalar": "0x190",
      "l1BaseFeeScalar": "0x2943b",
      "l1BlobBaseFee": "0x464e84a3",
      "l1BlobBaseFeeScalar": "0x45567c",
      "l1Fee": "0x412a6fa4909a82",
      "l1GasPrice": "0x4ac99208b",
      "l1GasUsed": "0x640",
      "operatorFeeConstant": "0x0",
      "operatorFeeScalar": "0x5f5e100",
      "tokenRatio": "0xc03"
    },
    {
      "status": "0x1",
      "cumulativeGasUsed": "0x1397e",
      "logs": [
        {
          "address": "0x6289654b4197744800d761a4641ba0c4a79f5ed1",
          "topics": [
            "0xddf252ad1be2c89b69c2b068fc378daa952ba7f163c4a11628f55a4df523b3ef",
            "0x0000000000000000000000000000000000000000000000000000000000000000",
            "0x000000000000000000000000b5f72a0ab0ba971c8c4f69d4a075cb7fd7859e65"
          ],
          "data": "0x0000000000000000000000000000000000000000204fce5e3e25026110000000",
          "blockHash": "0x1de2fb6b227668200dcf05d0a3c5636aaeb50f8aa50a764381064d0340f51bce",
          "blockNumber": "0x25c2edb",
          "blockTimestamp": "0x6a23e097",
          "transactionHash": "0xa9281438cddb793ba51e022dfaa0cf099a15a244577e1a0a96101def8984c69c",
          "transactionIndex": "0x1",
          "logIndex": "0x0",
          "removed": false
        }
      ],
      "logsBloom": "0x00000000000000000000000000000000800000000000000000000000000000000000000000000000000000000000000000000000000000000000000000000000000000000000000000000008000000000000000000000000000000000000000000000000020000008000000000000800000000000000000000000010000000100000000000000000000000000000040000000000000000000000000000000000000000000000000020000000000000000000000000000000000000000000000000000002000000000000000000000000000000000000000000000000080020000000000000000000000000000000000000000000000000000000000000000000",
      "type": "0x2",
      "transactionHash": "0xa9281438cddb793ba51e022dfaa0cf099a15a244577e1a0a96101def8984c69c",
      "transactionIndex": "0x1",
      "blockHash": "0x1de2fb6b227668200dcf05d0a3c5636aaeb50f8aa50a764381064d0340f51bce",
      "blockNumber": "0x25c2edb",
      "gasUsed": "0x84a3",
      "effectiveGasPrice": "0xba43b7401",
      "blobGasUsed": "0x9c40",
      "from": "0x56a2950dde6b1040d1dcc4b4c4fc314bd56efb0e",
      "to": "0x6289654b4197744800d761a4641ba0c4a79f5ed1",
      "contractAddress": null,
      "daFootprintGasScalar": "0x190",
      "l1BaseFeeScalar": "0x2943b",
      "l1BlobBaseFee": "0x464e84a3",
      "l1BlobBaseFeeScalar": "0x45567c",
      "l1Fee": "0x412a6fa4909a82",
      "l1GasPrice": "0x4ac99208b",
      "l1GasUsed": "0x640",
      "operatorFeeConstant": "0x0",
      "operatorFeeScalar": "0x5f5e100",
      "tokenRatio": "0xc03"
    },
    {
      "status": "0x1",
      "cumulativeGasUsed": "0x1397e",
      "logs": [
        {
          "address": "0x7bb9e063dab0b53fb7b7b438548d5a8c62e3afb7",
          "topics": [
            "0xddf252ad1be2c89b69c2b068fc378daa952ba7f163c4a11628f55a4df523b3ef",
            "0x0000000000000000000000000000000000000000000000000000000000000000",
            "0x000000000000000000000000b5f72a0ab0ba971c8c4f69d4a075cb7fd7859e65"
          ],
          "data": "0x0000000000000000000000000000000000000000204fce5e3e25026110000000",
          "blockHash": "0x8be0eba94ba6fa139bacd8b8b5d4c9dcd8f506d403a9bf8ba928134ecb78857c",
          "blockNumber": "0x25c2edd",
          "blockTimestamp": "0x6a23e09b",
          "transactionHash": "0xa5f78f1e659537b6bc60d532d120eaf10d0918f0ca71d2e04fbaa6fe7da7cf25",
          "transactionIndex": "0x1",
          "logIndex": "0x0",
          "removed": false
        }
      ],
      "logsBloom": "0x00000000000000000000000000000000000000000000000000000000000000000000000000000000000000000000000000000000000000000000000000000000000000000000000000000008000000000000000000000000000000000000000000000000020000008000000000000800000000000000000000000010000000100000000000000000000000000000000000000000001000000000000000002200000000000000000000000000000000000000000000000000000000000000000000000002000000000000000000000000000000000000000000000000080020000000000000000000000000000000000000000000000000000000000000000000",
      "type": "0x2",
      "transactionHash": "0xa5f78f1e659537b6bc60d532d120eaf10d0918f0ca71d2e04fbaa6fe7da7cf25",
      "transactionIndex": "0x1",
      "blockHash": "0x8be0eba94ba6fa139bacd8b8b5d4c9dcd8f506d403a9bf8ba928134ecb78857c",
      "blockNumber": "0x25c2edd",
      "gasUsed": "0x84a3",
      "effectiveGasPrice": "0xba43b7401",
      "blobGasUsed": "0x9c40",
      "from": "0x56a2950dde6b1040d1dcc4b4c4fc314bd56efb0e",
      "to": "0x7bb9e063dab0b53fb7b7b438548d5a8c62e3afb7",
      "contractAddress": null,
      "daFootprintGasScalar": "0x190",
      "l1BaseFeeScalar": "0x2943b",
      "l1BlobBaseFee": "0x464e84a3",
      "l1BlobBaseFeeScalar": "0x45567c",
      "l1Fee": "0x412a6fa4909a82",
      "l1GasPrice": "0x4ac99208b",
      "l1GasUsed": "0x640",
      "operatorFeeConstant": "0x0",
      "operatorFeeScalar": "0x5f5e100",
      "tokenRatio": "0xc03"
    },
    {
      "status": "0x1",
      "cumulativeGasUsed": "0x1c4c2",
      "logs": [
        {
          "address": "0x6956dbbeb8eca1160ae21d2d703cdf6b86525825",
          "topics": [
            "0xddf252ad1be2c89b69c2b068fc378daa952ba7f163c4a11628f55a4df523b3ef",
            "0x0000000000000000000000000000000000000000000000000000000000000000",
            "0x000000000000000000000000b5f72a0ab0ba971c8c4f69d4a075cb7fd7859e65"
          ],
          "data": "0x0000000000000000000000000000000000000000204fce5e3e25026110000000",
          "blockHash": "0xb896a4ad316d3aa50fa88ebe4e96427cd99ef637c2bf03c22cdd767efb07a545",
          "blockNumber": "0x25c2edf",
          "blockTimestamp": "0x6a23e09f",
          "transactionHash": "0xfeb06b4fb5cd69cd22664a17d7e24c5a4d9c788680b7afd63fa5047cf3fc629f",
          "transactionIndex": "0x2",
          "logIndex": "0x1",
          "removed": false
        }
      ],
      "logsBloom": "0x00000000000000000000000000000000000000000000000000000000000000000000000000000000000000000000000000100000000000000000000000000000000000000000000000000008800000000000000000000000000000000000000000000000020000008000000000000800000000000000000000000010000000100000000000000000000000000000000000000000000000000000000000000000000000000000000000000000000000000000000000000000000000000000000000000002000000000000000000000000000000000000000000000000080020000000000000000000000000000000000000000000000020000000000000000000",
      "type": "0x2",
      "transactionHash": "0xfeb06b4fb5cd69cd22664a17d7e24c5a4d9c788680b7afd63fa5047cf3fc629f",
      "transactionIndex": "0x2",
      "blockHash": "0xb896a4ad316d3aa50fa88ebe4e96427cd99ef637c2bf03c22cdd767efb07a545",
      "blockNumber": "0x25c2edf",
      "gasUsed": "0x84a3",
      "effectiveGasPrice": "0xba43b7401",
      "blobGasUsed": "0x9c40",
      "from": "0x56a2950dde6b1040d1dcc4b4c4fc314bd56efb0e",
      "to": "0x6956dbbeb8eca1160ae21d2d703cdf6b86525825",
      "contractAddress": null,
      "daFootprintGasScalar": "0x190",
      "l1BaseFeeScalar": "0x2943b",
      "l1BlobBaseFee": "0x4691f12e",
      "l1BlobBaseFeeScalar": "0x45567c",
      "l1Fee": "0x3fa957cff58628",
      "l1GasPrice": "0x48dce7a25",
      "l1GasUsed": "0x640",
      "operatorFeeConstant": "0x0",
      "operatorFeeScalar": "0x5f5e100",
      "tokenRatio": "0xc03"
    },
    {
      "status": "0x1",
      "cumulativeGasUsed": "0x1397e",
      "logs": [
        {
          "address": "0xc2226548fb4332dce1e31dc317bcf61effd51375",
          "topics": [
            "0xddf252ad1be2c89b69c2b068fc378daa952ba7f163c4a11628f55a4df523b3ef",
            "0x0000000000000000000000000000000000000000000000000000000000000000",
            "0x000000000000000000000000b5f72a0ab0ba971c8c4f69d4a075cb7fd7859e65"
          ],
          "data": "0x0000000000000000000000000000000000000000204fce5e3e25026110000000",
          "blockHash": "0xa4c29690bf45f7f2ed4c0d74f940ceb227da445f62d6600a97fefac99834ad5a",
          "blockNumber": "0x25c2ee1",
          "blockTimestamp": "0x6a23e0a3",
          "transactionHash": "0x040e9426b074a613bc901fe7f5e15bb903db800b9a5671050b2f013287f313ea",
          "transactionIndex": "0x1",
          "logIndex": "0x0",
          "removed": false
        }
      ],
      "logsBloom": "0x00000000000000000000000000000000000000000000000000000000000000000000000000000000000000004000000000000000000000000001000000000000000000000000000000000008000000000000000000000000000000000000000000000000020000008000000000000800000000000000000000000010800000100000000000000000000000000000000000000000000000000000000000000000000000000000000000000000000000000000000000000000000000000000000000000002000000000000000000000000000000000000000000000000080020000000000000000000000000000000000000000000000000000000000000000000",
      "type": "0x2",
      "transactionHash": "0x040e9426b074a613bc901fe7f5e15bb903db800b9a5671050b2f013287f313ea",
      "transactionIndex": "0x1",
      "blockHash": "0xa4c29690bf45f7f2ed4c0d74f940ceb227da445f62d6600a97fefac99834ad5a",
      "blockNumber": "0x25c2ee1",
      "gasUsed": "0x84a3",
      "effectiveGasPrice": "0xba43b7401",
      "blobGasUsed": "0x9c40",
      "from": "0x56a2950dde6b1040d1dcc4b4c4fc314bd56efb0e",
      "to": "0xc2226548fb4332dce1e31dc317bcf61effd51375",
      "contractAddress": null,
      "daFootprintGasScalar": "0x190",
      "l1BaseFeeScalar": "0x2943b",
      "l1BlobBaseFee": "0x4691f12e",
      "l1BlobBaseFeeScalar": "0x45567c",
      "l1Fee": "0x3fa957cff58628",
      "l1GasPrice": "0x48dce7a25",
      "l1GasUsed": "0x640",
      "operatorFeeConstant": "0x0",
      "operatorFeeScalar": "0x5f5e100",
      "tokenRatio": "0xc03"
    },
    {
      "status": "0x1",
      "cumulativeGasUsed": "0x1397e",
      "logs": [
        {
          "address": "0x5dbc3c81dbbb39dd865ec27c66abb48150325df1",
          "topics": [
            "0xddf252ad1be2c89b69c2b068fc378daa952ba7f163c4a11628f55a4df523b3ef",
            "0x0000000000000000000000000000000000000000000000000000000000000000",
            "0x000000000000000000000000b5f72a0ab0ba971c8c4f69d4a075cb7fd7859e65"
          ],
          "data": "0x0000000000000000000000000000000000000000204fce5e3e25026110000000",
          "blockHash": "0x3f73c452dc64d8a8363cb6b6aa99200d7eeacc48788aa01047480ad9caf5f5e7",
          "blockNumber": "0x25c2ee3",
          "blockTimestamp": "0x6a23e0a7",
          "transactionHash": "0xfde6d02eca9ff6051efd66b7e33f87dd9b932047388fa16db303ff2b175cd408",
          "transactionIndex": "0x1",
          "logIndex": "0x0",
          "removed": false
        }
      ],
      "logsBloom": "0x20000000000000000000000000000000000000000000000000000000000000000000000000000000000000000000800000000000000000000000000000000000000000000000000000000008000000000000000000000000000000000000000000800000020000008000000000000800000000000000000000000010000000100000000000000000000000000000000000000000000000000000000000000000000000000000000000000000000000000000000000000000000000000000000000000002000000000000000000000000000000000000000000000000080020000000000000000000000000000000000000000000000000000000000000000000",
      "type": "0x2",
      "transactionHash": "0xfde6d02eca9ff6051efd66b7e33f87dd9b932047388fa16db303ff2b175cd408",
      "transactionIndex": "0x1",
      "blockHash": "0x3f73c452dc64d8a8363cb6b6aa99200d7eeacc48788aa01047480ad9caf5f5e7",
      "blockNumber": "0x25c2ee3",
      "gasUsed": "0x84a3",
      "effectiveGasPrice": "0xba43b7401",
      "blobGasUsed": "0x9c40",
      "from": "0x56a2950dde6b1040d1dcc4b4c4fc314bd56efb0e",
      "to": "0x5dbc3c81dbbb39dd865ec27c66abb48150325df1",
      "contractAddress": null,
      "daFootprintGasScalar": "0x190",
      "l1BaseFeeScalar": "0x2943b",
      "l1BlobBaseFee": "0x4691f12e",
      "l1BlobBaseFeeScalar": "0x45567c",
      "l1Fee": "0x3fa957cff58628",
      "l1GasPrice": "0x48dce7a25",
      "l1GasUsed": "0x640",
      "operatorFeeConstant": "0x0",
      "operatorFeeScalar": "0x5f5e100",
      "tokenRatio": "0xc03"
    },
    {
      "status": "0x1",
      "cumulativeGasUsed": "0x1397e",
      "logs": [
        {
          "address": "0xdd63da0a5ec0a76029dd49c32de7de73d8918e96",
          "topics": [
            "0xddf252ad1be2c89b69c2b068fc378daa952ba7f163c4a11628f55a4df523b3ef",
            "0x0000000000000000000000000000000000000000000000000000000000000000",
            "0x000000000000000000000000b5f72a0ab0ba971c8c4f69d4a075cb7fd7859e65"
          ],
          "data": "0x0000000000000000000000000000000000000000204fce5e3e25026110000000",
          "blockHash": "0x93fe6b1ee5493ac2c76ae68f7b4b6d04179681664c24efb3f32cf55bf304fda9",
          "blockNumber": "0x25c2ee6",
          "blockTimestamp": "0x6a23e0ad",
          "transactionHash": "0xb7d5524020a702fc57d808df2edd70c30b9c5d8a9f8e261e6c53135e5421b028",
          "transactionIndex": "0x1",
          "logIndex": "0x0",
          "removed": false
        }
      ],
      "logsBloom": "0x00000000000000000000000000000000000000000000000000000000000000000000000000000000000000000000000000000000000040000000000000000000000000000000000000000008000000000000000000000000000000000000000000000000020000008000000000000800000000000000000000000010000000100000000000000000000000000000000000000000000000000000000000000000000000000000000000000000000000000000000000000000000000000000000000000002000000000000000000000800000000000000000000000000080020000000000000000000000000000000000000000000000000000000000000100000",
      "type": "0x2",
      "transactionHash": "0xb7d5524020a702fc57d808df2edd70c30b9c5d8a9f8e261e6c53135e5421b028",
      "transactionIndex": "0x1",
      "blockHash": "0x93fe6b1ee5493ac2c76ae68f7b4b6d04179681664c24efb3f32cf55bf304fda9",
      "blockNumber": "0x25c2ee6",
      "gasUsed": "0x84a3",
      "effectiveGasPrice": "0xba43b7401",
      "blobGasUsed": "0x9c40",
      "from": "0x56a2950dde6b1040d1dcc4b4c4fc314bd56efb0e",
      "to": "0xdd63da0a5ec0a76029dd49c32de7de73d8918e96",
      "contractAddress": null,
      "daFootprintGasScalar": "0x190",
      "l1BaseFeeScalar": "0x2943b",
      "l1BlobBaseFee": "0x47e6dfdc",
      "l1BlobBaseFeeScalar": "0x45567c",
      "l1Fee": "0x3e180bf009fda6",
      "l1GasPrice": "0x46bf15641",
      "l1GasUsed": "0x640",
      "operatorFeeConstant": "0x0",
      "operatorFeeScalar": "0x5f5e100",
      "tokenRatio": "0xc03"
    },
    {
      "status": "0x1",
      "cumulativeGasUsed": "0x1397e",
      "logs": [
        {
          "address": "0x028ffc7b83ac3ec143bed5a8f14c7e49a356c793",
          "topics": [
            "0xddf252ad1be2c89b69c2b068fc378daa952ba7f163c4a11628f55a4df523b3ef",
            "0x0000000000000000000000000000000000000000000000000000000000000000",
            "0x000000000000000000000000b5f72a0ab0ba971c8c4f69d4a075cb7fd7859e65"
          ],
          "data": "0x0000000000000000000000000000000000000000204fce5e3e25026110000000",
          "blockHash": "0xd04cd56332b3024db2cc839fc90f2400389bc536d049994e00186f4f466b5b97",
          "blockNumber": "0x25c2ee8",
          "blockTimestamp": "0x6a23e0b1",
          "transactionHash": "0xa42675d8a6a4d71408ae1b19365ffe53f125f0594b5d58083c46d8786a1c7135",
          "transactionIndex": "0x1",
          "logIndex": "0x0",
          "removed": false
        }
      ],
      "logsBloom": "0x00000000000000000000000000000000000000000000000000000040000000000000000000000000000000000000000000000000000000000000000000000040000000000000000000000008000000000000000000000000000000000000000000000000020000008000000000000800000000000000000000000010000000100000000000000000000000000000000000000000000000000000000000000000000000000000000000000000000000000000000000000000000000000000000000000002000000000000000000000000000000000000000000000000080020000000000000001000000000000000000000000000000000000000000000000000",
      "type": "0x2",
      "transactionHash": "0xa42675d8a6a4d71408ae1b19365ffe53f125f0594b5d58083c46d8786a1c7135",
      "transactionIndex": "0x1",
      "blockHash": "0xd04cd56332b3024db2cc839fc90f2400389bc536d049994e00186f4f466b5b97",
      "blockNumber": "0x25c2ee8",
      "gasUsed": "0x84a3",
      "effectiveGasPrice": "0xba43b7401",
      "blobGasUsed": "0x9c40",
      "from": "0x56a2950dde6b1040d1dcc4b4c4fc314bd56efb0e",
      "to": "0x028ffc7b83ac3ec143bed5a8f14c7e49a356c793",
      "contractAddress": null,
      "daFootprintGasScalar": "0x190",
      "l1BaseFeeScalar": "0x2943b",
      "l1BlobBaseFee": "0x47e6dfdc",
      "l1BlobBaseFeeScalar": "0x45567c",
      "l1Fee": "0x3e180bf009fda6",
      "l1GasPrice": "0x46bf15641",
      "l1GasUsed": "0x640",
      "operatorFeeConstant": "0x0",
      "operatorFeeScalar": "0x5f5e100",
      "tokenRatio": "0xc03"
    },
    {
      "status": "0x1",
      "cumulativeGasUsed": "0x1eeb0",
      "logs": [
        {
          "address": "0x61d3e9944feff4a17854e408c5ac766a1d9adb63",
          "topics": [
            "0xddf252ad1be2c89b69c2b068fc378daa952ba7f163c4a11628f55a4df523b3ef",
            "0x0000000000000000000000000000000000000000000000000000000000000000",
            "0x000000000000000000000000b5f72a0ab0ba971c8c4f69d4a075cb7fd7859e65"
          ],
          "data": "0x0000000000000000000000000000000000000000204fce5e3e25026110000000",
          "blockHash": "0x40276a599ae15d62584ba28a831c3c2e42af5a6c1ffdadbcb04b49df0239fd92",
          "blockNumber": "0x25c2eea",
          "blockTimestamp": "0x6a23e0b5",
          "transactionHash": "0xc45625ab278c65746b109eb05a252d07edcb066fcd5c5b13eed19908dee2951f",
          "transactionIndex": "0x2",
          "logIndex": "0x1",
          "removed": false
        }
      ],
      "logsBloom": "0x00000000000000000000000000000000000000000000000000000020000000000000000000000000000100000000000000000000000000000000000000000000000000000000000000000008000000000000000000000000000000000000000000000000020000008000000000000800000000000000000000000010000000100000000000000000000000000000000000000000000000000000000000000000000000000000000000000000000000000000000000000000000000000000000000000002000000000000000000000000000000000000000000000000080020000000000000008000000000000000000000000000000000000000000000000000",
      "type": "0x2",
      "transactionHash": "0xc45625ab278c65746b109eb05a252d07edcb066fcd5c5b13eed19908dee2951f",
      "transactionIndex": "0x2",
      "blockHash": "0x40276a599ae15d62584ba28a831c3c2e42af5a6c1ffdadbcb04b49df0239fd92",
      "blockNumber": "0x25c2eea",
      "gasUsed": "0x84a3",
      "effectiveGasPrice": "0xba43b7401",
      "blobGasUsed": "0x9c40",
      "from": "0x56a2950dde6b1040d1dcc4b4c4fc314bd56efb0e",
      "to": "0x61d3e9944feff4a17854e408c5ac766a1d9adb63",
      "contractAddress": null,
      "daFootprintGasScalar": "0x190",
      "l1BaseFeeScalar": "0x2943b",
      "l1BlobBaseFee": "0x40ff4c99",
      "l1BlobBaseFeeScalar": "0x45567c",
      "l1Fee": "0x3cf26f72f02f68",
      "l1GasPrice": "0x46201c4df",
      "l1GasUsed": "0x640",
      "operatorFeeConstant": "0x0",
      "operatorFeeScalar": "0x5f5e100",
      "tokenRatio": "0xbff"
    },
    {
      "status": "0x1",
      "cumulativeGasUsed": "0x13972",
      "logs": [
        {
          "address": "0x6ceaf0d037e628d8c08e1462f628bde4da633813",
          "topics": [
            "0xddf252ad1be2c89b69c2b068fc378daa952ba7f163c4a11628f55a4df523b3ef",
            "0x0000000000000000000000000000000000000000000000000000000000000000",
            "0x000000000000000000000000b5f72a0ab0ba971c8c4f69d4a075cb7fd7859e65"
          ],
          "data": "0x0000000000000000000000000000000000000000204fce5e3e25026110000000",
          "blockHash": "0xb6857e802b71c0875d4c66daff0d3f471a94c2663f5e84c95e21f9a394c2da0f",
          "blockNumber": "0x25c2eec",
          "blockTimestamp": "0x6a23e0b9",
          "transactionHash": "0xfe930f59bfc230f0932ae568c5ce544068068f4d3c51d56330cdf047cd3ac050",
          "transactionIndex": "0x1",
          "logIndex": "0x0",
          "removed": false
        }
      ],
      "logsBloom": "0x00000000000000000000000000000100000000000000000000000000000000000000000000000000000000000000000000000000000000000000000000000000000000000000000000000008000000000000000000000000000000000000000000000000020000008000000000000800000000000000000000000010000000100000000000000000000000002000000000000000000000000000000000000000000000000000000000000000000000000000000000000000000000080000000000000002000000000000000000000000000000000000000000000000080020000000000000000000000000000000000000000000000000000000000000000000",
      "type": "0x2",
      "transactionHash": "0xfe930f59bfc230f0932ae568c5ce544068068f4d3c51d56330cdf047cd3ac050",
      "transactionIndex": "0x1",
      "blockHash": "0xb6857e802b71c0875d4c66daff0d3f471a94c2663f5e84c95e21f9a394c2da0f",
      "blockNumber": "0x25c2eec",
      "gasUsed": "0x84a3",
      "effectiveGasPrice": "0xba43b7401",
      "blobGasUsed": "0x9c40",
      "from": "0x56a2950dde6b1040d1dcc4b4c4fc314bd56efb0e",
      "to": "0x6ceaf0d037e628d8c08e1462f628bde4da633813",
      "contractAddress": null,
      "daFootprintGasScalar": "0x190",
      "l1BaseFeeScalar": "0x2943b",
      "l1BlobBaseFee": "0x40ff4c99",
      "l1BlobBaseFeeScalar": "0x45567c",
      "l1Fee": "0x3cf26f72f02f68",
      "l1GasPrice": "0x46201c4df",
      "l1GasUsed": "0x640",
      "operatorFeeConstant": "0x0",
      "operatorFeeScalar": "0x5f5e100",
      "tokenRatio": "0xbff"
    },
    {
      "status": "0x1",
      "cumulativeGasUsed": "0x13972",
      "logs": [
        {
          "address": "0x56979c925faa2b84637f2991c31fd6b1b33624b0",
          "topics": [
            "0xddf252ad1be2c89b69c2b068fc378daa952ba7f163c4a11628f55a4df523b3ef",
            "0x0000000000000000000000000000000000000000000000000000000000000000",
            "0x000000000000000000000000b5f72a0ab0ba971c8c4f69d4a075cb7fd7859e65"
          ],
          "data": "0x0000000000000000000000000000000000000000204fce5e3e25026110000000",
          "blockHash": "0xa2e4bd8ff50dd0bed5a0dbeabffaa192a365d224e5eb424a7fa14d9bc056a6cf",
          "blockNumber": "0x25c2eee",
          "blockTimestamp": "0x6a23e0bd",
          "transactionHash": "0xf8d66b7b74c110c1240e3f00c2aae4e9e167f1d79eb7f0758c58dada457f73ff",
          "transactionIndex": "0x1",
          "logIndex": "0x0",
          "removed": false
        }
      ],
      "logsBloom": "0x00000000000000000000000000000000000200000000000000000000000000000000000000000000000000000000000000000000400000000000000000000000000000000000000000000008000000000000000000000000000000000000000000000000020000008000000000000800000000000000000000000010000200100000000000000000000000000000000000000000000000000000000000000000000000000000000000000000000000000000000000000000000000000000000000000002000000000000000000000000000000000000000000000000080020000000000000000000000000000000000000000000000000000000000000000000",
      "type": "0x2",
      "transactionHash": "0xf8d66b7b74c110c1240e3f00c2aae4e9e167f1d79eb7f0758c58dada457f73ff",
      "transactionIndex": "0x1",
      "blockHash": "0xa2e4bd8ff50dd0bed5a0dbeabffaa192a365d224e5eb424a7fa14d9bc056a6cf",
      "blockNumber": "0x25c2eee",
      "gasUsed": "0x84a3",
      "effectiveGasPrice": "0xba43b7401",
      "blobGasUsed": "0x9c40",
      "from": "0x56a2950dde6b1040d1dcc4b4c4fc314bd56efb0e",
      "to": "0x56979c925faa2b84637f2991c31fd6b1b33624b0",
      "contractAddress": null,
      "daFootprintGasScalar": "0x190",
      "l1BaseFeeScalar": "0x2943b",
      "l1BlobBaseFee": "0x40ff4c99",
      "l1BlobBaseFeeScalar": "0x45567c",
      "l1Fee": "0x3cf26f72f02f68",
      "l1GasPrice": "0x46201c4df",
      "l1GasUsed": "0x640",
      "operatorFeeConstant": "0x0",
      "operatorFeeScalar": "0x5f5e100",
      "tokenRatio": "0xbff"
    },
    {
      "status": "0x1",
      "cumulativeGasUsed": "0x16532",
      "logs": [
        {
          "address": "0x9e2dbb4930607e58401c3f55cbe2e0819a8a0523",
          "topics": [
            "0xddf252ad1be2c89b69c2b068fc378daa952ba7f163c4a11628f55a4df523b3ef",
            "0x0000000000000000000000000000000000000000000000000000000000000000",
            "0x000000000000000000000000b5f72a0ab0ba971c8c4f69d4a075cb7fd7859e65"
          ],
          "data": "0x0000000000000000000000000000000000000000204fce5e3e25026110000000",
          "blockHash": "0x4562043bc6285568975b632a4f1cfe4869cf2c8174ae6f0f050846ee99003c53",
          "blockNumber": "0x25c2ef0",
          "blockTimestamp": "0x6a23e0c1",
          "transactionHash": "0x30c59a29b06cc9ebca4df7ee0002cf2e12c84acb5aac9e9088cbdcad048cbca1",
          "transactionIndex": "0x1",
          "logIndex": "0x0",
          "removed": false
        }
      ],
      "logsBloom": "0x00000000000000000000000000000000000000000000000000010000000000000000000000000000000000000000000000000000000000000000000000000000000000000000000000000008000000000000000000000000000000000000000000000000020000008000000000000800000000000000000000000010000000100000000000000000000000000000000000000000000000000000000000000000000000000000000000000000000000000000000000000000000000000000000000020002000000000000000000000000000000000000000000080000080020000000000000000000000000000000000000000000000000000000000000000000",
      "type": "0x2",
      "transactionHash": "0x30c59a29b06cc9ebca4df7ee0002cf2e12c84acb5aac9e9088cbdcad048cbca1",
      "transactionIndex": "0x1",
      "blockHash": "0x4562043bc6285568975b632a4f1cfe4869cf2c8174ae6f0f050846ee99003c53",
      "blockNumber": "0x25c2ef0",
      "gasUsed": "0x84a3",
      "effectiveGasPrice": "0xba43b7401",
      "blobGasUsed": "0x9c40",
      "from": "0x56a2950dde6b1040d1dcc4b4c4fc314bd56efb0e",
      "to": "0x9e2dbb4930607e58401c3f55cbe2e0819a8a0523",
      "contractAddress": null,
      "daFootprintGasScalar": "0x190",
      "l1BaseFeeScalar": "0x2943b",
      "l1BlobBaseFee": "0x41fa091d",
      "l1BlobBaseFeeScalar": "0x45567c",
      "l1Fee": "0x3bac247b3f24ae",
      "l1GasPrice": "0x4469cd46d",
      "l1GasUsed": "0x640",
      "operatorFeeConstant": "0x0",
      "operatorFeeScalar": "0x5f5e100",
      "tokenRatio": "0xbff"
    },
    {
      "status": "0x1",
      "cumulativeGasUsed": "0x1397e",
      "logs": [
        {
          "address": "0xd568d045d34dca3f4f24be8099a8b90779047b6a",
          "topics": [
            "0xddf252ad1be2c89b69c2b068fc378daa952ba7f163c4a11628f55a4df523b3ef",
            "0x0000000000000000000000000000000000000000000000000000000000000000",
            "0x000000000000000000000000b5f72a0ab0ba971c8c4f69d4a075cb7fd7859e65"
          ],
          "data": "0x0000000000000000000000000000000000000000204fce5e3e25026110000000",
          "blockHash": "0x5c80ee2332759413853741dd7688b4b6143e7d002de68cd2bd6a355b457c0a7c",
          "blockNumber": "0x25c2ef3",
          "blockTimestamp": "0x6a23e0c7",
          "transactionHash": "0xba7035d02136de2cf82f1825f574407e1d3a1cafde6a4874f56c2f5429e8bc3a",
          "transactionIndex": "0x1",
          "logIndex": "0x0",
          "removed": false
        }
      ],
      "logsBloom": "0x00000000000000000000000000000000000000000000000000000000000000000100001000000000000000000000000000000000000000000000000000000000000000000000000000000008000000000000000000000000000000000000000000000000020000008000000000000800000000000000000000000010000000100000000000000000000000000000000000000000000000000000000000000000000000000000000000000000000000000000000000000000000000000000000000000002000000000000000000000000000000000000000000000000080020000000000000000000000000000000000000000002000000000000000000000000",
      "type": "0x2",
      "transactionHash": "0xba7035d02136de2cf82f1825f574407e1d3a1cafde6a4874f56c2f5429e8bc3a",
      "transactionIndex": "0x1",
      "blockHash": "0x5c80ee2332759413853741dd7688b4b6143e7d002de68cd2bd6a355b457c0a7c",
      "blockNumber": "0x25c2ef3",
      "gasUsed": "0x84a3",
      "effectiveGasPrice": "0xba43b7401",
      "blobGasUsed": "0x9c40",
      "from": "0x56a2950dde6b1040d1dcc4b4c4fc314bd56efb0e",
      "to": "0xd568d045d34dca3f4f24be8099a8b90779047b6a",
      "contractAddress": null,
      "daFootprintGasScalar": "0x190",
      "l1BaseFeeScalar": "0x2943b",
      "l1BlobBaseFee": "0x41fa091d",
      "l1BlobBaseFeeScalar": "0x45567c",
      "l1Fee": "0x3bac247b3f24ae",
      "l1GasPrice": "0x4469cd46d",
      "l1GasUsed": "0x640",
      "operatorFeeConstant": "0x0",
      "operatorFeeScalar": "0x5f5e100",
      "tokenRatio": "0xbff"
    },
    {
      "status": "0x1",
      "cumulativeGasUsed": "0x16532",
      "logs": [
        {
          "address": "0x781dfd2a2e6b2fb23e10a4b36691520e4bc36e2a",
          "topics": [
            "0xddf252ad1be2c89b69c2b068fc378daa952ba7f163c4a11628f55a4df523b3ef",
            "0x0000000000000000000000000000000000000000000000000000000000000000",
            "0x000000000000000000000000b5f72a0ab0ba971c8c4f69d4a075cb7fd7859e65"
          ],
          "data": "0x0000000000000000000000000000000000000000204fce5e3e25026110000000",
          "blockHash": "0x46e36d873c47834e4f6308f2e9ed1af04745537fd865d3691c8750d004b0bfa9",
          "blockNumber": "0x25c2ef6",
          "blockTimestamp": "0x6a23e0cd",
          "transactionHash": "0x645582dfb455efd26d5d7c5e5fc37371eff6bb1d08e596db67c5a0784b25391b",
          "transactionIndex": "0x1",
          "logIndex": "0x0",
          "removed": false
        }
      ],
      "logsBloom": "0x00000000000000000000000000000000000000000000000000000000000000000000000000000000000000000000000000000000000000000000000000000000000000000000000000000008000000000000040000000000000000000000000000000000020000008000000000000800000000000000000000000010000000100000000000000000000000020000000000000000000000000000000000000000000000000000000000000000000000000000000000000000000000000000000000000002000000000000000000000000000000000000000000000000080020000000000000000000000000000000000000000001000000000000000000000000",
      "type": "0x2",
      "transactionHash": "0x645582dfb455efd26d5d7c5e5fc37371eff6bb1d08e596db67c5a0784b25391b",
      "transactionIndex": "0x1",
      "blockHash": "0x46e36d873c47834e4f6308f2e9ed1af04745537fd865d3691c8750d004b0bfa9",
      "blockNumber": "0x25c2ef6",
      "gasUsed": "0x84a3",
      "effectiveGasPrice": "0xba43b7401",
      "blobGasUsed": "0x9c40",
      "from": "0x56a2950dde6b1040d1dcc4b4c4fc314bd56efb0e",
      "to": "0x781dfd2a2e6b2fb23e10a4b36691520e4bc36e2a",
      "contractAddress": null,
      "daFootprintGasScalar": "0x190",
      "l1BaseFeeScalar": "0x2943b",
      "l1BlobBaseFee": "0x4338c6d9",
      "l1BlobBaseFeeScalar": "0x45567c",
      "l1Fee": "0x3acdc36bcc7bbe",
      "l1GasPrice": "0x432f8d659",
      "l1GasUsed": "0x640",
      "operatorFeeConstant": "0x0",
      "operatorFeeScalar": "0x5f5e100",
      "tokenRatio": "0xbff"
    },
    {
      "status": "0x1",
      "cumulativeGasUsed": "0x1397e",
      "logs": [
        {
          "address": "0x2cbc4431d40121faa5b5a6d15240285761128f5a",
          "topics": [
            "0xddf252ad1be2c89b69c2b068fc378daa952ba7f163c4a11628f55a4df523b3ef",
            "0x0000000000000000000000000000000000000000000000000000000000000000",
            "0x000000000000000000000000b5f72a0ab0ba971c8c4f69d4a075cb7fd7859e65"
          ],
          "data": "0x0000000000000000000000000000000000000000204fce5e3e25026110000000",
          "blockHash": "0x0a4940166ed748dd0651621c7e65e9a90f5f6af3621a8738ab5fa2d0113514cd",
          "blockNumber": "0x25c2ef9",
          "blockTimestamp": "0x6a23e0d3",
          "transactionHash": "0x259b257b36ebb15059845fcf29925ab07370dce828b95e82332e0e417980499a",
          "transactionIndex": "0x1",
          "logIndex": "0x0",
          "removed": false
        }
      ],
      "logsBloom": "0x00000000000000000000000000000000000000000000000000000000000000200000000000000000000000000000000000000000000000000000000000000000000000000000000000000008000000000000000000000000000000000000000000000000020000008000000000000800000000000000000000000010000000100000000000000000000000000000000000000000000000000000000000000000000000000000000000000000000000000000000000000000000000000000000000000002000000000000000000000000080000000004000000000000080020000000000000000000000000000000000000000000000000000000000000000000",
      "type": "0x2",
      "transactionHash": "0x259b257b36ebb15059845fcf29925ab07370dce828b95e82332e0e417980499a",
      "transactionIndex": "0x1",
      "blockHash": "0x0a4940166ed748dd0651621c7e65e9a90f5f6af3621a8738ab5fa2d0113514cd",
      "blockNumber": "0x25c2ef9",
      "gasUsed": "0x84a3",
      "effectiveGasPrice": "0xba43b7401",
      "blobGasUsed": "0x9c40",
      "from": "0x56a2950dde6b1040d1dcc4b4c4fc314bd56efb0e",
      "to": "0x2cbc4431d40121faa5b5a6d15240285761128f5a",
      "contractAddress": null,
      "daFootprintGasScalar": "0x190",
      "l1BaseFeeScalar": "0x2943b",
      "l1BlobBaseFee": "0x4338c6d9",
      "l1BlobBaseFeeScalar": "0x45567c",
      "l1Fee": "0x3acdc36bcc7bbe",
      "l1GasPrice": "0x432f8d659",
      "l1GasUsed": "0x640",
      "operatorFeeConstant": "0x0",
      "operatorFeeScalar": "0x5f5e100",
      "tokenRatio": "0xbff"
    },
    {
      "status": "0x1",
      "cumulativeGasUsed": "0x1397e",
      "logs": [
        {
          "address": "0x37e11a01f58f973098bef434a34e7fc3be4e3041",
          "topics": [
            "0xddf252ad1be2c89b69c2b068fc378daa952ba7f163c4a11628f55a4df523b3ef",
            "0x0000000000000000000000000000000000000000000000000000000000000000",
            "0x000000000000000000000000b5f72a0ab0ba971c8c4f69d4a075cb7fd7859e65"
          ],
          "data": "0x0000000000000000000000000000000000000000204fce5e3e25026110000000",
          "blockHash": "0xdbfd038a063ce7a6f5e089865e727a281b672e0413034c70f723977f04406005",
          "blockNumber": "0x25c2efb",
          "blockTimestamp": "0x6a23e0d7",
          "transactionHash": "0x45765a79074aec582ac73a5a201b30d3c82f3f2563e8ab571bc5555fb9b675ce",
          "transactionIndex": "0x1",
          "logIndex": "0x0",
          "removed": false
        }
      ],
      "logsBloom": "0x00000000000000000000000000000000000000000000000000000000000000000000000000000000000000000000000000000000000020000000000000000000000000000000000000000008000000000000000000000000000000000000000000000000020000008000000000000800000000000000000000000010000000100000000000000000000000000000000000000000000000000000000000000000000100000000000000000000000000000000000000000000000000000000000000000002000000000000000000000000000000000000000000000000080020000000000000000000000000000000000010000000000000000000000000000000",
      "type": "0x2",
      "transactionHash": "0x45765a79074aec582ac73a5a201b30d3c82f3f2563e8ab571bc5555fb9b675ce",
      "transactionIndex": "0x1",
      "blockHash": "0xdbfd038a063ce7a6f5e089865e727a281b672e0413034c70f723977f04406005",
      "blockNumber": "0x25c2efb",
      "gasUsed": "0x84a3",
      "effectiveGasPrice": "0xba43b7401",
      "blobGasUsed": "0x9c40",
      "from": "0x56a2950dde6b1040d1dcc4b4c4fc314bd56efb0e",
      "to": "0x37e11a01f58f973098bef434a34e7fc3be4e3041",
      "contractAddress": null,
      "daFootprintGasScalar": "0x190",
      "l1BaseFeeScalar": "0x2943b",
      "l1BlobBaseFee": "0x4338c6d9",
      "l1BlobBaseFeeScalar": "0x45567c",
      "l1Fee": "0x3acdc36bcc7bbe",
      "l1GasPrice": "0x432f8d659",
      "l1GasUsed": "0x640",
      "operatorFeeConstant": "0x0",
      "operatorFeeScalar": "0x5f5e100",
      "tokenRatio": "0xbff"
    },
    {
      "status": "0x1",
      "cumulativeGasUsed": "0x1c4c2",
      "logs": [
        {
          "address": "0x718c268093b11bea78a9b84861b2e4e96e86c33b",
          "topics": [
            "0xddf252ad1be2c89b69c2b068fc378daa952ba7f163c4a11628f55a4df523b3ef",
            "0x0000000000000000000000000000000000000000000000000000000000000000",
            "0x000000000000000000000000b5f72a0ab0ba971c8c4f69d4a075cb7fd7859e65"
          ],
          "data": "0x0000000000000000000000000000000000000000204fce5e3e25026110000000",
          "blockHash": "0x23a9869bfd655c515e577bc319b7f4c7298fd395f4d4b31828f4de12b5b807b0",
          "blockNumber": "0x25c2efd",
          "blockTimestamp": "0x6a23e0db",
          "transactionHash": "0x33c7f8c957f1ea20a4a5c508f4914e3e7283678423167838bc9d8d532db766a4",
          "transactionIndex": "0x2",
          "logIndex": "0x1",
          "removed": false
        }
      ],
      "logsBloom": "0x00000000000000000000000000000000000000000000000000000000000000000000000000000000000000000000000000000000000000000000000000000000001000000000000000000008000000000000000000000000000000000000000000000000020000008000000000000800000000200000000000000010000000100000000000000000000000000000000000000000000000000000000000000000000000000000000000000000000000000000000000000000000000000000000000000002000000000000000000000000000000000000000000000000080020000000000000000000000000000000000000100000000000000000000000000000",
      "type": "0x2",
      "transactionHash": "0x33c7f8c957f1ea20a4a5c508f4914e3e7283678423167838bc9d8d532db766a4",
      "transactionIndex": "0x2",
      "blockHash": "0x23a9869bfd655c515e577bc319b7f4c7298fd395f4d4b31828f4de12b5b807b0",
      "blockNumber": "0x25c2efd",
      "gasUsed": "0x84a3",
      "effectiveGasPrice": "0xba43b7401",
      "blobGasUsed": "0x9c40",
      "from": "0x56a2950dde6b1040d1dcc4b4c4fc314bd56efb0e",
      "to": "0x718c268093b11bea78a9b84861b2e4e96e86c33b",
      "contractAddress": null,
      "daFootprintGasScalar": "0x190",
      "l1BaseFeeScalar": "0x2943b",
      "l1BlobBaseFee": "0x3b6b22c5",
      "l1BlobBaseFeeScalar": "0x45567c",
      "l1Fee": "0x3b82255fe38249",
      "l1GasPrice": "0x44e518aa7",
      "l1GasUsed": "0x640",
      "operatorFeeConstant": "0x0",
      "operatorFeeScalar": "0x5f5e100",
      "tokenRatio": "0xbff"
    },
    {
      "status": "0x1",
      "cumulativeGasUsed": "0x1397e",
      "logs": [
        {
          "address": "0x42feae1f60b23feb1f5c501977af161116fe3e99",
          "topics": [
            "0xddf252ad1be2c89b69c2b068fc378daa952ba7f163c4a11628f55a4df523b3ef",
            "0x0000000000000000000000000000000000000000000000000000000000000000",
            "0x000000000000000000000000b5f72a0ab0ba971c8c4f69d4a075cb7fd7859e65"
          ],
          "data": "0x0000000000000000000000000000000000000000204fce5e3e25026110000000",
          "blockHash": "0x6a254cee9531ae261f8586b6a99b4fe600e42912c94d95ad18cf23c82cb7c450",
          "blockNumber": "0x25c2eff",
          "blockTimestamp": "0x6a23e0df",
          "transactionHash": "0x788e1be3791cfaa7d2d5b019f89935393e880d6094f792d1f6e060c8d7ed32fb",
          "transactionIndex": "0x1",
          "logIndex": "0x0",
          "removed": false
        }
      ],
      "logsBloom": "0x00000000000000000000000000000000000000000000000000000000000000000000000000000000000000000000000000000000000000000000000000000000000000000000000000000008000000000000000000000200000000000000000000000000020000008000000000000800000000000000000000000010000000100000000000000000000000000000000000000000000000000000000000000000000000000000000000000000000000000000000000000000000000000040000000000002000000000000000000000000000000000000000000000000080020000000000000000000000000000000000000000800000000000000000000000000",
      "type": "0x2",
      "transactionHash": "0x788e1be3791cfaa7d2d5b019f89935393e880d6094f792d1f6e060c8d7ed32fb",
      "transactionIndex": "0x1",
      "blockHash": "0x6a254cee9531ae261f8586b6a99b4fe600e42912c94d95ad18cf23c82cb7c450",
      "blockNumber": "0x25c2eff",
      "gasUsed": "0x84a3",
      "effectiveGasPrice": "0xba43b7401",
      "blobGasUsed": "0x9c40",
      "from": "0x56a2950dde6b1040d1dcc4b4c4fc314bd56efb0e",
      "to": "0x42feae1f60b23feb1f5c501977af161116fe3e99",
      "contractAddress": null,
      "daFootprintGasScalar": "0x190",
      "l1BaseFeeScalar": "0x2943b",
      "l1BlobBaseFee": "0x3b6b22c5",
      "l1BlobBaseFeeScalar": "0x45567c",
      "l1Fee": "0x3b82255fe38249",
      "l1GasPrice": "0x44e518aa7",
      "l1GasUsed": "0x640",
      "operatorFeeConstant": "0x0",
      "operatorFeeScalar": "0x5f5e100",
      "tokenRatio": "0xbff"
    },
    {
      "status": "0x1",
      "cumulativeGasUsed": "0x1397e",
      "logs": [
        {
          "address": "0x039263c8b98f62f7e2debcd277ef3f1f2baf9dce",
          "topics": [
            "0xddf252ad1be2c89b69c2b068fc378daa952ba7f163c4a11628f55a4df523b3ef",
            "0x0000000000000000000000000000000000000000000000000000000000000000",
            "0x000000000000000000000000b5f72a0ab0ba971c8c4f69d4a075cb7fd7859e65"
          ],
          "data": "0x0000000000000000000000000000000000000000204fce5e3e25026110000000",
          "blockHash": "0xceeafce367d06596bbfda35f2b3819e0cdd0853796fec6b6b65495160fe4fc64",
          "blockNumber": "0x25c2f01",
          "blockTimestamp": "0x6a23e0e3",
          "transactionHash": "0xc61fd199507c5b5f5978be3b28d3f518af03d88402b07ea4360ae936a61654d7",
          "transactionIndex": "0x1",
          "logIndex": "0x0",
          "removed": false
        }
      ],
      "logsBloom": "0x00000000000000000000000000000000000000000000000000000000000000000000000000000000000004000000000000000000000000000000000000000000000000000000000000000008000000000000000000000000000000000000000000000000020000008000000000000800000000000000000000000010000000100000000000000000000000000000000000000000000000000000000000000000008000000000000000000000000000000000000000000000000000000000000000000002000000000000000000000000000000000000000000000000080020000000000000040000000000000000000000000000000000000000000000000000",
      "type": "0x2",
      "transactionHash": "0xc61fd199507c5b5f5978be3b28d3f518af03d88402b07ea4360ae936a61654d7",
      "transactionIndex": "0x1",
      "blockHash": "0xceeafce367d06596bbfda35f2b3819e0cdd0853796fec6b6b65495160fe4fc64",
      "blockNumber": "0x25c2f01",
      "gasUsed": "0x84a3",
      "effectiveGasPrice": "0xba43b7401",
      "blobGasUsed": "0x9c40",
      "from": "0x56a2950dde6b1040d1dcc4b4c4fc314bd56efb0e",
      "to": "0x039263c8b98f62f7e2debcd277ef3f1f2baf9dce",
      "contractAddress": null,
      "daFootprintGasScalar": "0x190",
      "l1BaseFeeScalar": "0x2943b",
      "l1BlobBaseFee": "0x3b6b22c5",
      "l1BlobBaseFeeScalar": "0x45567c",
      "l1Fee": "0x3b82255fe38249",
      "l1GasPrice": "0x44e518aa7",
      "l1GasUsed": "0x640",
      "operatorFeeConstant": "0x0",
      "operatorFeeScalar": "0x5f5e100",
      "tokenRatio": "0xbff"
    },
    {
      "status": "0x1",
      "cumulativeGasUsed": "0x1397e",
      "logs": [
        {
          "address": "0x58061565f6f2b5c8322ee3fa2dcd6497d72e5b20",
          "topics": [
            "0xddf252ad1be2c89b69c2b068fc378daa952ba7f163c4a11628f55a4df523b3ef",
            "0x0000000000000000000000000000000000000000000000000000000000000000",
            "0x000000000000000000000000b5f72a0ab0ba971c8c4f69d4a075cb7fd7859e65"
          ],
          "data": "0x0000000000000000000000000000000000000000204fce5e3e25026110000000",
          "blockHash": "0x12581e178d197e6c226a5b5406720d9c76fc4d5886b1bbe0979ff7066c4ae20f",
          "blockNumber": "0x25c2f04",
          "blockTimestamp": "0x6a23e0e9",
          "transactionHash": "0x7b208124d0543fc3de0ca8736a69efaee22e8d56a1967948aded499960c349f9",
          "transactionIndex": "0x1",
          "logIndex": "0x0",
          "removed": false
        }
      ],
      "logsBloom": "0x00000000000000000001000000000000000000000000000000000000000000000000000000000000000000000000000000000000000000000000000000000000000000000000000000000008000000000000000000000000000000000000000000000000020000108000000000000800000000000000000000000010000000102000000000000000000000000000000000000000000000000000000000000000000000000000000000000000000000000000000000000000000000000000000000000002000000000000000000000000000000000000000000000000080020000000000000000000000000000000000000000000000000000000000000000000",
      "type": "0x2",
      "transactionHash": "0x7b208124d0543fc3de0ca8736a69efaee22e8d56a1967948aded499960c349f9",
      "transactionIndex": "0x1",
      "blockHash": "0x12581e178d197e6c226a5b5406720d9c76fc4d5886b1bbe0979ff7066c4ae20f",
      "blockNumber": "0x25c2f04",
      "gasUsed": "0x84a3",
      "effectiveGasPrice": "0xba43b7401",
      "blobGasUsed": "0x9c40",
      "from": "0x56a2950dde6b1040d1dcc4b4c4fc314bd56efb0e",
      "to": "0x58061565f6f2b5c8322ee3fa2dcd6497d72e5b20",
      "contractAddress": null,
      "daFootprintGasScalar": "0x190",
      "l1BaseFeeScalar": "0x2943b",
      "l1BlobBaseFee": "0x3c5059f0",
      "l1BlobBaseFeeScalar": "0x45567c",
      "l1Fee": "0x3b3e77fd9b99a8",
      "l1GasPrice": "0x4477932c2",
      "l1GasUsed": "0x640",
      "operatorFeeConstant": "0x0",
      "operatorFeeScalar": "0x5f5e100",
      "tokenRatio": "0xbff"
    }
  ],
  "libraries": [],
  "pending": [],
  "returns": {},
  "timestamp": 1780736234045,
  "chain": 5003,
  "commit": "948124a"
}